{
	"lesson3/PaymentContract.sol": {
		"PaymentContract": {
			"abi": [
				{
					"inputs": [],
					"stateMutability": "nonpayable",
					"type": "constructor"
				},
				{
					"anonymous": false,
					"inputs": [
						{
							"indexed": true,
							"internalType": "address",
							"name": "user",
							"type": "address"
						},
						{
							"indexed": false,
							"internalType": "uint256",
							"name": "amount",
							"type": "uint256"
						}
					],
					"name": "Deposit",
					"type": "event"
				},
				{
					"anonymous": false,
					"inputs": [
						{
							"indexed": true,
							"internalType": "address",
							"name": "by",
							"type": "address"
						}
					],
					"name": "Paused",
					"type": "event"
				},
				{
					"anonymous": false,
					"inputs": [
						{
							"indexed": true,
							"internalType": "address",
							"name": "by",
							"type": "address"
						}
					],
					"name": "Unpaused",
					"type": "event"
				},
				{
					"anonymous": false,
					"inputs": [
						{
							"indexed": true,
							"internalType": "address",
							"name": "user",
							"type": "address"
						},
						{
							"indexed": false,
							"internalType": "uint256",
							"name": "amount",
							"type": "uint256"
						}
					],
					"name": "Withdrawal",
					"type": "event"
				},
				{
					"inputs": [],
					"name": "MIN_DEPOSIT",
					"outputs": [
						{
							"internalType": "uint256",
							"name": "",
							"type": "uint256"
						}
					],
					"stateMutability": "view",
					"type": "function"
				},
				{
					"inputs": [],
					"name": "deposit",
					"outputs": [],
					"stateMutability": "payable",
					"type": "function"
				},
				{
					"inputs": [],
					"name": "getBalance",
					"outputs": [
						{
							"internalType": "uint256",
							"name": "",
							"type": "uint256"
						}
					],
					"stateMutability": "view",
					"type": "function"
				},
				{
					"inputs": [],
					"name": "getContractBalance",
					"outputs": [
						{
							"internalType": "uint256",
							"name": "",
							"type": "uint256"
						}
					],
					"stateMutability": "view",
					"type": "function"
				},
				{
					"inputs": [],
					"name": "owner",
					"outputs": [
						{
							"internalType": "address",
							"name": "",
							"type": "address"
						}
					],
					"stateMutability": "view",
					"type": "function"
				},
				{
					"inputs": [],
					"name": "pause",
					"outputs": [],
					"stateMutability": "nonpayable",
					"type": "function"
				},
				{
					"inputs": [],
					"name": "paused",
					"outputs": [
						{
							"internalType": "bool",
							"name": "",
							"type": "bool"
						}
					],
					"stateMutability": "view",
					"type": "function"
				},
				{
					"inputs": [],
					"name": "unpause",
					"outputs": [],
					"stateMutability": "nonpayable",
					"type": "function"
				},
				{
					"inputs": [
						{
							"internalType": "uint256",
							"name": "amount",
							"type": "uint256"
						}
					],
					"name": "withdraw",
					"outputs": [],
					"stateMutability": "payable",
					"type": "function"
				},
				{
					"stateMutability": "payable",
					"type": "receive"
				}
			],
			"devdoc": {
				"kind": "dev",
				"methods": {},
				"version": 1
			},
			"evm": {
				"assembly": "    /* \"lesson3/PaymentContract.sol\":61:1998  contract PaymentContract{... */\n  mstore(0x40, 0x80)\n    /* \"lesson3/PaymentContract.sol\":140:145  false */\n  0x00\n    /* \"lesson3/PaymentContract.sol\":119:145  bool public paused = false */\n  0x00\n  exp(0x0100, 0x14)\n  dup2\n  sload\n  dup2\n  0xff\n  mul\n  not\n  and\n  swap1\n  dup4\n  iszero\n  iszero\n  mul\n  or\n  swap1\n  sstore\n  pop\n    /* \"lesson3/PaymentContract.sol\":453:503  constructor(){... */\n  callvalue\n  dup1\n  iszero\n  tag_1\n  jumpi\n  revert(0x00, 0x00)\ntag_1:\n  pop\n    /* \"lesson3/PaymentContract.sol\":485:495  msg.sender */\n  caller\n    /* \"lesson3/PaymentContract.sol\":477:482  owner */\n  0x00\n  0x00\n    /* \"lesson3/PaymentContract.sol\":477:495  owner = msg.sender */\n  0x0100\n  exp\n  dup2\n  sload\n  dup2\n  0xffffffffffffffffffffffffffffffffffffffff\n  mul\n  not\n  and\n  swap1\n  dup4\n  0xffffffffffffffffffffffffffffffffffffffff\n  and\n  mul\n  or\n  swap1\n  sstore\n  pop\n    /* \"lesson3/PaymentContract.sol\":61:1998  contract PaymentContract{... */\n  dataSize(sub_0)\n  dup1\n  dataOffset(sub_0)\n  0x00\n  codecopy\n  0x00\n  return\nstop\n\nsub_0: assembly {\n        /* \"lesson3/PaymentContract.sol\":61:1998  contract PaymentContract{... */\n      mstore(0x40, 0x80)\n      jumpi(tag_1, lt(calldatasize, 0x04))\n      shr(0xe0, calldataload(0x00))\n      dup1\n      0x6f9fb98a\n      gt\n      tag_12\n      jumpi\n      dup1\n      0x6f9fb98a\n      eq\n      tag_7\n      jumpi\n      dup1\n      0x8456cb59\n      eq\n      tag_8\n      jumpi\n      dup1\n      0x8da5cb5b\n      eq\n      tag_9\n      jumpi\n      dup1\n      0xd0e30db0\n      eq\n      tag_10\n      jumpi\n      dup1\n      0xe1e158a5\n      eq\n      tag_11\n      jumpi\n      jump(tag_2)\n    tag_12:\n      dup1\n      0x12065fe0\n      eq\n      tag_3\n      jumpi\n      dup1\n      0x2e1a7d4d\n      eq\n      tag_4\n      jumpi\n      dup1\n      0x3f4ba83a\n      eq\n      tag_5\n      jumpi\n      dup1\n      0x5c975abb\n      eq\n      tag_6\n      jumpi\n      jump(tag_2)\n    tag_1:\n      jumpi(tag_2, calldatasize)\n        /* \"lesson3/PaymentContract.sol\":1982:1991  deposit() */\n      tag_15\n        /* \"lesson3/PaymentContract.sol\":1982:1989  deposit */\n      tag_16\n        /* \"lesson3/PaymentContract.sol\":1982:1991  deposit() */\n      jump\t// in\n    tag_15:\n        /* \"lesson3/PaymentContract.sol\":61:1998  contract PaymentContract{... */\n      stop\n    tag_2:\n      revert(0x00, 0x00)\n        /* \"lesson3/PaymentContract.sol\":1498:1595  function getBalance() public view returns (uint256){... */\n    tag_3:\n      callvalue\n      dup1\n      iszero\n      tag_17\n      jumpi\n      revert(0x00, 0x00)\n    tag_17:\n      pop\n      tag_18\n      tag_19\n      jump\t// in\n    tag_18:\n      mload(0x40)\n      tag_20\n      swap2\n      swap1\n      tag_21\n      jump\t// in\n    tag_20:\n      mload(0x40)\n      dup1\n      swap2\n      sub\n      swap1\n      return\n        /* \"lesson3/PaymentContract.sol\":1098:1490  function withdraw(uint256 amount) public payable whenNotPaused{... */\n    tag_4:\n      tag_22\n      0x04\n      dup1\n      calldatasize\n      sub\n      dup2\n      add\n      swap1\n      tag_23\n      swap2\n      swap1\n      tag_24\n      jump\t// in\n    tag_23:\n      tag_25\n      jump\t// in\n    tag_22:\n      stop\n        /* \"lesson3/PaymentContract.sol\":1832:1947  function unpause() public onlyOwner whenPaused{... */\n    tag_5:\n      callvalue\n      dup1\n      iszero\n      tag_26\n      jumpi\n      revert(0x00, 0x00)\n    tag_26:\n      pop\n      tag_27\n      tag_28\n      jump\t// in\n    tag_27:\n      stop\n        /* \"lesson3/PaymentContract.sol\":119:145  bool public paused = false */\n    tag_6:\n      callvalue\n      dup1\n      iszero\n      tag_29\n      jumpi\n      revert(0x00, 0x00)\n    tag_29:\n      pop\n      tag_30\n      tag_31\n      jump\t// in\n    tag_30:\n      mload(0x40)\n      tag_32\n      swap2\n      swap1\n      tag_33\n      jump\t// in\n    tag_32:\n      mload(0x40)\n      dup1\n      swap2\n      sub\n      swap1\n      return\n        /* \"lesson3/PaymentContract.sol\":1601:1707  function getContractBalance() public view returns (uint256){... */\n    tag_7:\n      callvalue\n      dup1\n      iszero\n      tag_34\n      jumpi\n      revert(0x00, 0x00)\n    tag_34:\n      pop\n      tag_35\n      tag_36\n      jump\t// in\n    tag_35:\n      mload(0x40)\n      tag_37\n      swap2\n      swap1\n      tag_21\n      jump\t// in\n    tag_37:\n      mload(0x40)\n      dup1\n      swap2\n      sub\n      swap1\n      return\n        /* \"lesson3/PaymentContract.sol\":1713:1826  function pause() public onlyOwner whenNotPaused{... */\n    tag_8:\n      callvalue\n      dup1\n      iszero\n      tag_38\n      jumpi\n      revert(0x00, 0x00)\n    tag_38:\n      pop\n      tag_39\n      tag_40\n      jump\t// in\n    tag_39:\n      stop\n        /* \"lesson3/PaymentContract.sol\":92:112  address public owner */\n    tag_9:\n      callvalue\n      dup1\n      iszero\n      tag_41\n      jumpi\n      revert(0x00, 0x00)\n    tag_41:\n      pop\n      tag_42\n      tag_43\n      jump\t// in\n    tag_42:\n      mload(0x40)\n      tag_44\n      swap2\n      swap1\n      tag_45\n      jump\t// in\n    tag_44:\n      mload(0x40)\n      dup1\n      swap2\n      sub\n      swap1\n      return\n        /* \"lesson3/PaymentContract.sol\":926:1092  function deposit() public payable whenNotPaused minValue(MIN_DEPOSIT){... */\n    tag_10:\n      tag_46\n      tag_16\n      jump\t// in\n    tag_46:\n      stop\n        /* \"lesson3/PaymentContract.sol\":197:245  uint256 public constant MIN_DEPOSIT = 0.01 ether */\n    tag_11:\n      callvalue\n      dup1\n      iszero\n      tag_47\n      jumpi\n      revert(0x00, 0x00)\n    tag_47:\n      pop\n      tag_48\n      tag_49\n      jump\t// in\n    tag_48:\n      mload(0x40)\n      tag_50\n      swap2\n      swap1\n      tag_21\n      jump\t// in\n    tag_50:\n      mload(0x40)\n      dup1\n      swap2\n      sub\n      swap1\n      return\n        /* \"lesson3/PaymentContract.sol\":926:1092  function deposit() public payable whenNotPaused minValue(MIN_DEPOSIT){... */\n    tag_16:\n        /* \"lesson3/PaymentContract.sol\":654:660  paused */\n      0x00\n      0x14\n      swap1\n      sload\n      swap1\n      0x0100\n      exp\n      swap1\n      div\n      0xff\n      and\n        /* \"lesson3/PaymentContract.sol\":653:660  !paused */\n      iszero\n        /* \"lesson3/PaymentContract.sol\":645:683  require(!paused,\"constract is paused\") */\n      tag_52\n      jumpi\n      mload(0x40)\n      0x08c379a000000000000000000000000000000000000000000000000000000000\n      dup2\n      mstore\n      0x04\n      add\n      tag_53\n      swap1\n      tag_54\n      jump\t// in\n    tag_53:\n      mload(0x40)\n      dup1\n      swap2\n      sub\n      swap1\n      revert\n    tag_52:\n        /* \"lesson3/PaymentContract.sol\":235:245  0.01 ether */\n      0x2386f26fc10000\n        /* \"lesson3/PaymentContract.sol\":872:878  amount */\n      dup1\n        /* \"lesson3/PaymentContract.sol\":859:868  msg.value */\n      callvalue\n        /* \"lesson3/PaymentContract.sol\":859:878  msg.value >= amount */\n      lt\n      iszero\n        /* \"lesson3/PaymentContract.sol\":851:900  require(msg.value >= amount,\"Insufficient value\") */\n      tag_56\n      jumpi\n      mload(0x40)\n      0x08c379a000000000000000000000000000000000000000000000000000000000\n      dup2\n      mstore\n      0x04\n      add\n      tag_57\n      swap1\n      tag_58\n      jump\t// in\n    tag_57:\n      mload(0x40)\n      dup1\n      swap2\n      sub\n      swap1\n      revert\n    tag_56:\n        /* \"lesson3/PaymentContract.sol\":1030:1039  msg.value */\n      callvalue\n        /* \"lesson3/PaymentContract.sol\":1006:1014  balances */\n      0x01\n        /* \"lesson3/PaymentContract.sol\":1006:1026  balances[msg.sender] */\n      0x00\n        /* \"lesson3/PaymentContract.sol\":1015:1025  msg.sender */\n      caller\n        /* \"lesson3/PaymentContract.sol\":1006:1026  balances[msg.sender] */\n      0xffffffffffffffffffffffffffffffffffffffff\n      and\n      0xffffffffffffffffffffffffffffffffffffffff\n      and\n      dup2\n      mstore\n      0x20\n      add\n      swap1\n      dup2\n      mstore\n      0x20\n      add\n      0x00\n      keccak256\n      0x00\n        /* \"lesson3/PaymentContract.sol\":1006:1039  balances[msg.sender] += msg.value */\n      dup3\n      dup3\n      sload\n      tag_60\n      swap2\n      swap1\n      tag_61\n      jump\t// in\n    tag_60:\n      swap3\n      pop\n      pop\n      dup2\n      swap1\n      sstore\n      pop\n        /* \"lesson3/PaymentContract.sol\":1063:1073  msg.sender */\n      caller\n        /* \"lesson3/PaymentContract.sol\":1055:1084  Deposit(msg.sender,msg.value) */\n      0xffffffffffffffffffffffffffffffffffffffff\n      and\n      0xe1fffcc4923d04b559f4d29a8bfc6cda04eb5b0d3c460751c2402c5c5cc9109c\n        /* \"lesson3/PaymentContract.sol\":1074:1083  msg.value */\n      callvalue\n        /* \"lesson3/PaymentContract.sol\":1055:1084  Deposit(msg.sender,msg.value) */\n      mload(0x40)\n      tag_62\n      swap2\n      swap1\n      tag_21\n      jump\t// in\n    tag_62:\n      mload(0x40)\n      dup1\n      swap2\n      sub\n      swap1\n      log2\n        /* \"lesson3/PaymentContract.sol\":694:695  _ */\n      pop\n        /* \"lesson3/PaymentContract.sol\":926:1092  function deposit() public payable whenNotPaused minValue(MIN_DEPOSIT){... */\n      jump\t// out\n        /* \"lesson3/PaymentContract.sol\":1498:1595  function getBalance() public view returns (uint256){... */\n    tag_19:\n        /* \"lesson3/PaymentContract.sol\":1541:1548  uint256 */\n      0x00\n        /* \"lesson3/PaymentContract.sol\":1567:1575  balances */\n      0x01\n        /* \"lesson3/PaymentContract.sol\":1567:1587  balances[msg.sender] */\n      0x00\n        /* \"lesson3/PaymentContract.sol\":1576:1586  msg.sender */\n      caller\n        /* \"lesson3/PaymentContract.sol\":1567:1587  balances[msg.sender] */\n      0xffffffffffffffffffffffffffffffffffffffff\n      and\n      0xffffffffffffffffffffffffffffffffffffffff\n      and\n      dup2\n      mstore\n      0x20\n      add\n      swap1\n      dup2\n      mstore\n      0x20\n      add\n      0x00\n      keccak256\n      sload\n        /* \"lesson3/PaymentContract.sol\":1560:1587  return balances[msg.sender] */\n      swap1\n      pop\n        /* \"lesson3/PaymentContract.sol\":1498:1595  function getBalance() public view returns (uint256){... */\n      swap1\n      jump\t// out\n        /* \"lesson3/PaymentContract.sol\":1098:1490  function withdraw(uint256 amount) public payable whenNotPaused{... */\n    tag_25:\n        /* \"lesson3/PaymentContract.sol\":654:660  paused */\n      0x00\n      0x14\n      swap1\n      sload\n      swap1\n      0x0100\n      exp\n      swap1\n      div\n      0xff\n      and\n        /* \"lesson3/PaymentContract.sol\":653:660  !paused */\n      iszero\n        /* \"lesson3/PaymentContract.sol\":645:683  require(!paused,\"constract is paused\") */\n      tag_65\n      jumpi\n      mload(0x40)\n      0x08c379a000000000000000000000000000000000000000000000000000000000\n      dup2\n      mstore\n      0x04\n      add\n      tag_66\n      swap1\n      tag_54\n      jump\t// in\n    tag_66:\n      mload(0x40)\n      dup1\n      swap2\n      sub\n      swap1\n      revert\n    tag_65:\n        /* \"lesson3/PaymentContract.sol\":1203:1209  amount */\n      dup1\n        /* \"lesson3/PaymentContract.sol\":1179:1187  balances */\n      0x01\n        /* \"lesson3/PaymentContract.sol\":1179:1199  balances[msg.sender] */\n      0x00\n        /* \"lesson3/PaymentContract.sol\":1188:1198  msg.sender */\n      caller\n        /* \"lesson3/PaymentContract.sol\":1179:1199  balances[msg.sender] */\n      0xffffffffffffffffffffffffffffffffffffffff\n      and\n      0xffffffffffffffffffffffffffffffffffffffff\n      and\n      dup2\n      mstore\n      0x20\n      add\n      swap1\n      dup2\n      mstore\n      0x20\n      add\n      0x00\n      keccak256\n      sload\n        /* \"lesson3/PaymentContract.sol\":1179:1209  balances[msg.sender] >= amount */\n      lt\n      iszero\n        /* \"lesson3/PaymentContract.sol\":1171:1233  require(balances[msg.sender] >= amount,\"Insufficient balance\") */\n      tag_68\n      jumpi\n      mload(0x40)\n      0x08c379a000000000000000000000000000000000000000000000000000000000\n      dup2\n      mstore\n      0x04\n      add\n      tag_69\n      swap1\n      tag_70\n      jump\t// in\n    tag_69:\n      mload(0x40)\n      dup1\n      swap2\n      sub\n      swap1\n      revert\n    tag_68:\n        /* \"lesson3/PaymentContract.sol\":1268:1274  amount */\n      dup1\n        /* \"lesson3/PaymentContract.sol\":1244:1252  balances */\n      0x01\n        /* \"lesson3/PaymentContract.sol\":1244:1264  balances[msg.sender] */\n      0x00\n        /* \"lesson3/PaymentContract.sol\":1253:1263  msg.sender */\n      caller\n        /* \"lesson3/PaymentContract.sol\":1244:1264  balances[msg.sender] */\n      0xffffffffffffffffffffffffffffffffffffffff\n      and\n      0xffffffffffffffffffffffffffffffffffffffff\n      and\n      dup2\n      mstore\n      0x20\n      add\n      swap1\n      dup2\n      mstore\n      0x20\n      add\n      0x00\n      keccak256\n      0x00\n        /* \"lesson3/PaymentContract.sol\":1244:1274  balances[msg.sender] -= amount */\n      dup3\n      dup3\n      sload\n      tag_71\n      swap2\n      swap1\n      tag_72\n      jump\t// in\n    tag_71:\n      swap3\n      pop\n      pop\n      dup2\n      swap1\n      sstore\n      pop\n        /* \"lesson3/PaymentContract.sol\":1335:1347  bool success */\n      0x00\n        /* \"lesson3/PaymentContract.sol\":1360:1370  msg.sender */\n      caller\n        /* \"lesson3/PaymentContract.sol\":1352:1376  payable(msg.sender).call */\n      0xffffffffffffffffffffffffffffffffffffffff\n      and\n        /* \"lesson3/PaymentContract.sol\":1384:1390  amount */\n      dup3\n        /* \"lesson3/PaymentContract.sol\":1352:1395  payable(msg.sender).call{value: amount}(\"\") */\n      mload(0x40)\n      tag_73\n      swap1\n      tag_74\n      jump\t// in\n    tag_73:\n      0x00\n      mload(0x40)\n      dup1\n      dup4\n      sub\n      dup2\n      dup6\n      dup8\n      gas\n      call\n      swap3\n      pop\n      pop\n      pop\n      returndatasize\n      dup1\n      0x00\n      dup2\n      eq\n      tag_77\n      jumpi\n      mload(0x40)\n      swap2\n      pop\n      and(add(returndatasize, 0x3f), not(0x1f))\n      dup3\n      add\n      0x40\n      mstore\n      returndatasize\n      dup3\n      mstore\n      returndatasize\n      0x00\n      0x20\n      dup5\n      add\n      returndatacopy\n      jump(tag_76)\n    tag_77:\n      0x60\n      swap2\n      pop\n    tag_76:\n      pop\n        /* \"lesson3/PaymentContract.sol\":1334:1395  (bool success,) = payable(msg.sender).call{value: amount}(\"\") */\n      pop\n      swap1\n      pop\n        /* \"lesson3/PaymentContract.sol\":1414:1421  success */\n      dup1\n        /* \"lesson3/PaymentContract.sol\":1406:1436  require(success,\"call failed\") */\n      tag_78\n      jumpi\n      mload(0x40)\n      0x08c379a000000000000000000000000000000000000000000000000000000000\n      dup2\n      mstore\n      0x04\n      add\n      tag_79\n      swap1\n      tag_80\n      jump\t// in\n    tag_79:\n      mload(0x40)\n      dup1\n      swap2\n      sub\n      swap1\n      revert\n    tag_78:\n        /* \"lesson3/PaymentContract.sol\":1463:1473  msg.sender */\n      caller\n        /* \"lesson3/PaymentContract.sol\":1452:1482  Withdrawal(msg.sender, amount) */\n      0xffffffffffffffffffffffffffffffffffffffff\n      and\n      0x7fcf532c15f0a6db0bd6d0e038bea71d30d808c7d98cb3bf7268a95bf5081b65\n        /* \"lesson3/PaymentContract.sol\":1475:1481  amount */\n      dup4\n        /* \"lesson3/PaymentContract.sol\":1452:1482  Withdrawal(msg.sender, amount) */\n      mload(0x40)\n      tag_81\n      swap2\n      swap1\n      tag_21\n      jump\t// in\n    tag_81:\n      mload(0x40)\n      dup1\n      swap2\n      sub\n      swap1\n      log2\n        /* \"lesson3/PaymentContract.sol\":1160:1490  {... */\n      pop\n        /* \"lesson3/PaymentContract.sol\":1098:1490  function withdraw(uint256 amount) public payable whenNotPaused{... */\n      pop\n      jump\t// out\n        /* \"lesson3/PaymentContract.sol\":1832:1947  function unpause() public onlyOwner whenPaused{... */\n    tag_28:\n        /* \"lesson3/PaymentContract.sol\":562:567  owner */\n      0x00\n      0x00\n      swap1\n      sload\n      swap1\n      0x0100\n      exp\n      swap1\n      div\n      0xffffffffffffffffffffffffffffffffffffffff\n      and\n        /* \"lesson3/PaymentContract.sol\":548:567  msg.sender == owner */\n      0xffffffffffffffffffffffffffffffffffffffff\n      and\n        /* \"lesson3/PaymentContract.sol\":548:558  msg.sender */\n      caller\n        /* \"lesson3/PaymentContract.sol\":548:567  msg.sender == owner */\n      0xffffffffffffffffffffffffffffffffffffffff\n      and\n      eq\n        /* \"lesson3/PaymentContract.sol\":540:584  require(msg.sender == owner,\"Not the owner\") */\n      tag_83\n      jumpi\n      mload(0x40)\n      0x08c379a000000000000000000000000000000000000000000000000000000000\n      dup2\n      mstore\n      0x04\n      add\n      tag_84\n      swap1\n      tag_85\n      jump\t// in\n    tag_84:\n      mload(0x40)\n      dup1\n      swap2\n      sub\n      swap1\n      revert\n    tag_83:\n        /* \"lesson3/PaymentContract.sol\":749:755  paused */\n      0x00\n      0x14\n      swap1\n      sload\n      swap1\n      0x0100\n      exp\n      swap1\n      div\n      0xff\n      and\n        /* \"lesson3/PaymentContract.sol\":741:781  require(paused,\"contract is not paused\") */\n      tag_87\n      jumpi\n      mload(0x40)\n      0x08c379a000000000000000000000000000000000000000000000000000000000\n      dup2\n      mstore\n      0x04\n      add\n      tag_88\n      swap1\n      tag_89\n      jump\t// in\n    tag_88:\n      mload(0x40)\n      dup1\n      swap2\n      sub\n      swap1\n      revert\n    tag_87:\n        /* \"lesson3/PaymentContract.sol\":1898:1903  false */\n      0x00\n        /* \"lesson3/PaymentContract.sol\":1889:1895  paused */\n      0x00\n      0x14\n        /* \"lesson3/PaymentContract.sol\":1889:1903  paused = false */\n      0x0100\n      exp\n      dup2\n      sload\n      dup2\n      0xff\n      mul\n      not\n      and\n      swap1\n      dup4\n      iszero\n      iszero\n      mul\n      or\n      swap1\n      sstore\n      pop\n        /* \"lesson3/PaymentContract.sol\":1928:1938  msg.sender */\n      caller\n        /* \"lesson3/PaymentContract.sol\":1919:1939  Unpaused(msg.sender) */\n      0xffffffffffffffffffffffffffffffffffffffff\n      and\n      0x5db9ee0a495bf2e6ff9c91a7834c1ba4fdd244a5e8aa4e537bd38aeae4b073aa\n      mload(0x40)\n      mload(0x40)\n      dup1\n      swap2\n      sub\n      swap1\n      log2\n        /* \"lesson3/PaymentContract.sol\":1832:1947  function unpause() public onlyOwner whenPaused{... */\n      jump\t// out\n        /* \"lesson3/PaymentContract.sol\":119:145  bool public paused = false */\n    tag_31:\n      0x00\n      0x14\n      swap1\n      sload\n      swap1\n      0x0100\n      exp\n      swap1\n      div\n      0xff\n      and\n      dup2\n      jump\t// out\n        /* \"lesson3/PaymentContract.sol\":1601:1707  function getContractBalance() public view returns (uint256){... */\n    tag_36:\n        /* \"lesson3/PaymentContract.sol\":1652:1659  uint256 */\n      0x00\n        /* \"lesson3/PaymentContract.sol\":1678:1699  address(this).balance */\n      selfbalance\n        /* \"lesson3/PaymentContract.sol\":1671:1699  return address(this).balance */\n      swap1\n      pop\n        /* \"lesson3/PaymentContract.sol\":1601:1707  function getContractBalance() public view returns (uint256){... */\n      swap1\n      jump\t// out\n        /* \"lesson3/PaymentContract.sol\":1713:1826  function pause() public onlyOwner whenNotPaused{... */\n    tag_40:\n        /* \"lesson3/PaymentContract.sol\":562:567  owner */\n      0x00\n      0x00\n      swap1\n      sload\n      swap1\n      0x0100\n      exp\n      swap1\n      div\n      0xffffffffffffffffffffffffffffffffffffffff\n      and\n        /* \"lesson3/PaymentContract.sol\":548:567  msg.sender == owner */\n      0xffffffffffffffffffffffffffffffffffffffff\n      and\n        /* \"lesson3/PaymentContract.sol\":548:558  msg.sender */\n      caller\n        /* \"lesson3/PaymentContract.sol\":548:567  msg.sender == owner */\n      0xffffffffffffffffffffffffffffffffffffffff\n      and\n      eq\n        /* \"lesson3/PaymentContract.sol\":540:584  require(msg.sender == owner,\"Not the owner\") */\n      tag_93\n      jumpi\n      mload(0x40)\n      0x08c379a000000000000000000000000000000000000000000000000000000000\n      dup2\n      mstore\n      0x04\n      add\n      tag_94\n      swap1\n      tag_85\n      jump\t// in\n    tag_94:\n      mload(0x40)\n      dup1\n      swap2\n      sub\n      swap1\n      revert\n    tag_93:\n        /* \"lesson3/PaymentContract.sol\":654:660  paused */\n      0x00\n      0x14\n      swap1\n      sload\n      swap1\n      0x0100\n      exp\n      swap1\n      div\n      0xff\n      and\n        /* \"lesson3/PaymentContract.sol\":653:660  !paused */\n      iszero\n        /* \"lesson3/PaymentContract.sol\":645:683  require(!paused,\"constract is paused\") */\n      tag_96\n      jumpi\n      mload(0x40)\n      0x08c379a000000000000000000000000000000000000000000000000000000000\n      dup2\n      mstore\n      0x04\n      add\n      tag_97\n      swap1\n      tag_54\n      jump\t// in\n    tag_97:\n      mload(0x40)\n      dup1\n      swap2\n      sub\n      swap1\n      revert\n    tag_96:\n        /* \"lesson3/PaymentContract.sol\":1780:1784  true */\n      0x01\n        /* \"lesson3/PaymentContract.sol\":1771:1777  paused */\n      0x00\n      0x14\n        /* \"lesson3/PaymentContract.sol\":1771:1784  paused = true */\n      0x0100\n      exp\n      dup2\n      sload\n      dup2\n      0xff\n      mul\n      not\n      and\n      swap1\n      dup4\n      iszero\n      iszero\n      mul\n      or\n      swap1\n      sstore\n      pop\n        /* \"lesson3/PaymentContract.sol\":1807:1817  msg.sender */\n      caller\n        /* \"lesson3/PaymentContract.sol\":1800:1818  Paused(msg.sender) */\n      0xffffffffffffffffffffffffffffffffffffffff\n      and\n      0x62e78cea01bee320cd4e420270b5ea74000d11b0c9f74754ebdbfc544b05a258\n      mload(0x40)\n      mload(0x40)\n      dup1\n      swap2\n      sub\n      swap1\n      log2\n        /* \"lesson3/PaymentContract.sol\":1713:1826  function pause() public onlyOwner whenNotPaused{... */\n      jump\t// out\n        /* \"lesson3/PaymentContract.sol\":92:112  address public owner */\n    tag_43:\n      0x00\n      0x00\n      swap1\n      sload\n      swap1\n      0x0100\n      exp\n      swap1\n      div\n      0xffffffffffffffffffffffffffffffffffffffff\n      and\n      dup2\n      jump\t// out\n        /* \"lesson3/PaymentContract.sol\":197:245  uint256 public constant MIN_DEPOSIT = 0.01 ether */\n    tag_49:\n        /* \"lesson3/PaymentContract.sol\":235:245  0.01 ether */\n      0x2386f26fc10000\n        /* \"lesson3/PaymentContract.sol\":197:245  uint256 public constant MIN_DEPOSIT = 0.01 ether */\n      dup2\n      jump\t// out\n        /* \"#utility.yul\":7:84   */\n    tag_99:\n        /* \"#utility.yul\":44:51   */\n      0x00\n        /* \"#utility.yul\":73:78   */\n      dup2\n        /* \"#utility.yul\":62:78   */\n      swap1\n      pop\n        /* \"#utility.yul\":7:84   */\n      swap2\n      swap1\n      pop\n      jump\t// out\n        /* \"#utility.yul\":90:208   */\n    tag_100:\n        /* \"#utility.yul\":177:201   */\n      tag_131\n        /* \"#utility.yul\":195:200   */\n      dup2\n        /* \"#utility.yul\":177:201   */\n      tag_99\n      jump\t// in\n    tag_131:\n        /* \"#utility.yul\":172:175   */\n      dup3\n        /* \"#utility.yul\":165:202   */\n      mstore\n        /* \"#utility.yul\":90:208   */\n      pop\n      pop\n      jump\t// out\n        /* \"#utility.yul\":214:436   */\n    tag_21:\n        /* \"#utility.yul\":307:311   */\n      0x00\n        /* \"#utility.yul\":345:347   */\n      0x20\n        /* \"#utility.yul\":334:343   */\n      dup3\n        /* \"#utility.yul\":330:348   */\n      add\n        /* \"#utility.yul\":322:348   */\n      swap1\n      pop\n        /* \"#utility.yul\":358:429   */\n      tag_133\n        /* \"#utility.yul\":426:427   */\n      0x00\n        /* \"#utility.yul\":415:424   */\n      dup4\n        /* \"#utility.yul\":411:428   */\n      add\n        /* \"#utility.yul\":402:408   */\n      dup5\n        /* \"#utility.yul\":358:429   */\n      tag_100\n      jump\t// in\n    tag_133:\n        /* \"#utility.yul\":214:436   */\n      swap3\n      swap2\n      pop\n      pop\n      jump\t// out\n        /* \"#utility.yul\":523:640   */\n    tag_102:\n        /* \"#utility.yul\":632:633   */\n      0x00\n        /* \"#utility.yul\":629:630   */\n      0x00\n        /* \"#utility.yul\":622:634   */\n      revert\n        /* \"#utility.yul\":769:891   */\n    tag_104:\n        /* \"#utility.yul\":842:866   */\n      tag_138\n        /* \"#utility.yul\":860:865   */\n      dup2\n        /* \"#utility.yul\":842:866   */\n      tag_99\n      jump\t// in\n    tag_138:\n        /* \"#utility.yul\":835:840   */\n      dup2\n        /* \"#utility.yul\":832:867   */\n      eq\n        /* \"#utility.yul\":822:885   */\n      tag_139\n      jumpi\n        /* \"#utility.yul\":881:882   */\n      0x00\n        /* \"#utility.yul\":878:879   */\n      0x00\n        /* \"#utility.yul\":871:883   */\n      revert\n        /* \"#utility.yul\":822:885   */\n    tag_139:\n        /* \"#utility.yul\":769:891   */\n      pop\n      jump\t// out\n        /* \"#utility.yul\":897:1036   */\n    tag_105:\n        /* \"#utility.yul\":943:948   */\n      0x00\n        /* \"#utility.yul\":981:987   */\n      dup2\n        /* \"#utility.yul\":968:988   */\n      calldataload\n        /* \"#utility.yul\":959:988   */\n      swap1\n      pop\n        /* \"#utility.yul\":997:1030   */\n      tag_141\n        /* \"#utility.yul\":1024:1029   */\n      dup2\n        /* \"#utility.yul\":997:1030   */\n      tag_104\n      jump\t// in\n    tag_141:\n        /* \"#utility.yul\":897:1036   */\n      swap3\n      swap2\n      pop\n      pop\n      jump\t// out\n        /* \"#utility.yul\":1042:1371   */\n    tag_24:\n        /* \"#utility.yul\":1101:1107   */\n      0x00\n        /* \"#utility.yul\":1150:1152   */\n      0x20\n        /* \"#utility.yul\":1138:1147   */\n      dup3\n        /* \"#utility.yul\":1129:1136   */\n      dup5\n        /* \"#utility.yul\":1125:1148   */\n      sub\n        /* \"#utility.yul\":1121:1153   */\n      slt\n        /* \"#utility.yul\":1118:1237   */\n      iszero\n      tag_143\n      jumpi\n        /* \"#utility.yul\":1156:1235   */\n      tag_144\n      tag_102\n      jump\t// in\n    tag_144:\n        /* \"#utility.yul\":1118:1237   */\n    tag_143:\n        /* \"#utility.yul\":1276:1277   */\n      0x00\n        /* \"#utility.yul\":1301:1354   */\n      tag_145\n        /* \"#utility.yul\":1346:1353   */\n      dup5\n        /* \"#utility.yul\":1337:1343   */\n      dup3\n        /* \"#utility.yul\":1326:1335   */\n      dup6\n        /* \"#utility.yul\":1322:1344   */\n      add\n        /* \"#utility.yul\":1301:1354   */\n      tag_105\n      jump\t// in\n    tag_145:\n        /* \"#utility.yul\":1291:1354   */\n      swap2\n      pop\n        /* \"#utility.yul\":1247:1364   */\n      pop\n        /* \"#utility.yul\":1042:1371   */\n      swap3\n      swap2\n      pop\n      pop\n      jump\t// out\n        /* \"#utility.yul\":1377:1467   */\n    tag_106:\n        /* \"#utility.yul\":1411:1418   */\n      0x00\n        /* \"#utility.yul\":1454:1459   */\n      dup2\n        /* \"#utility.yul\":1447:1460   */\n      iszero\n        /* \"#utility.yul\":1440:1461   */\n      iszero\n        /* \"#utility.yul\":1429:1461   */\n      swap1\n      pop\n        /* \"#utility.yul\":1377:1467   */\n      swap2\n      swap1\n      pop\n      jump\t// out\n        /* \"#utility.yul\":1473:1582   */\n    tag_107:\n        /* \"#utility.yul\":1554:1575   */\n      tag_148\n        /* \"#utility.yul\":1569:1574   */\n      dup2\n        /* \"#utility.yul\":1554:1575   */\n      tag_106\n      jump\t// in\n    tag_148:\n        /* \"#utility.yul\":1549:1552   */\n      dup3\n        /* \"#utility.yul\":1542:1576   */\n      mstore\n        /* \"#utility.yul\":1473:1582   */\n      pop\n      pop\n      jump\t// out\n        /* \"#utility.yul\":1588:1798   */\n    tag_33:\n        /* \"#utility.yul\":1675:1679   */\n      0x00\n        /* \"#utility.yul\":1713:1715   */\n      0x20\n        /* \"#utility.yul\":1702:1711   */\n      dup3\n        /* \"#utility.yul\":1698:1716   */\n      add\n        /* \"#utility.yul\":1690:1716   */\n      swap1\n      pop\n        /* \"#utility.yul\":1726:1791   */\n      tag_150\n        /* \"#utility.yul\":1788:1789   */\n      0x00\n        /* \"#utility.yul\":1777:1786   */\n      dup4\n        /* \"#utility.yul\":1773:1790   */\n      add\n        /* \"#utility.yul\":1764:1770   */\n      dup5\n        /* \"#utility.yul\":1726:1791   */\n      tag_107\n      jump\t// in\n    tag_150:\n        /* \"#utility.yul\":1588:1798   */\n      swap3\n      swap2\n      pop\n      pop\n      jump\t// out\n        /* \"#utility.yul\":1804:1930   */\n    tag_108:\n        /* \"#utility.yul\":1841:1848   */\n      0x00\n        /* \"#utility.yul\":1881:1923   */\n      0xffffffffffffffffffffffffffffffffffffffff\n        /* \"#utility.yul\":1874:1879   */\n      dup3\n        /* \"#utility.yul\":1870:1924   */\n      and\n        /* \"#utility.yul\":1859:1924   */\n      swap1\n      pop\n        /* \"#utility.yul\":1804:1930   */\n      swap2\n      swap1\n      pop\n      jump\t// out\n        /* \"#utility.yul\":1936:2032   */\n    tag_109:\n        /* \"#utility.yul\":1973:1980   */\n      0x00\n        /* \"#utility.yul\":2002:2026   */\n      tag_153\n        /* \"#utility.yul\":2020:2025   */\n      dup3\n        /* \"#utility.yul\":2002:2026   */\n      tag_108\n      jump\t// in\n    tag_153:\n        /* \"#utility.yul\":1991:2026   */\n      swap1\n      pop\n        /* \"#utility.yul\":1936:2032   */\n      swap2\n      swap1\n      pop\n      jump\t// out\n        /* \"#utility.yul\":2038:2156   */\n    tag_110:\n        /* \"#utility.yul\":2125:2149   */\n      tag_155\n        /* \"#utility.yul\":2143:2148   */\n      dup2\n        /* \"#utility.yul\":2125:2149   */\n      tag_109\n      jump\t// in\n    tag_155:\n        /* \"#utility.yul\":2120:2123   */\n      dup3\n        /* \"#utility.yul\":2113:2150   */\n      mstore\n        /* \"#utility.yul\":2038:2156   */\n      pop\n      pop\n      jump\t// out\n        /* \"#utility.yul\":2162:2384   */\n    tag_45:\n        /* \"#utility.yul\":2255:2259   */\n      0x00\n        /* \"#utility.yul\":2293:2295   */\n      0x20\n        /* \"#utility.yul\":2282:2291   */\n      dup3\n        /* \"#utility.yul\":2278:2296   */\n      add\n        /* \"#utility.yul\":2270:2296   */\n      swap1\n      pop\n        /* \"#utility.yul\":2306:2377   */\n      tag_157\n        /* \"#utility.yul\":2374:2375   */\n      0x00\n        /* \"#utility.yul\":2363:2372   */\n      dup4\n        /* \"#utility.yul\":2359:2376   */\n      add\n        /* \"#utility.yul\":2350:2356   */\n      dup5\n        /* \"#utility.yul\":2306:2377   */\n      tag_110\n      jump\t// in\n    tag_157:\n        /* \"#utility.yul\":2162:2384   */\n      swap3\n      swap2\n      pop\n      pop\n      jump\t// out\n        /* \"#utility.yul\":2390:2559   */\n    tag_111:\n        /* \"#utility.yul\":2474:2485   */\n      0x00\n        /* \"#utility.yul\":2508:2514   */\n      dup3\n        /* \"#utility.yul\":2503:2506   */\n      dup3\n        /* \"#utility.yul\":2496:2515   */\n      mstore\n        /* \"#utility.yul\":2548:2552   */\n      0x20\n        /* \"#utility.yul\":2543:2546   */\n      dup3\n        /* \"#utility.yul\":2539:2553   */\n      add\n        /* \"#utility.yul\":2524:2553   */\n      swap1\n      pop\n        /* \"#utility.yul\":2390:2559   */\n      swap3\n      swap2\n      pop\n      pop\n      jump\t// out\n        /* \"#utility.yul\":2565:2734   */\n    tag_112:\n        /* \"#utility.yul\":2705:2726   */\n      0x636f6e7374726163742069732070617573656400000000000000000000000000\n        /* \"#utility.yul\":2701:2702   */\n      0x00\n        /* \"#utility.yul\":2693:2699   */\n      dup3\n        /* \"#utility.yul\":2689:2703   */\n      add\n        /* \"#utility.yul\":2682:2727   */\n      mstore\n        /* \"#utility.yul\":2565:2734   */\n      pop\n      jump\t// out\n        /* \"#utility.yul\":2740:3106   */\n    tag_113:\n        /* \"#utility.yul\":2882:2885   */\n      0x00\n        /* \"#utility.yul\":2903:2970   */\n      tag_161\n        /* \"#utility.yul\":2967:2969   */\n      0x13\n        /* \"#utility.yul\":2962:2965   */\n      dup4\n        /* \"#utility.yul\":2903:2970   */\n      tag_111\n      jump\t// in\n    tag_161:\n        /* \"#utility.yul\":2896:2970   */\n      swap2\n      pop\n        /* \"#utility.yul\":2979:3072   */\n      tag_162\n        /* \"#utility.yul\":3068:3071   */\n      dup3\n        /* \"#utility.yul\":2979:3072   */\n      tag_112\n      jump\t// in\n    tag_162:\n        /* \"#utility.yul\":3097:3099   */\n      0x20\n        /* \"#utility.yul\":3092:3095   */\n      dup3\n        /* \"#utility.yul\":3088:3100   */\n      add\n        /* \"#utility.yul\":3081:3100   */\n      swap1\n      pop\n        /* \"#utility.yul\":2740:3106   */\n      swap2\n      swap1\n      pop\n      jump\t// out\n        /* \"#utility.yul\":3112:3531   */\n    tag_54:\n        /* \"#utility.yul\":3278:3282   */\n      0x00\n        /* \"#utility.yul\":3316:3318   */\n      0x20\n        /* \"#utility.yul\":3305:3314   */\n      dup3\n        /* \"#utility.yul\":3301:3319   */\n      add\n        /* \"#utility.yul\":3293:3319   */\n      swap1\n      pop\n        /* \"#utility.yul\":3365:3374   */\n      dup2\n        /* \"#utility.yul\":3359:3363   */\n      dup2\n        /* \"#utility.yul\":3355:3375   */\n      sub\n        /* \"#utility.yul\":3351:3352   */\n      0x00\n        /* \"#utility.yul\":3340:3349   */\n      dup4\n        /* \"#utility.yul\":3336:3353   */\n      add\n        /* \"#utility.yul\":3329:3376   */\n      mstore\n        /* \"#utility.yul\":3393:3524   */\n      tag_164\n        /* \"#utility.yul\":3519:3523   */\n      dup2\n        /* \"#utility.yul\":3393:3524   */\n      tag_113\n      jump\t// in\n    tag_164:\n        /* \"#utility.yul\":3385:3524   */\n      swap1\n      pop\n        /* \"#utility.yul\":3112:3531   */\n      swap2\n      swap1\n      pop\n      jump\t// out\n        /* \"#utility.yul\":3537:3705   */\n    tag_114:\n        /* \"#utility.yul\":3677:3697   */\n      0x496e73756666696369656e742076616c75650000000000000000000000000000\n        /* \"#utility.yul\":3673:3674   */\n      0x00\n        /* \"#utility.yul\":3665:3671   */\n      dup3\n        /* \"#utility.yul\":3661:3675   */\n      add\n        /* \"#utility.yul\":3654:3698   */\n      mstore\n        /* \"#utility.yul\":3537:3705   */\n      pop\n      jump\t// out\n        /* \"#utility.yul\":3711:4077   */\n    tag_115:\n        /* \"#utility.yul\":3853:3856   */\n      0x00\n        /* \"#utility.yul\":3874:3941   */\n      tag_167\n        /* \"#utility.yul\":3938:3940   */\n      0x12\n        /* \"#utility.yul\":3933:3936   */\n      dup4\n        /* \"#utility.yul\":3874:3941   */\n      tag_111\n      jump\t// in\n    tag_167:\n        /* \"#utility.yul\":3867:3941   */\n      swap2\n      pop\n        /* \"#utility.yul\":3950:4043   */\n      tag_168\n        /* \"#utility.yul\":4039:4042   */\n      dup3\n        /* \"#utility.yul\":3950:4043   */\n      tag_114\n      jump\t// in\n    tag_168:\n        /* \"#utility.yul\":4068:4070   */\n      0x20\n        /* \"#utility.yul\":4063:4066   */\n      dup3\n        /* \"#utility.yul\":4059:4071   */\n      add\n        /* \"#utility.yul\":4052:4071   */\n      swap1\n      pop\n        /* \"#utility.yul\":3711:4077   */\n      swap2\n      swap1\n      pop\n      jump\t// out\n        /* \"#utility.yul\":4083:4502   */\n    tag_58:\n        /* \"#utility.yul\":4249:4253   */\n      0x00\n        /* \"#utility.yul\":4287:4289   */\n      0x20\n        /* \"#utility.yul\":4276:4285   */\n      dup3\n        /* \"#utility.yul\":4272:4290   */\n      add\n        /* \"#utility.yul\":4264:4290   */\n      swap1\n      pop\n        /* \"#utility.yul\":4336:4345   */\n      dup2\n        /* \"#utility.yul\":4330:4334   */\n      dup2\n        /* \"#utility.yul\":4326:4346   */\n      sub\n        /* \"#utility.yul\":4322:4323   */\n      0x00\n        /* \"#utility.yul\":4311:4320   */\n      dup4\n        /* \"#utility.yul\":4307:4324   */\n      add\n        /* \"#utility.yul\":4300:4347   */\n      mstore\n        /* \"#utility.yul\":4364:4495   */\n      tag_170\n        /* \"#utility.yul\":4490:4494   */\n      dup2\n        /* \"#utility.yul\":4364:4495   */\n      tag_115\n      jump\t// in\n    tag_170:\n        /* \"#utility.yul\":4356:4495   */\n      swap1\n      pop\n        /* \"#utility.yul\":4083:4502   */\n      swap2\n      swap1\n      pop\n      jump\t// out\n        /* \"#utility.yul\":4508:4688   */\n    tag_116:\n        /* \"#utility.yul\":4556:4633   */\n      0x4e487b7100000000000000000000000000000000000000000000000000000000\n        /* \"#utility.yul\":4553:4554   */\n      0x00\n        /* \"#utility.yul\":4546:4634   */\n      mstore\n        /* \"#utility.yul\":4653:4657   */\n      0x11\n        /* \"#utility.yul\":4650:4651   */\n      0x04\n        /* \"#utility.yul\":4643:4658   */\n      mstore\n        /* \"#utility.yul\":4677:4681   */\n      0x24\n        /* \"#utility.yul\":4674:4675   */\n      0x00\n        /* \"#utility.yul\":4667:4682   */\n      revert\n        /* \"#utility.yul\":4694:4885   */\n    tag_61:\n        /* \"#utility.yul\":4734:4737   */\n      0x00\n        /* \"#utility.yul\":4753:4773   */\n      tag_173\n        /* \"#utility.yul\":4771:4772   */\n      dup3\n        /* \"#utility.yul\":4753:4773   */\n      tag_99\n      jump\t// in\n    tag_173:\n        /* \"#utility.yul\":4748:4773   */\n      swap2\n      pop\n        /* \"#utility.yul\":4787:4807   */\n      tag_174\n        /* \"#utility.yul\":4805:4806   */\n      dup4\n        /* \"#utility.yul\":4787:4807   */\n      tag_99\n      jump\t// in\n    tag_174:\n        /* \"#utility.yul\":4782:4807   */\n      swap3\n      pop\n        /* \"#utility.yul\":4830:4831   */\n      dup3\n        /* \"#utility.yul\":4827:4828   */\n      dup3\n        /* \"#utility.yul\":4823:4832   */\n      add\n        /* \"#utility.yul\":4816:4832   */\n      swap1\n      pop\n        /* \"#utility.yul\":4851:4854   */\n      dup1\n        /* \"#utility.yul\":4848:4849   */\n      dup3\n        /* \"#utility.yul\":4845:4855   */\n      gt\n        /* \"#utility.yul\":4842:4878   */\n      iszero\n      tag_175\n      jumpi\n        /* \"#utility.yul\":4858:4876   */\n      tag_176\n      tag_116\n      jump\t// in\n    tag_176:\n        /* \"#utility.yul\":4842:4878   */\n    tag_175:\n        /* \"#utility.yul\":4694:4885   */\n      swap3\n      swap2\n      pop\n      pop\n      jump\t// out\n        /* \"#utility.yul\":4891:5061   */\n    tag_117:\n        /* \"#utility.yul\":5031:5053   */\n      0x496e73756666696369656e742062616c616e6365000000000000000000000000\n        /* \"#utility.yul\":5027:5028   */\n      0x00\n        /* \"#utility.yul\":5019:5025   */\n      dup3\n        /* \"#utility.yul\":5015:5029   */\n      add\n        /* \"#utility.yul\":5008:5054   */\n      mstore\n        /* \"#utility.yul\":4891:5061   */\n      pop\n      jump\t// out\n        /* \"#utility.yul\":5067:5433   */\n    tag_118:\n        /* \"#utility.yul\":5209:5212   */\n      0x00\n        /* \"#utility.yul\":5230:5297   */\n      tag_179\n        /* \"#utility.yul\":5294:5296   */\n      0x14\n        /* \"#utility.yul\":5289:5292   */\n      dup4\n        /* \"#utility.yul\":5230:5297   */\n      tag_111\n      jump\t// in\n    tag_179:\n        /* \"#utility.yul\":5223:5297   */\n      swap2\n      pop\n        /* \"#utility.yul\":5306:5399   */\n      tag_180\n        /* \"#utility.yul\":5395:5398   */\n      dup3\n        /* \"#utility.yul\":5306:5399   */\n      tag_117\n      jump\t// in\n    tag_180:\n        /* \"#utility.yul\":5424:5426   */\n      0x20\n        /* \"#utility.yul\":5419:5422   */\n      dup3\n        /* \"#utility.yul\":5415:5427   */\n      add\n        /* \"#utility.yul\":5408:5427   */\n      swap1\n      pop\n        /* \"#utility.yul\":5067:5433   */\n      swap2\n      swap1\n      pop\n      jump\t// out\n        /* \"#utility.yul\":5439:5858   */\n    tag_70:\n        /* \"#utility.yul\":5605:5609   */\n      0x00\n        /* \"#utility.yul\":5643:5645   */\n      0x20\n        /* \"#utility.yul\":5632:5641   */\n      dup3\n        /* \"#utility.yul\":5628:5646   */\n      add\n        /* \"#utility.yul\":5620:5646   */\n      swap1\n      pop\n        /* \"#utility.yul\":5692:5701   */\n      dup2\n        /* \"#utility.yul\":5686:5690   */\n      dup2\n        /* \"#utility.yul\":5682:5702   */\n      sub\n        /* \"#utility.yul\":5678:5679   */\n      0x00\n        /* \"#utility.yul\":5667:5676   */\n      dup4\n        /* \"#utility.yul\":5663:5680   */\n      add\n        /* \"#utility.yul\":5656:5703   */\n      mstore\n        /* \"#utility.yul\":5720:5851   */\n      tag_182\n        /* \"#utility.yul\":5846:5850   */\n      dup2\n        /* \"#utility.yul\":5720:5851   */\n      tag_118\n      jump\t// in\n    tag_182:\n        /* \"#utility.yul\":5712:5851   */\n      swap1\n      pop\n        /* \"#utility.yul\":5439:5858   */\n      swap2\n      swap1\n      pop\n      jump\t// out\n        /* \"#utility.yul\":5864:6058   */\n    tag_72:\n        /* \"#utility.yul\":5904:5908   */\n      0x00\n        /* \"#utility.yul\":5924:5944   */\n      tag_184\n        /* \"#utility.yul\":5942:5943   */\n      dup3\n        /* \"#utility.yul\":5924:5944   */\n      tag_99\n      jump\t// in\n    tag_184:\n        /* \"#utility.yul\":5919:5944   */\n      swap2\n      pop\n        /* \"#utility.yul\":5958:5978   */\n      tag_185\n        /* \"#utility.yul\":5976:5977   */\n      dup4\n        /* \"#utility.yul\":5958:5978   */\n      tag_99\n      jump\t// in\n    tag_185:\n        /* \"#utility.yul\":5953:5978   */\n      swap3\n      pop\n        /* \"#utility.yul\":6002:6003   */\n      dup3\n        /* \"#utility.yul\":5999:6000   */\n      dup3\n        /* \"#utility.yul\":5995:6004   */\n      sub\n        /* \"#utility.yul\":5987:6004   */\n      swap1\n      pop\n        /* \"#utility.yul\":6026:6027   */\n      dup2\n        /* \"#utility.yul\":6020:6024   */\n      dup2\n        /* \"#utility.yul\":6017:6028   */\n      gt\n        /* \"#utility.yul\":6014:6051   */\n      iszero\n      tag_186\n      jumpi\n        /* \"#utility.yul\":6031:6049   */\n      tag_187\n      tag_116\n      jump\t// in\n    tag_187:\n        /* \"#utility.yul\":6014:6051   */\n    tag_186:\n        /* \"#utility.yul\":5864:6058   */\n      swap3\n      swap2\n      pop\n      pop\n      jump\t// out\n        /* \"#utility.yul\":6064:6211   */\n    tag_119:\n        /* \"#utility.yul\":6165:6176   */\n      0x00\n        /* \"#utility.yul\":6202:6205   */\n      dup2\n        /* \"#utility.yul\":6187:6205   */\n      swap1\n      pop\n        /* \"#utility.yul\":6064:6211   */\n      swap3\n      swap2\n      pop\n      pop\n      jump\t// out\n        /* \"#utility.yul\":6217:6331   */\n    tag_120:\n      pop\n      jump\t// out\n        /* \"#utility.yul\":6337:6735   */\n    tag_121:\n        /* \"#utility.yul\":6496:6499   */\n      0x00\n        /* \"#utility.yul\":6517:6600   */\n      tag_191\n        /* \"#utility.yul\":6598:6599   */\n      0x00\n        /* \"#utility.yul\":6593:6596   */\n      dup4\n        /* \"#utility.yul\":6517:6600   */\n      tag_119\n      jump\t// in\n    tag_191:\n        /* \"#utility.yul\":6510:6600   */\n      swap2\n      pop\n        /* \"#utility.yul\":6609:6702   */\n      tag_192\n        /* \"#utility.yul\":6698:6701   */\n      dup3\n        /* \"#utility.yul\":6609:6702   */\n      tag_120\n      jump\t// in\n    tag_192:\n        /* \"#utility.yul\":6727:6728   */\n      0x00\n        /* \"#utility.yul\":6722:6725   */\n      dup3\n        /* \"#utility.yul\":6718:6729   */\n      add\n        /* \"#utility.yul\":6711:6729   */\n      swap1\n      pop\n        /* \"#utility.yul\":6337:6735   */\n      swap2\n      swap1\n      pop\n      jump\t// out\n        /* \"#utility.yul\":6741:7120   */\n    tag_74:\n        /* \"#utility.yul\":6925:6928   */\n      0x00\n        /* \"#utility.yul\":6947:7094   */\n      tag_194\n        /* \"#utility.yul\":7090:7093   */\n      dup3\n        /* \"#utility.yul\":6947:7094   */\n      tag_121\n      jump\t// in\n    tag_194:\n        /* \"#utility.yul\":6940:7094   */\n      swap2\n      pop\n        /* \"#utility.yul\":7111:7114   */\n      dup2\n        /* \"#utility.yul\":7104:7114   */\n      swap1\n      pop\n        /* \"#utility.yul\":6741:7120   */\n      swap2\n      swap1\n      pop\n      jump\t// out\n        /* \"#utility.yul\":7126:7287   */\n    tag_122:\n        /* \"#utility.yul\":7266:7279   */\n      0x63616c6c206661696c6564000000000000000000000000000000000000000000\n        /* \"#utility.yul\":7262:7263   */\n      0x00\n        /* \"#utility.yul\":7254:7260   */\n      dup3\n        /* \"#utility.yul\":7250:7264   */\n      add\n        /* \"#utility.yul\":7243:7280   */\n      mstore\n        /* \"#utility.yul\":7126:7287   */\n      pop\n      jump\t// out\n        /* \"#utility.yul\":7293:7659   */\n    tag_123:\n        /* \"#utility.yul\":7435:7438   */\n      0x00\n        /* \"#utility.yul\":7456:7523   */\n      tag_197\n        /* \"#utility.yul\":7520:7522   */\n      0x0b\n        /* \"#utility.yul\":7515:7518   */\n      dup4\n        /* \"#utility.yul\":7456:7523   */\n      tag_111\n      jump\t// in\n    tag_197:\n        /* \"#utility.yul\":7449:7523   */\n      swap2\n      pop\n        /* \"#utility.yul\":7532:7625   */\n      tag_198\n        /* \"#utility.yul\":7621:7624   */\n      dup3\n        /* \"#utility.yul\":7532:7625   */\n      tag_122\n      jump\t// in\n    tag_198:\n        /* \"#utility.yul\":7650:7652   */\n      0x20\n        /* \"#utility.yul\":7645:7648   */\n      dup3\n        /* \"#utility.yul\":7641:7653   */\n      add\n        /* \"#utility.yul\":7634:7653   */\n      swap1\n      pop\n        /* \"#utility.yul\":7293:7659   */\n      swap2\n      swap1\n      pop\n      jump\t// out\n        /* \"#utility.yul\":7665:8084   */\n    tag_80:\n        /* \"#utility.yul\":7831:7835   */\n      0x00\n        /* \"#utility.yul\":7869:7871   */\n      0x20\n        /* \"#utility.yul\":7858:7867   */\n      dup3\n        /* \"#utility.yul\":7854:7872   */\n      add\n        /* \"#utility.yul\":7846:7872   */\n      swap1\n      pop\n        /* \"#utility.yul\":7918:7927   */\n      dup2\n        /* \"#utility.yul\":7912:7916   */\n      dup2\n        /* \"#utility.yul\":7908:7928   */\n      sub\n        /* \"#utility.yul\":7904:7905   */\n      0x00\n        /* \"#utility.yul\":7893:7902   */\n      dup4\n        /* \"#utility.yul\":7889:7906   */\n      add\n        /* \"#utility.yul\":7882:7929   */\n      mstore\n        /* \"#utility.yul\":7946:8077   */\n      tag_200\n        /* \"#utility.yul\":8072:8076   */\n      dup2\n        /* \"#utility.yul\":7946:8077   */\n      tag_123\n      jump\t// in\n    tag_200:\n        /* \"#utility.yul\":7938:8077   */\n      swap1\n      pop\n        /* \"#utility.yul\":7665:8084   */\n      swap2\n      swap1\n      pop\n      jump\t// out\n        /* \"#utility.yul\":8090:8253   */\n    tag_124:\n        /* \"#utility.yul\":8230:8245   */\n      0x4e6f7420746865206f776e657200000000000000000000000000000000000000\n        /* \"#utility.yul\":8226:8227   */\n      0x00\n        /* \"#utility.yul\":8218:8224   */\n      dup3\n        /* \"#utility.yul\":8214:8228   */\n      add\n        /* \"#utility.yul\":8207:8246   */\n      mstore\n        /* \"#utility.yul\":8090:8253   */\n      pop\n      jump\t// out\n        /* \"#utility.yul\":8259:8625   */\n    tag_125:\n        /* \"#utility.yul\":8401:8404   */\n      0x00\n        /* \"#utility.yul\":8422:8489   */\n      tag_203\n        /* \"#utility.yul\":8486:8488   */\n      0x0d\n        /* \"#utility.yul\":8481:8484   */\n      dup4\n        /* \"#utility.yul\":8422:8489   */\n      tag_111\n      jump\t// in\n    tag_203:\n        /* \"#utility.yul\":8415:8489   */\n      swap2\n      pop\n        /* \"#utility.yul\":8498:8591   */\n      tag_204\n        /* \"#utility.yul\":8587:8590   */\n      dup3\n        /* \"#utility.yul\":8498:8591   */\n      tag_124\n      jump\t// in\n    tag_204:\n        /* \"#utility.yul\":8616:8618   */\n      0x20\n        /* \"#utility.yul\":8611:8614   */\n      dup3\n        /* \"#utility.yul\":8607:8619   */\n      add\n        /* \"#utility.yul\":8600:8619   */\n      swap1\n      pop\n        /* \"#utility.yul\":8259:8625   */\n      swap2\n      swap1\n      pop\n      jump\t// out\n        /* \"#utility.yul\":8631:9050   */\n    tag_85:\n        /* \"#utility.yul\":8797:8801   */\n      0x00\n        /* \"#utility.yul\":8835:8837   */\n      0x20\n        /* \"#utility.yul\":8824:8833   */\n      dup3\n        /* \"#utility.yul\":8820:8838   */\n      add\n        /* \"#utility.yul\":8812:8838   */\n      swap1\n      pop\n        /* \"#utility.yul\":8884:8893   */\n      dup2\n        /* \"#utility.yul\":8878:8882   */\n      dup2\n        /* \"#utility.yul\":8874:8894   */\n      sub\n        /* \"#utility.yul\":8870:8871   */\n      0x00\n        /* \"#utility.yul\":8859:8868   */\n      dup4\n        /* \"#utility.yul\":8855:8872   */\n      add\n        /* \"#utility.yul\":8848:8895   */\n      mstore\n        /* \"#utility.yul\":8912:9043   */\n      tag_206\n        /* \"#utility.yul\":9038:9042   */\n      dup2\n        /* \"#utility.yul\":8912:9043   */\n      tag_125\n      jump\t// in\n    tag_206:\n        /* \"#utility.yul\":8904:9043   */\n      swap1\n      pop\n        /* \"#utility.yul\":8631:9050   */\n      swap2\n      swap1\n      pop\n      jump\t// out\n        /* \"#utility.yul\":9056:9228   */\n    tag_126:\n        /* \"#utility.yul\":9196:9220   */\n      0x636f6e7472616374206973206e6f742070617573656400000000000000000000\n        /* \"#utility.yul\":9192:9193   */\n      0x00\n        /* \"#utility.yul\":9184:9190   */\n      dup3\n        /* \"#utility.yul\":9180:9194   */\n      add\n        /* \"#utility.yul\":9173:9221   */\n      mstore\n        /* \"#utility.yul\":9056:9228   */\n      pop\n      jump\t// out\n        /* \"#utility.yul\":9234:9600   */\n    tag_127:\n        /* \"#utility.yul\":9376:9379   */\n      0x00\n        /* \"#utility.yul\":9397:9464   */\n      tag_209\n        /* \"#utility.yul\":9461:9463   */\n      0x16\n        /* \"#utility.yul\":9456:9459   */\n      dup4\n        /* \"#utility.yul\":9397:9464   */\n      tag_111\n      jump\t// in\n    tag_209:\n        /* \"#utility.yul\":9390:9464   */\n      swap2\n      pop\n        /* \"#utility.yul\":9473:9566   */\n      tag_210\n        /* \"#utility.yul\":9562:9565   */\n      dup3\n        /* \"#utility.yul\":9473:9566   */\n      tag_126\n      jump\t// in\n    tag_210:\n        /* \"#utility.yul\":9591:9593   */\n      0x20\n        /* \"#utility.yul\":9586:9589   */\n      dup3\n        /* \"#utility.yul\":9582:9594   */\n      add\n        /* \"#utility.yul\":9575:9594   */\n      swap1\n      pop\n        /* \"#utility.yul\":9234:9600   */\n      swap2\n      swap1\n      pop\n      jump\t// out\n        /* \"#utility.yul\":9606:10025   */\n    tag_89:\n        /* \"#utility.yul\":9772:9776   */\n      0x00\n        /* \"#utility.yul\":9810:9812   */\n      0x20\n        /* \"#utility.yul\":9799:9808   */\n      dup3\n        /* \"#utility.yul\":9795:9813   */\n      add\n        /* \"#utility.yul\":9787:9813   */\n      swap1\n      pop\n        /* \"#utility.yul\":9859:9868   */\n      dup2\n        /* \"#utility.yul\":9853:9857   */\n      dup2\n        /* \"#utility.yul\":9849:9869   */\n      sub\n        /* \"#utility.yul\":9845:9846   */\n      0x00\n        /* \"#utility.yul\":9834:9843   */\n      dup4\n        /* \"#utility.yul\":9830:9847   */\n      add\n        /* \"#utility.yul\":9823:9870   */\n      mstore\n        /* \"#utility.yul\":9887:10018   */\n      tag_212\n        /* \"#utility.yul\":10013:10017   */\n      dup2\n        /* \"#utility.yul\":9887:10018   */\n      tag_127\n      jump\t// in\n    tag_212:\n        /* \"#utility.yul\":9879:10018   */\n      swap1\n      pop\n        /* \"#utility.yul\":9606:10025   */\n      swap2\n      swap1\n      pop\n      jump\t// out\n\n    auxdata: 0xa2646970667358221220026afb507da567ae9cb934548afab49a6a8be3fde1c913722a3158769a87882c64736f6c634300081f0033\n}\n",
				"bytecode": {
					"linkReferences": {},
					"object": "60806040525f5f60146101000a81548160ff0219169083151502179055503480156027575f5ffd5b50335f5f6101000a81548173ffffffffffffffffffffffffffffffffffffffff021916908373ffffffffffffffffffffffffffffffffffffffff160217905550610cbb806100745f395ff3fe608060405260043610610089575f3560e01c80636f9fb98a116100585780636f9fb98a146101225780638456cb591461014c5780638da5cb5b14610162578063d0e30db01461018c578063e1e158a51461019657610098565b806312065fe01461009c5780632e1a7d4d146100c65780633f4ba83a146100e25780635c975abb146100f857610098565b36610098576100966101c0565b005b5f5ffd5b3480156100a7575f5ffd5b506100b06102fe565b6040516100bd9190610834565b60405180910390f35b6100e060048036038101906100db919061087b565b610342565b005b3480156100ed575f5ffd5b506100f661055e565b005b348015610103575f5ffd5b5061010c610698565b60405161011991906108c0565b60405180910390f35b34801561012d575f5ffd5b506101366106aa565b6040516101439190610834565b60405180910390f35b348015610157575f5ffd5b506101606106b1565b005b34801561016d575f5ffd5b506101766107ed565b6040516101839190610918565b60405180910390f35b6101946101c0565b005b3480156101a1575f5ffd5b506101aa610811565b6040516101b79190610834565b60405180910390f35b5f60149054906101000a900460ff161561020f576040517f08c379a00000000000000000000000000000000000000000000000000000000081526004016102069061098b565b60405180910390fd5b662386f26fc100008034101561025a576040517f08c379a0000000000000000000000000000000000000000000000000000000008152600401610251906109f3565b60405180910390fd5b3460015f3373ffffffffffffffffffffffffffffffffffffffff1673ffffffffffffffffffffffffffffffffffffffff1681526020019081526020015f205f8282546102a69190610a3e565b925050819055503373ffffffffffffffffffffffffffffffffffffffff167fe1fffcc4923d04b559f4d29a8bfc6cda04eb5b0d3c460751c2402c5c5cc9109c346040516102f39190610834565b60405180910390a250565b5f60015f3373ffffffffffffffffffffffffffffffffffffffff1673ffffffffffffffffffffffffffffffffffffffff1681526020019081526020015f2054905090565b5f60149054906101000a900460ff1615610391576040517f08c379a00000000000000000000000000000000000000000000000000000000081526004016103889061098b565b60405180910390fd5b8060015f3373ffffffffffffffffffffffffffffffffffffffff1673ffffffffffffffffffffffffffffffffffffffff1681526020019081526020015f20541015610411576040517f08c379a000000000000000000000000000000000000000000000000000000000815260040161040890610abb565b60405180910390fd5b8060015f3373ffffffffffffffffffffffffffffffffffffffff1673ffffffffffffffffffffffffffffffffffffffff1681526020019081526020015f205f82825461045d9190610ad9565b925050819055505f3373ffffffffffffffffffffffffffffffffffffffff168260405161048990610b39565b5f6040518083038185875af1925050503d805f81146104c3576040519150601f19603f3d011682016040523d82523d5f602084013e6104c8565b606091505b505090508061050c576040517f08c379a000000000000000000000000000000000000000000000000000000000815260040161050390610b97565b60405180910390fd5b3373ffffffffffffffffffffffffffffffffffffffff167f7fcf532c15f0a6db0bd6d0e038bea71d30d808c7d98cb3bf7268a95bf5081b65836040516105529190610834565b60405180910390a25050565b5f5f9054906101000a900473ffffffffffffffffffffffffffffffffffffffff1673ffffffffffffffffffffffffffffffffffffffff163373ffffffffffffffffffffffffffffffffffffffff16146105ec576040517f08c379a00000000000000000000000000000000000000000000000000000000081526004016105e390610bff565b60405180910390fd5b5f60149054906101000a900460ff1661063a576040517f08c379a000000000000000000000000000000000000000000000000000000000815260040161063190610c67565b60405180910390fd5b5f5f60146101000a81548160ff0219169083151502179055503373ffffffffffffffffffffffffffffffffffffffff167f5db9ee0a495bf2e6ff9c91a7834c1ba4fdd244a5e8aa4e537bd38aeae4b073aa60405160405180910390a2565b5f60149054906101000a900460ff1681565b5f47905090565b5f5f9054906101000a900473ffffffffffffffffffffffffffffffffffffffff1673ffffffffffffffffffffffffffffffffffffffff163373ffffffffffffffffffffffffffffffffffffffff161461073f576040517f08c379a000000000000000000000000000000000000000000000000000000000815260040161073690610bff565b60405180910390fd5b5f60149054906101000a900460ff161561078e576040517f08c379a00000000000000000000000000000000000000000000000000000000081526004016107859061098b565b60405180910390fd5b60015f60146101000a81548160ff0219169083151502179055503373ffffffffffffffffffffffffffffffffffffffff167f62e78cea01bee320cd4e420270b5ea74000d11b0c9f74754ebdbfc544b05a25860405160405180910390a2565b5f5f9054906101000a900473ffffffffffffffffffffffffffffffffffffffff1681565b662386f26fc1000081565b5f819050919050565b61082e8161081c565b82525050565b5f6020820190506108475f830184610825565b92915050565b5f5ffd5b61085a8161081c565b8114610864575f5ffd5b50565b5f8135905061087581610851565b92915050565b5f602082840312156108905761088f61084d565b5b5f61089d84828501610867565b91505092915050565b5f8115159050919050565b6108ba816108a6565b82525050565b5f6020820190506108d35f8301846108b1565b92915050565b5f73ffffffffffffffffffffffffffffffffffffffff82169050919050565b5f610902826108d9565b9050919050565b610912816108f8565b82525050565b5f60208201905061092b5f830184610909565b92915050565b5f82825260208201905092915050565b7f636f6e73747261637420697320706175736564000000000000000000000000005f82015250565b5f610975601383610931565b915061098082610941565b602082019050919050565b5f6020820190508181035f8301526109a281610969565b9050919050565b7f496e73756666696369656e742076616c756500000000000000000000000000005f82015250565b5f6109dd601283610931565b91506109e8826109a9565b602082019050919050565b5f6020820190508181035f830152610a0a816109d1565b9050919050565b7f4e487b71000000000000000000000000000000000000000000000000000000005f52601160045260245ffd5b5f610a488261081c565b9150610a538361081c565b9250828201905080821115610a6b57610a6a610a11565b5b92915050565b7f496e73756666696369656e742062616c616e63650000000000000000000000005f82015250565b5f610aa5601483610931565b9150610ab082610a71565b602082019050919050565b5f6020820190508181035f830152610ad281610a99565b9050919050565b5f610ae38261081c565b9150610aee8361081c565b9250828203905081811115610b0657610b05610a11565b5b92915050565b5f81905092915050565b50565b5f610b245f83610b0c565b9150610b2f82610b16565b5f82019050919050565b5f610b4382610b19565b9150819050919050565b7f63616c6c206661696c65640000000000000000000000000000000000000000005f82015250565b5f610b81600b83610931565b9150610b8c82610b4d565b602082019050919050565b5f6020820190508181035f830152610bae81610b75565b9050919050565b7f4e6f7420746865206f776e6572000000000000000000000000000000000000005f82015250565b5f610be9600d83610931565b9150610bf482610bb5565b602082019050919050565b5f6020820190508181035f830152610c1681610bdd565b9050919050565b7f636f6e7472616374206973206e6f7420706175736564000000000000000000005f82015250565b5f610c51601683610931565b9150610c5c82610c1d565b602082019050919050565b5f6020820190508181035f830152610c7e81610c45565b905091905056fea2646970667358221220026afb507da567ae9cb934548afab49a6a8be3fde1c913722a3158769a87882c64736f6c634300081f0033",
					"opcodes": "PUSH1 0x80 PUSH1 0x40 MSTORE PUSH0 PUSH0 PUSH1 0x14 PUSH2 0x100 EXP DUP2 SLOAD DUP2 PUSH1 0xFF MUL NOT AND SWAP1 DUP4 ISZERO ISZERO MUL OR SWAP1 SSTORE POP CALLVALUE DUP1 ISZERO PUSH1 0x27 JUMPI PUSH0 PUSH0 REVERT JUMPDEST POP CALLER PUSH0 PUSH0 PUSH2 0x100 EXP DUP2 SLOAD DUP2 PUSH20 0xFFFFFFFFFFFFFFFFFFFFFFFFFFFFFFFFFFFFFFFF MUL NOT AND SWAP1 DUP4 PUSH20 0xFFFFFFFFFFFFFFFFFFFFFFFFFFFFFFFFFFFFFFFF AND MUL OR SWAP1 SSTORE POP PUSH2 0xCBB DUP1 PUSH2 0x74 PUSH0 CODECOPY PUSH0 RETURN INVALID PUSH1 0x80 PUSH1 0x40 MSTORE PUSH1 0x4 CALLDATASIZE LT PUSH2 0x89 JUMPI PUSH0 CALLDATALOAD PUSH1 0xE0 SHR DUP1 PUSH4 0x6F9FB98A GT PUSH2 0x58 JUMPI DUP1 PUSH4 0x6F9FB98A EQ PUSH2 0x122 JUMPI DUP1 PUSH4 0x8456CB59 EQ PUSH2 0x14C JUMPI DUP1 PUSH4 0x8DA5CB5B EQ PUSH2 0x162 JUMPI DUP1 PUSH4 0xD0E30DB0 EQ PUSH2 0x18C JUMPI DUP1 PUSH4 0xE1E158A5 EQ PUSH2 0x196 JUMPI PUSH2 0x98 JUMP JUMPDEST DUP1 PUSH4 0x12065FE0 EQ PUSH2 0x9C JUMPI DUP1 PUSH4 0x2E1A7D4D EQ PUSH2 0xC6 JUMPI DUP1 PUSH4 0x3F4BA83A EQ PUSH2 0xE2 JUMPI DUP1 PUSH4 0x5C975ABB EQ PUSH2 0xF8 JUMPI PUSH2 0x98 JUMP JUMPDEST CALLDATASIZE PUSH2 0x98 JUMPI PUSH2 0x96 PUSH2 0x1C0 JUMP JUMPDEST STOP JUMPDEST PUSH0 PUSH0 REVERT JUMPDEST CALLVALUE DUP1 ISZERO PUSH2 0xA7 JUMPI PUSH0 PUSH0 REVERT JUMPDEST POP PUSH2 0xB0 PUSH2 0x2FE JUMP JUMPDEST PUSH1 0x40 MLOAD PUSH2 0xBD SWAP2 SWAP1 PUSH2 0x834 JUMP JUMPDEST PUSH1 0x40 MLOAD DUP1 SWAP2 SUB SWAP1 RETURN JUMPDEST PUSH2 0xE0 PUSH1 0x4 DUP1 CALLDATASIZE SUB DUP2 ADD SWAP1 PUSH2 0xDB SWAP2 SWAP1 PUSH2 0x87B JUMP JUMPDEST PUSH2 0x342 JUMP JUMPDEST STOP JUMPDEST CALLVALUE DUP1 ISZERO PUSH2 0xED JUMPI PUSH0 PUSH0 REVERT JUMPDEST POP PUSH2 0xF6 PUSH2 0x55E JUMP JUMPDEST STOP JUMPDEST CALLVALUE DUP1 ISZERO PUSH2 0x103 JUMPI PUSH0 PUSH0 REVERT JUMPDEST POP PUSH2 0x10C PUSH2 0x698 JUMP JUMPDEST PUSH1 0x40 MLOAD PUSH2 0x119 SWAP2 SWAP1 PUSH2 0x8C0 JUMP JUMPDEST PUSH1 0x40 MLOAD DUP1 SWAP2 SUB SWAP1 RETURN JUMPDEST CALLVALUE DUP1 ISZERO PUSH2 0x12D JUMPI PUSH0 PUSH0 REVERT JUMPDEST POP PUSH2 0x136 PUSH2 0x6AA JUMP JUMPDEST PUSH1 0x40 MLOAD PUSH2 0x143 SWAP2 SWAP1 PUSH2 0x834 JUMP JUMPDEST PUSH1 0x40 MLOAD DUP1 SWAP2 SUB SWAP1 RETURN JUMPDEST CALLVALUE DUP1 ISZERO PUSH2 0x157 JUMPI PUSH0 PUSH0 REVERT JUMPDEST POP PUSH2 0x160 PUSH2 0x6B1 JUMP JUMPDEST STOP JUMPDEST CALLVALUE DUP1 ISZERO PUSH2 0x16D JUMPI PUSH0 PUSH0 REVERT JUMPDEST POP PUSH2 0x176 PUSH2 0x7ED JUMP JUMPDEST PUSH1 0x40 MLOAD PUSH2 0x183 SWAP2 SWAP1 PUSH2 0x918 JUMP JUMPDEST PUSH1 0x40 MLOAD DUP1 SWAP2 SUB SWAP1 RETURN JUMPDEST PUSH2 0x194 PUSH2 0x1C0 JUMP JUMPDEST STOP JUMPDEST CALLVALUE DUP1 ISZERO PUSH2 0x1A1 JUMPI PUSH0 PUSH0 REVERT JUMPDEST POP PUSH2 0x1AA PUSH2 0x811 JUMP JUMPDEST PUSH1 0x40 MLOAD PUSH2 0x1B7 SWAP2 SWAP1 PUSH2 0x834 JUMP JUMPDEST PUSH1 0x40 MLOAD DUP1 SWAP2 SUB SWAP1 RETURN JUMPDEST PUSH0 PUSH1 0x14 SWAP1 SLOAD SWAP1 PUSH2 0x100 EXP SWAP1 DIV PUSH1 0xFF AND ISZERO PUSH2 0x20F JUMPI PUSH1 0x40 MLOAD PUSH32 0x8C379A000000000000000000000000000000000000000000000000000000000 DUP2 MSTORE PUSH1 0x4 ADD PUSH2 0x206 SWAP1 PUSH2 0x98B JUMP JUMPDEST PUSH1 0x40 MLOAD DUP1 SWAP2 SUB SWAP1 REVERT JUMPDEST PUSH7 0x2386F26FC10000 DUP1 CALLVALUE LT ISZERO PUSH2 0x25A JUMPI PUSH1 0x40 MLOAD PUSH32 0x8C379A000000000000000000000000000000000000000000000000000000000 DUP2 MSTORE PUSH1 0x4 ADD PUSH2 0x251 SWAP1 PUSH2 0x9F3 JUMP JUMPDEST PUSH1 0x40 MLOAD DUP1 SWAP2 SUB SWAP1 REVERT JUMPDEST CALLVALUE PUSH1 0x1 PUSH0 CALLER PUSH20 0xFFFFFFFFFFFFFFFFFFFFFFFFFFFFFFFFFFFFFFFF AND PUSH20 0xFFFFFFFFFFFFFFFFFFFFFFFFFFFFFFFFFFFFFFFF AND DUP2 MSTORE PUSH1 0x20 ADD SWAP1 DUP2 MSTORE PUSH1 0x20 ADD PUSH0 KECCAK256 PUSH0 DUP3 DUP3 SLOAD PUSH2 0x2A6 SWAP2 SWAP1 PUSH2 0xA3E JUMP JUMPDEST SWAP3 POP POP DUP2 SWAP1 SSTORE POP CALLER PUSH20 0xFFFFFFFFFFFFFFFFFFFFFFFFFFFFFFFFFFFFFFFF AND PUSH32 0xE1FFFCC4923D04B559F4D29A8BFC6CDA04EB5B0D3C460751C2402C5C5CC9109C CALLVALUE PUSH1 0x40 MLOAD PUSH2 0x2F3 SWAP2 SWAP1 PUSH2 0x834 JUMP JUMPDEST PUSH1 0x40 MLOAD DUP1 SWAP2 SUB SWAP1 LOG2 POP JUMP JUMPDEST PUSH0 PUSH1 0x1 PUSH0 CALLER PUSH20 0xFFFFFFFFFFFFFFFFFFFFFFFFFFFFFFFFFFFFFFFF AND PUSH20 0xFFFFFFFFFFFFFFFFFFFFFFFFFFFFFFFFFFFFFFFF AND DUP2 MSTORE PUSH1 0x20 ADD SWAP1 DUP2 MSTORE PUSH1 0x20 ADD PUSH0 KECCAK256 SLOAD SWAP1 POP SWAP1 JUMP JUMPDEST PUSH0 PUSH1 0x14 SWAP1 SLOAD SWAP1 PUSH2 0x100 EXP SWAP1 DIV PUSH1 0xFF AND ISZERO PUSH2 0x391 JUMPI PUSH1 0x40 MLOAD PUSH32 0x8C379A000000000000000000000000000000000000000000000000000000000 DUP2 MSTORE PUSH1 0x4 ADD PUSH2 0x388 SWAP1 PUSH2 0x98B JUMP JUMPDEST PUSH1 0x40 MLOAD DUP1 SWAP2 SUB SWAP1 REVERT JUMPDEST DUP1 PUSH1 0x1 PUSH0 CALLER PUSH20 0xFFFFFFFFFFFFFFFFFFFFFFFFFFFFFFFFFFFFFFFF AND PUSH20 0xFFFFFFFFFFFFFFFFFFFFFFFFFFFFFFFFFFFFFFFF AND DUP2 MSTORE PUSH1 0x20 ADD SWAP1 DUP2 MSTORE PUSH1 0x20 ADD PUSH0 KECCAK256 SLOAD LT ISZERO PUSH2 0x411 JUMPI PUSH1 0x40 MLOAD PUSH32 0x8C379A000000000000000000000000000000000000000000000000000000000 DUP2 MSTORE PUSH1 0x4 ADD PUSH2 0x408 SWAP1 PUSH2 0xABB JUMP JUMPDEST PUSH1 0x40 MLOAD DUP1 SWAP2 SUB SWAP1 REVERT JUMPDEST DUP1 PUSH1 0x1 PUSH0 CALLER PUSH20 0xFFFFFFFFFFFFFFFFFFFFFFFFFFFFFFFFFFFFFFFF AND PUSH20 0xFFFFFFFFFFFFFFFFFFFFFFFFFFFFFFFFFFFFFFFF AND DUP2 MSTORE PUSH1 0x20 ADD SWAP1 DUP2 MSTORE PUSH1 0x20 ADD PUSH0 KECCAK256 PUSH0 DUP3 DUP3 SLOAD PUSH2 0x45D SWAP2 SWAP1 PUSH2 0xAD9 JUMP JUMPDEST SWAP3 POP POP DUP2 SWAP1 SSTORE POP PUSH0 CALLER PUSH20 0xFFFFFFFFFFFFFFFFFFFFFFFFFFFFFFFFFFFFFFFF AND DUP3 PUSH1 0x40 MLOAD PUSH2 0x489 SWAP1 PUSH2 0xB39 JUMP JUMPDEST PUSH0 PUSH1 0x40 MLOAD DUP1 DUP4 SUB DUP2 DUP6 DUP8 GAS CALL SWAP3 POP POP POP RETURNDATASIZE DUP1 PUSH0 DUP2 EQ PUSH2 0x4C3 JUMPI PUSH1 0x40 MLOAD SWAP2 POP PUSH1 0x1F NOT PUSH1 0x3F RETURNDATASIZE ADD AND DUP3 ADD PUSH1 0x40 MSTORE RETURNDATASIZE DUP3 MSTORE RETURNDATASIZE PUSH0 PUSH1 0x20 DUP5 ADD RETURNDATACOPY PUSH2 0x4C8 JUMP JUMPDEST PUSH1 0x60 SWAP2 POP JUMPDEST POP POP SWAP1 POP DUP1 PUSH2 0x50C JUMPI PUSH1 0x40 MLOAD PUSH32 0x8C379A000000000000000000000000000000000000000000000000000000000 DUP2 MSTORE PUSH1 0x4 ADD PUSH2 0x503 SWAP1 PUSH2 0xB97 JUMP JUMPDEST PUSH1 0x40 MLOAD DUP1 SWAP2 SUB SWAP1 REVERT JUMPDEST CALLER PUSH20 0xFFFFFFFFFFFFFFFFFFFFFFFFFFFFFFFFFFFFFFFF AND PUSH32 0x7FCF532C15F0A6DB0BD6D0E038BEA71D30D808C7D98CB3BF7268A95BF5081B65 DUP4 PUSH1 0x40 MLOAD PUSH2 0x552 SWAP2 SWAP1 PUSH2 0x834 JUMP JUMPDEST PUSH1 0x40 MLOAD DUP1 SWAP2 SUB SWAP1 LOG2 POP POP JUMP JUMPDEST PUSH0 PUSH0 SWAP1 SLOAD SWAP1 PUSH2 0x100 EXP SWAP1 DIV PUSH20 0xFFFFFFFFFFFFFFFFFFFFFFFFFFFFFFFFFFFFFFFF AND PUSH20 0xFFFFFFFFFFFFFFFFFFFFFFFFFFFFFFFFFFFFFFFF AND CALLER PUSH20 0xFFFFFFFFFFFFFFFFFFFFFFFFFFFFFFFFFFFFFFFF AND EQ PUSH2 0x5EC JUMPI PUSH1 0x40 MLOAD PUSH32 0x8C379A000000000000000000000000000000000000000000000000000000000 DUP2 MSTORE PUSH1 0x4 ADD PUSH2 0x5E3 SWAP1 PUSH2 0xBFF JUMP JUMPDEST PUSH1 0x40 MLOAD DUP1 SWAP2 SUB SWAP1 REVERT JUMPDEST PUSH0 PUSH1 0x14 SWAP1 SLOAD SWAP1 PUSH2 0x100 EXP SWAP1 DIV PUSH1 0xFF AND PUSH2 0x63A JUMPI PUSH1 0x40 MLOAD PUSH32 0x8C379A000000000000000000000000000000000000000000000000000000000 DUP2 MSTORE PUSH1 0x4 ADD PUSH2 0x631 SWAP1 PUSH2 0xC67 JUMP JUMPDEST PUSH1 0x40 MLOAD DUP1 SWAP2 SUB SWAP1 REVERT JUMPDEST PUSH0 PUSH0 PUSH1 0x14 PUSH2 0x100 EXP DUP2 SLOAD DUP2 PUSH1 0xFF MUL NOT AND SWAP1 DUP4 ISZERO ISZERO MUL OR SWAP1 SSTORE POP CALLER PUSH20 0xFFFFFFFFFFFFFFFFFFFFFFFFFFFFFFFFFFFFFFFF AND PUSH32 0x5DB9EE0A495BF2E6FF9C91A7834C1BA4FDD244A5E8AA4E537BD38AEAE4B073AA PUSH1 0x40 MLOAD PUSH1 0x40 MLOAD DUP1 SWAP2 SUB SWAP1 LOG2 JUMP JUMPDEST PUSH0 PUSH1 0x14 SWAP1 SLOAD SWAP1 PUSH2 0x100 EXP SWAP1 DIV PUSH1 0xFF AND DUP2 JUMP JUMPDEST PUSH0 SELFBALANCE SWAP1 POP SWAP1 JUMP JUMPDEST PUSH0 PUSH0 SWAP1 SLOAD SWAP1 PUSH2 0x100 EXP SWAP1 DIV PUSH20 0xFFFFFFFFFFFFFFFFFFFFFFFFFFFFFFFFFFFFFFFF AND PUSH20 0xFFFFFFFFFFFFFFFFFFFFFFFFFFFFFFFFFFFFFFFF AND CALLER PUSH20 0xFFFFFFFFFFFFFFFFFFFFFFFFFFFFFFFFFFFFFFFF AND EQ PUSH2 0x73F JUMPI PUSH1 0x40 MLOAD PUSH32 0x8C379A000000000000000000000000000000000000000000000000000000000 DUP2 MSTORE PUSH1 0x4 ADD PUSH2 0x736 SWAP1 PUSH2 0xBFF JUMP JUMPDEST PUSH1 0x40 MLOAD DUP1 SWAP2 SUB SWAP1 REVERT JUMPDEST PUSH0 PUSH1 0x14 SWAP1 SLOAD SWAP1 PUSH2 0x100 EXP SWAP1 DIV PUSH1 0xFF AND ISZERO PUSH2 0x78E JUMPI PUSH1 0x40 MLOAD PUSH32 0x8C379A000000000000000000000000000000000000000000000000000000000 DUP2 MSTORE PUSH1 0x4 ADD PUSH2 0x785 SWAP1 PUSH2 0x98B JUMP JUMPDEST PUSH1 0x40 MLOAD DUP1 SWAP2 SUB SWAP1 REVERT JUMPDEST PUSH1 0x1 PUSH0 PUSH1 0x14 PUSH2 0x100 EXP DUP2 SLOAD DUP2 PUSH1 0xFF MUL NOT AND SWAP1 DUP4 ISZERO ISZERO MUL OR SWAP1 SSTORE POP CALLER PUSH20 0xFFFFFFFFFFFFFFFFFFFFFFFFFFFFFFFFFFFFFFFF AND PUSH32 0x62E78CEA01BEE320CD4E420270B5EA74000D11B0C9F74754EBDBFC544B05A258 PUSH1 0x40 MLOAD PUSH1 0x40 MLOAD DUP1 SWAP2 SUB SWAP1 LOG2 JUMP JUMPDEST PUSH0 PUSH0 SWAP1 SLOAD SWAP1 PUSH2 0x100 EXP SWAP1 DIV PUSH20 0xFFFFFFFFFFFFFFFFFFFFFFFFFFFFFFFFFFFFFFFF AND DUP2 JUMP JUMPDEST PUSH7 0x2386F26FC10000 DUP2 JUMP JUMPDEST PUSH0 DUP2 SWAP1 POP SWAP2 SWAP1 POP JUMP JUMPDEST PUSH2 0x82E DUP2 PUSH2 0x81C JUMP JUMPDEST DUP3 MSTORE POP POP JUMP JUMPDEST PUSH0 PUSH1 0x20 DUP3 ADD SWAP1 POP PUSH2 0x847 PUSH0 DUP4 ADD DUP5 PUSH2 0x825 JUMP JUMPDEST SWAP3 SWAP2 POP POP JUMP JUMPDEST PUSH0 PUSH0 REVERT JUMPDEST PUSH2 0x85A DUP2 PUSH2 0x81C JUMP JUMPDEST DUP2 EQ PUSH2 0x864 JUMPI PUSH0 PUSH0 REVERT JUMPDEST POP JUMP JUMPDEST PUSH0 DUP2 CALLDATALOAD SWAP1 POP PUSH2 0x875 DUP2 PUSH2 0x851 JUMP JUMPDEST SWAP3 SWAP2 POP POP JUMP JUMPDEST PUSH0 PUSH1 0x20 DUP3 DUP5 SUB SLT ISZERO PUSH2 0x890 JUMPI PUSH2 0x88F PUSH2 0x84D JUMP JUMPDEST JUMPDEST PUSH0 PUSH2 0x89D DUP5 DUP3 DUP6 ADD PUSH2 0x867 JUMP JUMPDEST SWAP2 POP POP SWAP3 SWAP2 POP POP JUMP JUMPDEST PUSH0 DUP2 ISZERO ISZERO SWAP1 POP SWAP2 SWAP1 POP JUMP JUMPDEST PUSH2 0x8BA DUP2 PUSH2 0x8A6 JUMP JUMPDEST DUP3 MSTORE POP POP JUMP JUMPDEST PUSH0 PUSH1 0x20 DUP3 ADD SWAP1 POP PUSH2 0x8D3 PUSH0 DUP4 ADD DUP5 PUSH2 0x8B1 JUMP JUMPDEST SWAP3 SWAP2 POP POP JUMP JUMPDEST PUSH0 PUSH20 0xFFFFFFFFFFFFFFFFFFFFFFFFFFFFFFFFFFFFFFFF DUP3 AND SWAP1 POP SWAP2 SWAP1 POP JUMP JUMPDEST PUSH0 PUSH2 0x902 DUP3 PUSH2 0x8D9 JUMP JUMPDEST SWAP1 POP SWAP2 SWAP1 POP JUMP JUMPDEST PUSH2 0x912 DUP2 PUSH2 0x8F8 JUMP JUMPDEST DUP3 MSTORE POP POP JUMP JUMPDEST PUSH0 PUSH1 0x20 DUP3 ADD SWAP1 POP PUSH2 0x92B PUSH0 DUP4 ADD DUP5 PUSH2 0x909 JUMP JUMPDEST SWAP3 SWAP2 POP POP JUMP JUMPDEST PUSH0 DUP3 DUP3 MSTORE PUSH1 0x20 DUP3 ADD SWAP1 POP SWAP3 SWAP2 POP POP JUMP JUMPDEST PUSH32 0x636F6E7374726163742069732070617573656400000000000000000000000000 PUSH0 DUP3 ADD MSTORE POP JUMP JUMPDEST PUSH0 PUSH2 0x975 PUSH1 0x13 DUP4 PUSH2 0x931 JUMP JUMPDEST SWAP2 POP PUSH2 0x980 DUP3 PUSH2 0x941 JUMP JUMPDEST PUSH1 0x20 DUP3 ADD SWAP1 POP SWAP2 SWAP1 POP JUMP JUMPDEST PUSH0 PUSH1 0x20 DUP3 ADD SWAP1 POP DUP2 DUP2 SUB PUSH0 DUP4 ADD MSTORE PUSH2 0x9A2 DUP2 PUSH2 0x969 JUMP JUMPDEST SWAP1 POP SWAP2 SWAP1 POP JUMP JUMPDEST PUSH32 0x496E73756666696369656E742076616C75650000000000000000000000000000 PUSH0 DUP3 ADD MSTORE POP JUMP JUMPDEST PUSH0 PUSH2 0x9DD PUSH1 0x12 DUP4 PUSH2 0x931 JUMP JUMPDEST SWAP2 POP PUSH2 0x9E8 DUP3 PUSH2 0x9A9 JUMP JUMPDEST PUSH1 0x20 DUP3 ADD SWAP1 POP SWAP2 SWAP1 POP JUMP JUMPDEST PUSH0 PUSH1 0x20 DUP3 ADD SWAP1 POP DUP2 DUP2 SUB PUSH0 DUP4 ADD MSTORE PUSH2 0xA0A DUP2 PUSH2 0x9D1 JUMP JUMPDEST SWAP1 POP SWAP2 SWAP1 POP JUMP JUMPDEST PUSH32 0x4E487B7100000000000000000000000000000000000000000000000000000000 PUSH0 MSTORE PUSH1 0x11 PUSH1 0x4 MSTORE PUSH1 0x24 PUSH0 REVERT JUMPDEST PUSH0 PUSH2 0xA48 DUP3 PUSH2 0x81C JUMP JUMPDEST SWAP2 POP PUSH2 0xA53 DUP4 PUSH2 0x81C JUMP JUMPDEST SWAP3 POP DUP3 DUP3 ADD SWAP1 POP DUP1 DUP3 GT ISZERO PUSH2 0xA6B JUMPI PUSH2 0xA6A PUSH2 0xA11 JUMP JUMPDEST JUMPDEST SWAP3 SWAP2 POP POP JUMP JUMPDEST PUSH32 0x496E73756666696369656E742062616C616E6365000000000000000000000000 PUSH0 DUP3 ADD MSTORE POP JUMP JUMPDEST PUSH0 PUSH2 0xAA5 PUSH1 0x14 DUP4 PUSH2 0x931 JUMP JUMPDEST SWAP2 POP PUSH2 0xAB0 DUP3 PUSH2 0xA71 JUMP JUMPDEST PUSH1 0x20 DUP3 ADD SWAP1 POP SWAP2 SWAP1 POP JUMP JUMPDEST PUSH0 PUSH1 0x20 DUP3 ADD SWAP1 POP DUP2 DUP2 SUB PUSH0 DUP4 ADD MSTORE PUSH2 0xAD2 DUP2 PUSH2 0xA99 JUMP JUMPDEST SWAP1 POP SWAP2 SWAP1 POP JUMP JUMPDEST PUSH0 PUSH2 0xAE3 DUP3 PUSH2 0x81C JUMP JUMPDEST SWAP2 POP PUSH2 0xAEE DUP4 PUSH2 0x81C JUMP JUMPDEST SWAP3 POP DUP3 DUP3 SUB SWAP1 POP DUP2 DUP2 GT ISZERO PUSH2 0xB06 JUMPI PUSH2 0xB05 PUSH2 0xA11 JUMP JUMPDEST JUMPDEST SWAP3 SWAP2 POP POP JUMP JUMPDEST PUSH0 DUP2 SWAP1 POP SWAP3 SWAP2 POP POP JUMP JUMPDEST POP JUMP JUMPDEST PUSH0 PUSH2 0xB24 PUSH0 DUP4 PUSH2 0xB0C JUMP JUMPDEST SWAP2 POP PUSH2 0xB2F DUP3 PUSH2 0xB16 JUMP JUMPDEST PUSH0 DUP3 ADD SWAP1 POP SWAP2 SWAP1 POP JUMP JUMPDEST PUSH0 PUSH2 0xB43 DUP3 PUSH2 0xB19 JUMP JUMPDEST SWAP2 POP DUP2 SWAP1 POP SWAP2 SWAP1 POP JUMP JUMPDEST PUSH32 0x63616C6C206661696C6564000000000000000000000000000000000000000000 PUSH0 DUP3 ADD MSTORE POP JUMP JUMPDEST PUSH0 PUSH2 0xB81 PUSH1 0xB DUP4 PUSH2 0x931 JUMP JUMPDEST SWAP2 POP PUSH2 0xB8C DUP3 PUSH2 0xB4D JUMP JUMPDEST PUSH1 0x20 DUP3 ADD SWAP1 POP SWAP2 SWAP1 POP JUMP JUMPDEST PUSH0 PUSH1 0x20 DUP3 ADD SWAP1 POP DUP2 DUP2 SUB PUSH0 DUP4 ADD MSTORE PUSH2 0xBAE DUP2 PUSH2 0xB75 JUMP JUMPDEST SWAP1 POP SWAP2 SWAP1 POP JUMP JUMPDEST PUSH32 0x4E6F7420746865206F776E657200000000000000000000000000000000000000 PUSH0 DUP3 ADD MSTORE POP JUMP JUMPDEST PUSH0 PUSH2 0xBE9 PUSH1 0xD DUP4 PUSH2 0x931 JUMP JUMPDEST SWAP2 POP PUSH2 0xBF4 DUP3 PUSH2 0xBB5 JUMP JUMPDEST PUSH1 0x20 DUP3 ADD SWAP1 POP SWAP2 SWAP1 POP JUMP JUMPDEST PUSH0 PUSH1 0x20 DUP3 ADD SWAP1 POP DUP2 DUP2 SUB PUSH0 DUP4 ADD MSTORE PUSH2 0xC16 DUP2 PUSH2 0xBDD JUMP JUMPDEST SWAP1 POP SWAP2 SWAP1 POP JUMP JUMPDEST PUSH32 0x636F6E7472616374206973206E6F742070617573656400000000000000000000 PUSH0 DUP3 ADD MSTORE POP JUMP JUMPDEST PUSH0 PUSH2 0xC51 PUSH1 0x16 DUP4 PUSH2 0x931 JUMP JUMPDEST SWAP2 POP PUSH2 0xC5C DUP3 PUSH2 0xC1D JUMP JUMPDEST PUSH1 0x20 DUP3 ADD SWAP1 POP SWAP2 SWAP1 POP JUMP JUMPDEST PUSH0 PUSH1 0x20 DUP3 ADD SWAP1 POP DUP2 DUP2 SUB PUSH0 DUP4 ADD MSTORE PUSH2 0xC7E DUP2 PUSH2 0xC45 JUMP JUMPDEST SWAP1 POP SWAP2 SWAP1 POP JUMP INVALID LOG2 PUSH5 0x6970667358 0x22 SLT KECCAK256 MUL PUSH11 0xFB507DA567AE9CB934548A STATICCALL 0xB4 SWAP11 PUSH11 0x8BE3FDE1C913722A315876 SWAP11 DUP8 DUP9 0x2C PUSH5 0x736F6C6343 STOP ADDMOD 0x1F STOP CALLER "
				},
				"gasEstimates": {
					"creation": {
						"codeDepositCost": "651800",
						"executionCost": "49260",
						"totalCost": "701060"
					},
					"external": {
						"MIN_DEPOSIT()": "413",
						"deposit()": "infinite",
						"getBalance()": "2520",
						"getContractBalance()": "334",
						"owner()": "2551",
						"pause()": "30014",
						"paused()": "2583",
						"unpause()": "30033",
						"withdraw(uint256)": "infinite"
					}
				},
				"methodIdentifiers": {
					"MIN_DEPOSIT()": "e1e158a5",
					"deposit()": "d0e30db0",
					"getBalance()": "12065fe0",
					"getContractBalance()": "6f9fb98a",
					"owner()": "8da5cb5b",
					"pause()": "8456cb59",
					"paused()": "5c975abb",
					"unpause()": "3f4ba83a",
					"withdraw(uint256)": "2e1a7d4d"
				}
			},
			"storageLayout": {
				"storage": [
					{
						"astId": 3,
						"contract": "lesson3/PaymentContract.sol:PaymentContract",
						"label": "owner",
						"offset": 0,
						"slot": "0",
						"type": "t_address"
					},
					{
						"astId": 6,
						"contract": "lesson3/PaymentContract.sol:PaymentContract",
						"label": "paused",
						"offset": 20,
						"slot": "0",
						"type": "t_bool"
					},
					{
						"astId": 10,
						"contract": "lesson3/PaymentContract.sol:PaymentContract",
						"label": "balances",
						"offset": 0,
						"slot": "1",
						"type": "t_mapping(t_address,t_uint256)"
					}
				],
				"types": {
					"t_address": {
						"encoding": "inplace",
						"label": "address",
						"numberOfBytes": "20"
					},
					"t_bool": {
						"encoding": "inplace",
						"label": "bool",
						"numberOfBytes": "1"
					},
					"t_mapping(t_address,t_uint256)": {
						"encoding": "mapping",
						"key": "t_address",
						"label": "mapping(address => uint256)",
						"numberOfBytes": "32",
						"value": "t_uint256"
					},
					"t_uint256": {
						"encoding": "inplace",
						"label": "uint256",
						"numberOfBytes": "32"
					}
				}
			},
			"userdoc": {
				"kind": "user",
				"methods": {},
				"version": 1
			}
		}
	}
}