{
	"lesson3/MultiSign.sol": {
		"MultiSign": {
			"abi": [
				{
					"inputs": [
						{
							"internalType": "address[]",
							"name": "_owners",
							"type": "address[]"
						},
						{
							"internalType": "uint256",
							"name": "_required",
							"type": "uint256"
						}
					],
					"stateMutability": "nonpayable",
					"type": "constructor"
				},
				{
					"anonymous": false,
					"inputs": [
						{
							"indexed": true,
							"internalType": "address",
							"name": "owner",
							"type": "address"
						},
						{
							"indexed": true,
							"internalType": "uint256",
							"name": "txIndex",
							"type": "uint256"
						}
					],
					"name": "ConfirmTransaction",
					"type": "event"
				},
				{
					"anonymous": false,
					"inputs": [
						{
							"indexed": true,
							"internalType": "address",
							"name": "owner",
							"type": "address"
						},
						{
							"indexed": true,
							"internalType": "uint256",
							"name": "txIndex",
							"type": "uint256"
						}
					],
					"name": "ExecuteTransaction",
					"type": "event"
				},
				{
					"anonymous": false,
					"inputs": [
						{
							"indexed": true,
							"internalType": "address",
							"name": "owner",
							"type": "address"
						},
						{
							"indexed": true,
							"internalType": "uint256",
							"name": "txIndex",
							"type": "uint256"
						}
					],
					"name": "RevokeConfirmation",
					"type": "event"
				},
				{
					"anonymous": false,
					"inputs": [
						{
							"indexed": true,
							"internalType": "address",
							"name": "owner",
							"type": "address"
						},
						{
							"indexed": true,
							"internalType": "uint256",
							"name": "txIndex",
							"type": "uint256"
						},
						{
							"indexed": false,
							"internalType": "address",
							"name": "to",
							"type": "address"
						},
						{
							"indexed": false,
							"internalType": "uint256",
							"name": "value",
							"type": "uint256"
						},
						{
							"indexed": false,
							"internalType": "bytes",
							"name": "data",
							"type": "bytes"
						}
					],
					"name": "SubmitTransaction",
					"type": "event"
				},
				{
					"inputs": [
						{
							"internalType": "uint256",
							"name": "_txIndex",
							"type": "uint256"
						}
					],
					"name": "confirmTransaction",
					"outputs": [],
					"stateMutability": "nonpayable",
					"type": "function"
				},
				{
					"inputs": [
						{
							"internalType": "uint256",
							"name": "_txIndex",
							"type": "uint256"
						}
					],
					"name": "executeTransaction",
					"outputs": [],
					"stateMutability": "nonpayable",
					"type": "function"
				},
				{
					"inputs": [
						{
							"internalType": "uint256",
							"name": "",
							"type": "uint256"
						},
						{
							"internalType": "address",
							"name": "",
							"type": "address"
						}
					],
					"name": "isConfirmed",
					"outputs": [
						{
							"internalType": "bool",
							"name": "",
							"type": "bool"
						}
					],
					"stateMutability": "view",
					"type": "function"
				},
				{
					"inputs": [
						{
							"internalType": "address",
							"name": "",
							"type": "address"
						}
					],
					"name": "isOwner",
					"outputs": [
						{
							"internalType": "bool",
							"name": "",
							"type": "bool"
						}
					],
					"stateMutability": "view",
					"type": "function"
				},
				{
					"inputs": [
						{
							"internalType": "uint256",
							"name": "",
							"type": "uint256"
						}
					],
					"name": "owners",
					"outputs": [
						{
							"internalType": "address",
							"name": "",
							"type": "address"
						}
					],
					"stateMutability": "view",
					"type": "function"
				},
				{
					"inputs": [],
					"name": "required",
					"outputs": [
						{
							"internalType": "uint256",
							"name": "",
							"type": "uint256"
						}
					],
					"stateMutability": "view",
					"type": "function"
				},
				{
					"inputs": [
						{
							"internalType": "address",
							"name": "_to",
							"type": "address"
						},
						{
							"internalType": "uint256",
							"name": "_value",
							"type": "uint256"
						},
						{
							"internalType": "bytes",
							"name": "_data",
							"type": "bytes"
						}
					],
					"name": "submitTransaction",
					"outputs": [],
					"stateMutability": "nonpayable",
					"type": "function"
				},
				{
					"inputs": [
						{
							"internalType": "uint256",
							"name": "",
							"type": "uint256"
						}
					],
					"name": "transactions",
					"outputs": [
						{
							"internalType": "address",
							"name": "to",
							"type": "address"
						},
						{
							"internalType": "uint256",
							"name": "value",
							"type": "uint256"
						},
						{
							"internalType": "bytes",
							"name": "data",
							"type": "bytes"
						},
						{
							"internalType": "bool",
							"name": "executed",
							"type": "bool"
						},
						{
							"internalType": "uint256",
							"name": "numConfirmations",
							"type": "uint256"
						}
					],
					"stateMutability": "view",
					"type": "function"
				},
				{
					"stateMutability": "payable",
					"type": "receive"
				}
			],
			"devdoc": {
				"kind": "dev",
				"methods": {},
				"version": 1
			},
			"evm": {
				"assembly": "    /* \"lesson3/MultiSign.sol\":60:3569  contract MultiSign{... */\n  mstore(0x40, 0x80)\n    /* \"lesson3/MultiSign.sol\":1677:2225  constructor(address[] memory _owners,uint _required){... */\n  callvalue\n  dup1\n  iszero\n  tag_1\n  jumpi\n  revert(0x00, 0x00)\ntag_1:\n  pop\n  mload(0x40)\n  sub(codesize, bytecodeSize)\n  dup1\n  bytecodeSize\n  dup4\n  codecopy\n  dup2\n  dup2\n  add\n  0x40\n  mstore\n  dup2\n  add\n  swap1\n  tag_2\n  swap2\n  swap1\n  tag_3\n  jump\t// in\ntag_2:\n    /* \"lesson3/MultiSign.sol\":1763:1764  0 */\n  0x00\n    /* \"lesson3/MultiSign.sol\":1748:1755  _owners */\n  dup3\n    /* \"lesson3/MultiSign.sol\":1748:1762  _owners.length */\n  mload\n    /* \"lesson3/MultiSign.sol\":1748:1764  _owners.length>0 */\n  gt\n    /* \"lesson3/MultiSign.sol\":1740:1783  require(_owners.length>0,\"Owners required\") */\n  tag_6\n  jumpi\n  mload(0x40)\n  0x08c379a000000000000000000000000000000000000000000000000000000000\n  dup2\n  mstore\n  0x04\n  add\n  tag_7\n  swap1\n  tag_8\n  jump\t// in\ntag_7:\n  mload(0x40)\n  dup1\n  swap2\n  sub\n  swap1\n  revert\ntag_6:\n    /* \"lesson3/MultiSign.sol\":1812:1813  0 */\n  0x00\n    /* \"lesson3/MultiSign.sol\":1802:1811  _required */\n  dup2\n    /* \"lesson3/MultiSign.sol\":1802:1813  _required>0 */\n  gt\n    /* \"lesson3/MultiSign.sol\":1802:1842  _required>0 && _required<=_owners.length */\n  dup1\n  iszero\n  tag_9\n  jumpi\n  pop\n    /* \"lesson3/MultiSign.sol\":1828:1835  _owners */\n  dup2\n    /* \"lesson3/MultiSign.sol\":1828:1842  _owners.length */\n  mload\n    /* \"lesson3/MultiSign.sol\":1817:1826  _required */\n  dup2\n    /* \"lesson3/MultiSign.sol\":1817:1842  _required<=_owners.length */\n  gt\n  iszero\n    /* \"lesson3/MultiSign.sol\":1802:1842  _required>0 && _required<=_owners.length */\ntag_9:\n    /* \"lesson3/MultiSign.sol\":1794:1868  require(_required>0 && _required<=_owners.length,\"Invalid reqired number\") */\n  tag_10\n  jumpi\n  mload(0x40)\n  0x08c379a000000000000000000000000000000000000000000000000000000000\n  dup2\n  mstore\n  0x04\n  add\n  tag_11\n  swap1\n  tag_12\n  jump\t// in\ntag_11:\n  mload(0x40)\n  dup1\n  swap2\n  sub\n  swap1\n  revert\ntag_10:\n    /* \"lesson3/MultiSign.sol\":1879:1891  uint _length */\n  0x00\n    /* \"lesson3/MultiSign.sol\":1894:1901  _owners */\n  dup3\n    /* \"lesson3/MultiSign.sol\":1894:1908  _owners.length */\n  mload\n    /* \"lesson3/MultiSign.sol\":1879:1908  uint _length = _owners.length */\n  swap1\n  pop\n    /* \"lesson3/MultiSign.sol\":1923:1929  uint i */\n  0x00\n    /* \"lesson3/MultiSign.sol\":1932:1933  0 */\n  0x00\n    /* \"lesson3/MultiSign.sol\":1923:1933  uint i = 0 */\n  swap1\n  pop\n    /* \"lesson3/MultiSign.sol\":1919:2187  for(uint i = 0;i<_length;i++){... */\ntag_13:\n    /* \"lesson3/MultiSign.sol\":1936:1943  _length */\n  dup2\n    /* \"lesson3/MultiSign.sol\":1934:1935  i */\n  dup2\n    /* \"lesson3/MultiSign.sol\":1934:1943  i<_length */\n  lt\n    /* \"lesson3/MultiSign.sol\":1919:2187  for(uint i = 0;i<_length;i++){... */\n  iszero\n  tag_14\n  jumpi\n    /* \"lesson3/MultiSign.sol\":1963:1976  address owner */\n  0x00\n    /* \"lesson3/MultiSign.sol\":1979:1986  _owners */\n  dup5\n    /* \"lesson3/MultiSign.sol\":1987:1988  i */\n  dup3\n    /* \"lesson3/MultiSign.sol\":1979:1989  _owners[i] */\n  dup2\n  mload\n  dup2\n  lt\n  tag_16\n  jumpi\n  tag_17\n  tag_18\n  jump\t// in\ntag_17:\ntag_16:\n  0x20\n  mul\n  0x20\n  add\n  add\n  mload\n    /* \"lesson3/MultiSign.sol\":1963:1989  address owner = _owners[i] */\n  swap1\n  pop\n    /* \"lesson3/MultiSign.sol\":2029:2030  0 */\n  0x00\n    /* \"lesson3/MultiSign.sol\":2012:2031  owner != address(0) */\n  0xffffffffffffffffffffffffffffffffffffffff\n  and\n    /* \"lesson3/MultiSign.sol\":2012:2017  owner */\n  dup2\n    /* \"lesson3/MultiSign.sol\":2012:2031  owner != address(0) */\n  0xffffffffffffffffffffffffffffffffffffffff\n  and\n  sub\n    /* \"lesson3/MultiSign.sol\":2004:2048  require(owner != address(0),\"Invalid owner\") */\n  tag_19\n  jumpi\n  mload(0x40)\n  0x08c379a000000000000000000000000000000000000000000000000000000000\n  dup2\n  mstore\n  0x04\n  add\n  tag_20\n  swap1\n  tag_21\n  jump\t// in\ntag_20:\n  mload(0x40)\n  dup1\n  swap2\n  sub\n  swap1\n  revert\ntag_19:\n    /* \"lesson3/MultiSign.sol\":2072:2079  isOwner */\n  0x01\n    /* \"lesson3/MultiSign.sol\":2072:2086  isOwner[owner] */\n  0x00\n    /* \"lesson3/MultiSign.sol\":2080:2085  owner */\n  dup3\n    /* \"lesson3/MultiSign.sol\":2072:2086  isOwner[owner] */\n  0xffffffffffffffffffffffffffffffffffffffff\n  and\n  0xffffffffffffffffffffffffffffffffffffffff\n  and\n  dup2\n  mstore\n  0x20\n  add\n  swap1\n  dup2\n  mstore\n  0x20\n  add\n  0x00\n  keccak256\n  0x00\n  swap1\n  sload\n  swap1\n  0x0100\n  exp\n  swap1\n  div\n  0xff\n  and\n    /* \"lesson3/MultiSign.sol\":2071:2086  !isOwner[owner] */\n  iszero\n    /* \"lesson3/MultiSign.sol\":2063:2106  require(!isOwner[owner],\"Owner not unique\") */\n  tag_22\n  jumpi\n  mload(0x40)\n  0x08c379a000000000000000000000000000000000000000000000000000000000\n  dup2\n  mstore\n  0x04\n  add\n  tag_23\n  swap1\n  tag_24\n  jump\t// in\ntag_23:\n  mload(0x40)\n  dup1\n  swap2\n  sub\n  swap1\n  revert\ntag_22:\n    /* \"lesson3/MultiSign.sol\":2138:2142  true */\n  0x01\n    /* \"lesson3/MultiSign.sol\":2121:2128  isOwner */\n  dup1\n    /* \"lesson3/MultiSign.sol\":2121:2135  isOwner[owner] */\n  0x00\n    /* \"lesson3/MultiSign.sol\":2129:2134  owner */\n  dup4\n    /* \"lesson3/MultiSign.sol\":2121:2135  isOwner[owner] */\n  0xffffffffffffffffffffffffffffffffffffffff\n  and\n  0xffffffffffffffffffffffffffffffffffffffff\n  and\n  dup2\n  mstore\n  0x20\n  add\n  swap1\n  dup2\n  mstore\n  0x20\n  add\n  0x00\n  keccak256\n  0x00\n    /* \"lesson3/MultiSign.sol\":2121:2142  isOwner[owner] = true */\n  0x0100\n  exp\n  dup2\n  sload\n  dup2\n  0xff\n  mul\n  not\n  and\n  swap1\n  dup4\n  iszero\n  iszero\n  mul\n  or\n  swap1\n  sstore\n  pop\n    /* \"lesson3/MultiSign.sol\":2157:2163  owners */\n  0x00\n    /* \"lesson3/MultiSign.sol\":2169:2174  owner */\n  dup2\n    /* \"lesson3/MultiSign.sol\":2157:2175  owners.push(owner) */\n  swap1\n  dup1\n  0x01\n  dup2\n  sload\n  add\n  dup1\n  dup3\n  sstore\n  dup1\n  swap2\n  pop\n  pop\n  0x01\n  swap1\n  sub\n  swap1\n  0x00\n  mstore\n  keccak256(0x00, 0x20)\n  add\n  0x00\n  swap1\n  swap2\n  swap1\n  swap2\n  swap1\n  swap2\n  0x0100\n  exp\n  dup2\n  sload\n  dup2\n  0xffffffffffffffffffffffffffffffffffffffff\n  mul\n  not\n  and\n  swap1\n  dup4\n  0xffffffffffffffffffffffffffffffffffffffff\n  and\n  mul\n  or\n  swap1\n  sstore\n  pop\n    /* \"lesson3/MultiSign.sol\":1948:2187  {... */\n  pop\n    /* \"lesson3/MultiSign.sol\":1944:1947  i++ */\n  dup1\n  dup1\n  0x01\n  add\n  swap2\n  pop\n  pop\n    /* \"lesson3/MultiSign.sol\":1919:2187  for(uint i = 0;i<_length;i++){... */\n  jump(tag_13)\ntag_14:\n  pop\n    /* \"lesson3/MultiSign.sol\":2208:2217  _required */\n  dup2\n    /* \"lesson3/MultiSign.sol\":2197:2205  required */\n  0x02\n    /* \"lesson3/MultiSign.sol\":2197:2217  required = _required */\n  dup2\n  swap1\n  sstore\n  pop\n    /* \"lesson3/MultiSign.sol\":1729:2225  {... */\n  pop\n    /* \"lesson3/MultiSign.sol\":1677:2225  constructor(address[] memory _owners,uint _required){... */\n  pop\n  pop\n    /* \"lesson3/MultiSign.sol\":60:3569  contract MultiSign{... */\n  jump(tag_26)\n    /* \"#utility.yul\":7:82   */\ntag_27:\n    /* \"#utility.yul\":40:46   */\n  0x00\n    /* \"#utility.yul\":73:75   */\n  0x40\n    /* \"#utility.yul\":67:76   */\n  mload\n    /* \"#utility.yul\":57:76   */\n  swap1\n  pop\n    /* \"#utility.yul\":7:82   */\n  swap1\n  jump\t// out\n    /* \"#utility.yul\":88:205   */\ntag_28:\n    /* \"#utility.yul\":197:198   */\n  0x00\n    /* \"#utility.yul\":194:195   */\n  0x00\n    /* \"#utility.yul\":187:199   */\n  revert\n    /* \"#utility.yul\":211:328   */\ntag_29:\n    /* \"#utility.yul\":320:321   */\n  0x00\n    /* \"#utility.yul\":317:318   */\n  0x00\n    /* \"#utility.yul\":310:322   */\n  revert\n    /* \"#utility.yul\":334:451   */\ntag_30:\n    /* \"#utility.yul\":443:444   */\n  0x00\n    /* \"#utility.yul\":440:441   */\n  0x00\n    /* \"#utility.yul\":433:445   */\n  revert\n    /* \"#utility.yul\":457:559   */\ntag_31:\n    /* \"#utility.yul\":498:504   */\n  0x00\n    /* \"#utility.yul\":549:551   */\n  0x1f\n    /* \"#utility.yul\":545:552   */\n  not\n    /* \"#utility.yul\":540:542   */\n  0x1f\n    /* \"#utility.yul\":533:538   */\n  dup4\n    /* \"#utility.yul\":529:543   */\n  add\n    /* \"#utility.yul\":525:553   */\n  and\n    /* \"#utility.yul\":515:553   */\n  swap1\n  pop\n    /* \"#utility.yul\":457:559   */\n  swap2\n  swap1\n  pop\n  jump\t// out\n    /* \"#utility.yul\":565:745   */\ntag_32:\n    /* \"#utility.yul\":613:690   */\n  0x4e487b7100000000000000000000000000000000000000000000000000000000\n    /* \"#utility.yul\":610:611   */\n  0x00\n    /* \"#utility.yul\":603:691   */\n  mstore\n    /* \"#utility.yul\":710:714   */\n  0x41\n    /* \"#utility.yul\":707:708   */\n  0x04\n    /* \"#utility.yul\":700:715   */\n  mstore\n    /* \"#utility.yul\":734:738   */\n  0x24\n    /* \"#utility.yul\":731:732   */\n  0x00\n    /* \"#utility.yul\":724:739   */\n  revert\n    /* \"#utility.yul\":751:1032   */\ntag_33:\n    /* \"#utility.yul\":834:861   */\n  tag_63\n    /* \"#utility.yul\":856:860   */\n  dup3\n    /* \"#utility.yul\":834:861   */\n  tag_31\n  jump\t// in\ntag_63:\n    /* \"#utility.yul\":826:832   */\n  dup2\n    /* \"#utility.yul\":822:862   */\n  add\n    /* \"#utility.yul\":964:970   */\n  dup2\n    /* \"#utility.yul\":952:962   */\n  dup2\n    /* \"#utility.yul\":949:971   */\n  lt\n    /* \"#utility.yul\":928:946   */\n  0xffffffffffffffff\n    /* \"#utility.yul\":916:926   */\n  dup3\n    /* \"#utility.yul\":913:947   */\n  gt\n    /* \"#utility.yul\":910:972   */\n  or\n    /* \"#utility.yul\":907:995   */\n  iszero\n  tag_64\n  jumpi\n    /* \"#utility.yul\":975:993   */\n  tag_65\n  tag_32\n  jump\t// in\ntag_65:\n    /* \"#utility.yul\":907:995   */\ntag_64:\n    /* \"#utility.yul\":1015:1025   */\n  dup1\n    /* \"#utility.yul\":1011:1013   */\n  0x40\n    /* \"#utility.yul\":1004:1026   */\n  mstore\n    /* \"#utility.yul\":794:1032   */\n  pop\n    /* \"#utility.yul\":751:1032   */\n  pop\n  pop\n  jump\t// out\n    /* \"#utility.yul\":1038:1167   */\ntag_34:\n    /* \"#utility.yul\":1072:1078   */\n  0x00\n    /* \"#utility.yul\":1099:1119   */\n  tag_67\n  tag_27\n  jump\t// in\ntag_67:\n    /* \"#utility.yul\":1089:1119   */\n  swap1\n  pop\n    /* \"#utility.yul\":1128:1161   */\n  tag_68\n    /* \"#utility.yul\":1156:1160   */\n  dup3\n    /* \"#utility.yul\":1148:1154   */\n  dup3\n    /* \"#utility.yul\":1128:1161   */\n  tag_33\n  jump\t// in\ntag_68:\n    /* \"#utility.yul\":1038:1167   */\n  swap2\n  swap1\n  pop\n  jump\t// out\n    /* \"#utility.yul\":1173:1484   */\ntag_35:\n    /* \"#utility.yul\":1250:1254   */\n  0x00\n    /* \"#utility.yul\":1340:1358   */\n  0xffffffffffffffff\n    /* \"#utility.yul\":1332:1338   */\n  dup3\n    /* \"#utility.yul\":1329:1359   */\n  gt\n    /* \"#utility.yul\":1326:1382   */\n  iszero\n  tag_70\n  jumpi\n    /* \"#utility.yul\":1362:1380   */\n  tag_71\n  tag_32\n  jump\t// in\ntag_71:\n    /* \"#utility.yul\":1326:1382   */\ntag_70:\n    /* \"#utility.yul\":1412:1416   */\n  0x20\n    /* \"#utility.yul\":1404:1410   */\n  dup3\n    /* \"#utility.yul\":1400:1417   */\n  mul\n    /* \"#utility.yul\":1392:1417   */\n  swap1\n  pop\n    /* \"#utility.yul\":1472:1476   */\n  0x20\n    /* \"#utility.yul\":1466:1470   */\n  dup2\n    /* \"#utility.yul\":1462:1477   */\n  add\n    /* \"#utility.yul\":1454:1477   */\n  swap1\n  pop\n    /* \"#utility.yul\":1173:1484   */\n  swap2\n  swap1\n  pop\n  jump\t// out\n    /* \"#utility.yul\":1490:1607   */\ntag_36:\n    /* \"#utility.yul\":1599:1600   */\n  0x00\n    /* \"#utility.yul\":1596:1597   */\n  0x00\n    /* \"#utility.yul\":1589:1601   */\n  revert\n    /* \"#utility.yul\":1613:1739   */\ntag_37:\n    /* \"#utility.yul\":1650:1657   */\n  0x00\n    /* \"#utility.yul\":1690:1732   */\n  0xffffffffffffffffffffffffffffffffffffffff\n    /* \"#utility.yul\":1683:1688   */\n  dup3\n    /* \"#utility.yul\":1679:1733   */\n  and\n    /* \"#utility.yul\":1668:1733   */\n  swap1\n  pop\n    /* \"#utility.yul\":1613:1739   */\n  swap2\n  swap1\n  pop\n  jump\t// out\n    /* \"#utility.yul\":1745:1841   */\ntag_38:\n    /* \"#utility.yul\":1782:1789   */\n  0x00\n    /* \"#utility.yul\":1811:1835   */\n  tag_75\n    /* \"#utility.yul\":1829:1834   */\n  dup3\n    /* \"#utility.yul\":1811:1835   */\n  tag_37\n  jump\t// in\ntag_75:\n    /* \"#utility.yul\":1800:1835   */\n  swap1\n  pop\n    /* \"#utility.yul\":1745:1841   */\n  swap2\n  swap1\n  pop\n  jump\t// out\n    /* \"#utility.yul\":1847:1969   */\ntag_39:\n    /* \"#utility.yul\":1920:1944   */\n  tag_77\n    /* \"#utility.yul\":1938:1943   */\n  dup2\n    /* \"#utility.yul\":1920:1944   */\n  tag_38\n  jump\t// in\ntag_77:\n    /* \"#utility.yul\":1913:1918   */\n  dup2\n    /* \"#utility.yul\":1910:1945   */\n  eq\n    /* \"#utility.yul\":1900:1963   */\n  tag_78\n  jumpi\n    /* \"#utility.yul\":1959:1960   */\n  0x00\n    /* \"#utility.yul\":1956:1957   */\n  0x00\n    /* \"#utility.yul\":1949:1961   */\n  revert\n    /* \"#utility.yul\":1900:1963   */\ntag_78:\n    /* \"#utility.yul\":1847:1969   */\n  pop\n  jump\t// out\n    /* \"#utility.yul\":1975:2118   */\ntag_40:\n    /* \"#utility.yul\":2032:2037   */\n  0x00\n    /* \"#utility.yul\":2063:2069   */\n  dup2\n    /* \"#utility.yul\":2057:2070   */\n  mload\n    /* \"#utility.yul\":2048:2070   */\n  swap1\n  pop\n    /* \"#utility.yul\":2079:2112   */\n  tag_80\n    /* \"#utility.yul\":2106:2111   */\n  dup2\n    /* \"#utility.yul\":2079:2112   */\n  tag_39\n  jump\t// in\ntag_80:\n    /* \"#utility.yul\":1975:2118   */\n  swap3\n  swap2\n  pop\n  pop\n  jump\t// out\n    /* \"#utility.yul\":2141:2873   */\ntag_41:\n    /* \"#utility.yul\":2248:2253   */\n  0x00\n    /* \"#utility.yul\":2273:2354   */\n  tag_82\n    /* \"#utility.yul\":2289:2353   */\n  tag_83\n    /* \"#utility.yul\":2346:2352   */\n  dup5\n    /* \"#utility.yul\":2289:2353   */\n  tag_35\n  jump\t// in\ntag_83:\n    /* \"#utility.yul\":2273:2354   */\n  tag_34\n  jump\t// in\ntag_82:\n    /* \"#utility.yul\":2264:2354   */\n  swap1\n  pop\n    /* \"#utility.yul\":2374:2379   */\n  dup1\n    /* \"#utility.yul\":2403:2409   */\n  dup4\n    /* \"#utility.yul\":2396:2401   */\n  dup3\n    /* \"#utility.yul\":2389:2410   */\n  mstore\n    /* \"#utility.yul\":2437:2441   */\n  0x20\n    /* \"#utility.yul\":2430:2435   */\n  dup3\n    /* \"#utility.yul\":2426:2442   */\n  add\n    /* \"#utility.yul\":2419:2442   */\n  swap1\n  pop\n    /* \"#utility.yul\":2490:2494   */\n  0x20\n    /* \"#utility.yul\":2482:2488   */\n  dup5\n    /* \"#utility.yul\":2478:2495   */\n  mul\n    /* \"#utility.yul\":2470:2476   */\n  dup4\n    /* \"#utility.yul\":2466:2496   */\n  add\n    /* \"#utility.yul\":2519:2522   */\n  dup6\n    /* \"#utility.yul\":2511:2517   */\n  dup2\n    /* \"#utility.yul\":2508:2523   */\n  gt\n    /* \"#utility.yul\":2505:2627   */\n  iszero\n  tag_84\n  jumpi\n    /* \"#utility.yul\":2538:2617   */\n  tag_85\n  tag_36\n  jump\t// in\ntag_85:\n    /* \"#utility.yul\":2505:2627   */\ntag_84:\n    /* \"#utility.yul\":2653:2659   */\n  dup4\n    /* \"#utility.yul\":2636:2867   */\ntag_86:\n    /* \"#utility.yul\":2670:2676   */\n  dup2\n    /* \"#utility.yul\":2665:2668   */\n  dup2\n    /* \"#utility.yul\":2662:2677   */\n  lt\n    /* \"#utility.yul\":2636:2867   */\n  iszero\n  tag_88\n  jumpi\n    /* \"#utility.yul\":2745:2748   */\n  dup1\n    /* \"#utility.yul\":2774:2822   */\n  tag_89\n    /* \"#utility.yul\":2818:2821   */\n  dup9\n    /* \"#utility.yul\":2806:2816   */\n  dup3\n    /* \"#utility.yul\":2774:2822   */\n  tag_40\n  jump\t// in\ntag_89:\n    /* \"#utility.yul\":2769:2772   */\n  dup5\n    /* \"#utility.yul\":2762:2823   */\n  mstore\n    /* \"#utility.yul\":2852:2856   */\n  0x20\n    /* \"#utility.yul\":2847:2850   */\n  dup5\n    /* \"#utility.yul\":2843:2857   */\n  add\n    /* \"#utility.yul\":2836:2857   */\n  swap4\n  pop\n    /* \"#utility.yul\":2712:2867   */\n  pop\n    /* \"#utility.yul\":2696:2700   */\n  0x20\n    /* \"#utility.yul\":2691:2694   */\n  dup2\n    /* \"#utility.yul\":2687:2701   */\n  add\n    /* \"#utility.yul\":2680:2701   */\n  swap1\n  pop\n    /* \"#utility.yul\":2636:2867   */\n  jump(tag_86)\ntag_88:\n    /* \"#utility.yul\":2640:2661   */\n  pop\n    /* \"#utility.yul\":2254:2873   */\n  pop\n  pop\n    /* \"#utility.yul\":2141:2873   */\n  swap4\n  swap3\n  pop\n  pop\n  pop\n  jump\t// out\n    /* \"#utility.yul\":2896:3281   */\ntag_42:\n    /* \"#utility.yul\":2978:2983   */\n  0x00\n    /* \"#utility.yul\":3027:3030   */\n  dup3\n    /* \"#utility.yul\":3020:3024   */\n  0x1f\n    /* \"#utility.yul\":3012:3018   */\n  dup4\n    /* \"#utility.yul\":3008:3025   */\n  add\n    /* \"#utility.yul\":3004:3031   */\n  slt\n    /* \"#utility.yul\":2994:3116   */\n  tag_91\n  jumpi\n    /* \"#utility.yul\":3035:3114   */\n  tag_92\n  tag_30\n  jump\t// in\ntag_92:\n    /* \"#utility.yul\":2994:3116   */\ntag_91:\n    /* \"#utility.yul\":3145:3151   */\n  dup2\n    /* \"#utility.yul\":3139:3152   */\n  mload\n    /* \"#utility.yul\":3170:3275   */\n  tag_93\n    /* \"#utility.yul\":3271:3274   */\n  dup5\n    /* \"#utility.yul\":3263:3269   */\n  dup3\n    /* \"#utility.yul\":3256:3260   */\n  0x20\n    /* \"#utility.yul\":3248:3254   */\n  dup7\n    /* \"#utility.yul\":3244:3261   */\n  add\n    /* \"#utility.yul\":3170:3275   */\n  tag_41\n  jump\t// in\ntag_93:\n    /* \"#utility.yul\":3161:3275   */\n  swap2\n  pop\n    /* \"#utility.yul\":2984:3281   */\n  pop\n    /* \"#utility.yul\":2896:3281   */\n  swap3\n  swap2\n  pop\n  pop\n  jump\t// out\n    /* \"#utility.yul\":3287:3364   */\ntag_43:\n    /* \"#utility.yul\":3324:3331   */\n  0x00\n    /* \"#utility.yul\":3353:3358   */\n  dup2\n    /* \"#utility.yul\":3342:3358   */\n  swap1\n  pop\n    /* \"#utility.yul\":3287:3364   */\n  swap2\n  swap1\n  pop\n  jump\t// out\n    /* \"#utility.yul\":3370:3492   */\ntag_44:\n    /* \"#utility.yul\":3443:3467   */\n  tag_96\n    /* \"#utility.yul\":3461:3466   */\n  dup2\n    /* \"#utility.yul\":3443:3467   */\n  tag_43\n  jump\t// in\ntag_96:\n    /* \"#utility.yul\":3436:3441   */\n  dup2\n    /* \"#utility.yul\":3433:3468   */\n  eq\n    /* \"#utility.yul\":3423:3486   */\n  tag_97\n  jumpi\n    /* \"#utility.yul\":3482:3483   */\n  0x00\n    /* \"#utility.yul\":3479:3480   */\n  0x00\n    /* \"#utility.yul\":3472:3484   */\n  revert\n    /* \"#utility.yul\":3423:3486   */\ntag_97:\n    /* \"#utility.yul\":3370:3492   */\n  pop\n  jump\t// out\n    /* \"#utility.yul\":3498:3641   */\ntag_45:\n    /* \"#utility.yul\":3555:3560   */\n  0x00\n    /* \"#utility.yul\":3586:3592   */\n  dup2\n    /* \"#utility.yul\":3580:3593   */\n  mload\n    /* \"#utility.yul\":3571:3593   */\n  swap1\n  pop\n    /* \"#utility.yul\":3602:3635   */\n  tag_99\n    /* \"#utility.yul\":3629:3634   */\n  dup2\n    /* \"#utility.yul\":3602:3635   */\n  tag_44\n  jump\t// in\ntag_99:\n    /* \"#utility.yul\":3498:3641   */\n  swap3\n  swap2\n  pop\n  pop\n  jump\t// out\n    /* \"#utility.yul\":3647:4357   */\ntag_3:\n    /* \"#utility.yul\":3751:3757   */\n  0x00\n    /* \"#utility.yul\":3759:3765   */\n  0x00\n    /* \"#utility.yul\":3808:3810   */\n  0x40\n    /* \"#utility.yul\":3796:3805   */\n  dup4\n    /* \"#utility.yul\":3787:3794   */\n  dup6\n    /* \"#utility.yul\":3783:3806   */\n  sub\n    /* \"#utility.yul\":3779:3811   */\n  slt\n    /* \"#utility.yul\":3776:3895   */\n  iszero\n  tag_101\n  jumpi\n    /* \"#utility.yul\":3814:3893   */\n  tag_102\n  tag_28\n  jump\t// in\ntag_102:\n    /* \"#utility.yul\":3776:3895   */\ntag_101:\n    /* \"#utility.yul\":3955:3956   */\n  0x00\n    /* \"#utility.yul\":3944:3953   */\n  dup4\n    /* \"#utility.yul\":3940:3957   */\n  add\n    /* \"#utility.yul\":3934:3958   */\n  mload\n    /* \"#utility.yul\":3985:4003   */\n  0xffffffffffffffff\n    /* \"#utility.yul\":3977:3983   */\n  dup2\n    /* \"#utility.yul\":3974:4004   */\n  gt\n    /* \"#utility.yul\":3971:4088   */\n  iszero\n  tag_103\n  jumpi\n    /* \"#utility.yul\":4007:4086   */\n  tag_104\n  tag_29\n  jump\t// in\ntag_104:\n    /* \"#utility.yul\":3971:4088   */\ntag_103:\n    /* \"#utility.yul\":4112:4201   */\n  tag_105\n    /* \"#utility.yul\":4193:4200   */\n  dup6\n    /* \"#utility.yul\":4184:4190   */\n  dup3\n    /* \"#utility.yul\":4173:4182   */\n  dup7\n    /* \"#utility.yul\":4169:4191   */\n  add\n    /* \"#utility.yul\":4112:4201   */\n  tag_42\n  jump\t// in\ntag_105:\n    /* \"#utility.yul\":4102:4201   */\n  swap3\n  pop\n    /* \"#utility.yul\":3905:4211   */\n  pop\n    /* \"#utility.yul\":4250:4252   */\n  0x20\n    /* \"#utility.yul\":4276:4340   */\n  tag_106\n    /* \"#utility.yul\":4332:4339   */\n  dup6\n    /* \"#utility.yul\":4323:4329   */\n  dup3\n    /* \"#utility.yul\":4312:4321   */\n  dup7\n    /* \"#utility.yul\":4308:4330   */\n  add\n    /* \"#utility.yul\":4276:4340   */\n  tag_45\n  jump\t// in\ntag_106:\n    /* \"#utility.yul\":4266:4340   */\n  swap2\n  pop\n    /* \"#utility.yul\":4221:4350   */\n  pop\n    /* \"#utility.yul\":3647:4357   */\n  swap3\n  pop\n  swap3\n  swap1\n  pop\n  jump\t// out\n    /* \"#utility.yul\":4363:4532   */\ntag_46:\n    /* \"#utility.yul\":4447:4458   */\n  0x00\n    /* \"#utility.yul\":4481:4487   */\n  dup3\n    /* \"#utility.yul\":4476:4479   */\n  dup3\n    /* \"#utility.yul\":4469:4488   */\n  mstore\n    /* \"#utility.yul\":4521:4525   */\n  0x20\n    /* \"#utility.yul\":4516:4519   */\n  dup3\n    /* \"#utility.yul\":4512:4526   */\n  add\n    /* \"#utility.yul\":4497:4526   */\n  swap1\n  pop\n    /* \"#utility.yul\":4363:4532   */\n  swap3\n  swap2\n  pop\n  pop\n  jump\t// out\n    /* \"#utility.yul\":4538:4703   */\ntag_47:\n    /* \"#utility.yul\":4678:4695   */\n  0x4f776e6572732072657175697265640000000000000000000000000000000000\n    /* \"#utility.yul\":4674:4675   */\n  0x00\n    /* \"#utility.yul\":4666:4672   */\n  dup3\n    /* \"#utility.yul\":4662:4676   */\n  add\n    /* \"#utility.yul\":4655:4696   */\n  mstore\n    /* \"#utility.yul\":4538:4703   */\n  pop\n  jump\t// out\n    /* \"#utility.yul\":4709:5075   */\ntag_48:\n    /* \"#utility.yul\":4851:4854   */\n  0x00\n    /* \"#utility.yul\":4872:4939   */\n  tag_110\n    /* \"#utility.yul\":4936:4938   */\n  0x0f\n    /* \"#utility.yul\":4931:4934   */\n  dup4\n    /* \"#utility.yul\":4872:4939   */\n  tag_46\n  jump\t// in\ntag_110:\n    /* \"#utility.yul\":4865:4939   */\n  swap2\n  pop\n    /* \"#utility.yul\":4948:5041   */\n  tag_111\n    /* \"#utility.yul\":5037:5040   */\n  dup3\n    /* \"#utility.yul\":4948:5041   */\n  tag_47\n  jump\t// in\ntag_111:\n    /* \"#utility.yul\":5066:5068   */\n  0x20\n    /* \"#utility.yul\":5061:5064   */\n  dup3\n    /* \"#utility.yul\":5057:5069   */\n  add\n    /* \"#utility.yul\":5050:5069   */\n  swap1\n  pop\n    /* \"#utility.yul\":4709:5075   */\n  swap2\n  swap1\n  pop\n  jump\t// out\n    /* \"#utility.yul\":5081:5500   */\ntag_8:\n    /* \"#utility.yul\":5247:5251   */\n  0x00\n    /* \"#utility.yul\":5285:5287   */\n  0x20\n    /* \"#utility.yul\":5274:5283   */\n  dup3\n    /* \"#utility.yul\":5270:5288   */\n  add\n    /* \"#utility.yul\":5262:5288   */\n  swap1\n  pop\n    /* \"#utility.yul\":5334:5343   */\n  dup2\n    /* \"#utility.yul\":5328:5332   */\n  dup2\n    /* \"#utility.yul\":5324:5344   */\n  sub\n    /* \"#utility.yul\":5320:5321   */\n  0x00\n    /* \"#utility.yul\":5309:5318   */\n  dup4\n    /* \"#utility.yul\":5305:5322   */\n  add\n    /* \"#utility.yul\":5298:5345   */\n  mstore\n    /* \"#utility.yul\":5362:5493   */\n  tag_113\n    /* \"#utility.yul\":5488:5492   */\n  dup2\n    /* \"#utility.yul\":5362:5493   */\n  tag_48\n  jump\t// in\ntag_113:\n    /* \"#utility.yul\":5354:5493   */\n  swap1\n  pop\n    /* \"#utility.yul\":5081:5500   */\n  swap2\n  swap1\n  pop\n  jump\t// out\n    /* \"#utility.yul\":5506:5678   */\ntag_49:\n    /* \"#utility.yul\":5646:5670   */\n  0x496e76616c69642072657169726564206e756d62657200000000000000000000\n    /* \"#utility.yul\":5642:5643   */\n  0x00\n    /* \"#utility.yul\":5634:5640   */\n  dup3\n    /* \"#utility.yul\":5630:5644   */\n  add\n    /* \"#utility.yul\":5623:5671   */\n  mstore\n    /* \"#utility.yul\":5506:5678   */\n  pop\n  jump\t// out\n    /* \"#utility.yul\":5684:6050   */\ntag_50:\n    /* \"#utility.yul\":5826:5829   */\n  0x00\n    /* \"#utility.yul\":5847:5914   */\n  tag_116\n    /* \"#utility.yul\":5911:5913   */\n  0x16\n    /* \"#utility.yul\":5906:5909   */\n  dup4\n    /* \"#utility.yul\":5847:5914   */\n  tag_46\n  jump\t// in\ntag_116:\n    /* \"#utility.yul\":5840:5914   */\n  swap2\n  pop\n    /* \"#utility.yul\":5923:6016   */\n  tag_117\n    /* \"#utility.yul\":6012:6015   */\n  dup3\n    /* \"#utility.yul\":5923:6016   */\n  tag_49\n  jump\t// in\ntag_117:\n    /* \"#utility.yul\":6041:6043   */\n  0x20\n    /* \"#utility.yul\":6036:6039   */\n  dup3\n    /* \"#utility.yul\":6032:6044   */\n  add\n    /* \"#utility.yul\":6025:6044   */\n  swap1\n  pop\n    /* \"#utility.yul\":5684:6050   */\n  swap2\n  swap1\n  pop\n  jump\t// out\n    /* \"#utility.yul\":6056:6475   */\ntag_12:\n    /* \"#utility.yul\":6222:6226   */\n  0x00\n    /* \"#utility.yul\":6260:6262   */\n  0x20\n    /* \"#utility.yul\":6249:6258   */\n  dup3\n    /* \"#utility.yul\":6245:6263   */\n  add\n    /* \"#utility.yul\":6237:6263   */\n  swap1\n  pop\n    /* \"#utility.yul\":6309:6318   */\n  dup2\n    /* \"#utility.yul\":6303:6307   */\n  dup2\n    /* \"#utility.yul\":6299:6319   */\n  sub\n    /* \"#utility.yul\":6295:6296   */\n  0x00\n    /* \"#utility.yul\":6284:6293   */\n  dup4\n    /* \"#utility.yul\":6280:6297   */\n  add\n    /* \"#utility.yul\":6273:6320   */\n  mstore\n    /* \"#utility.yul\":6337:6468   */\n  tag_119\n    /* \"#utility.yul\":6463:6467   */\n  dup2\n    /* \"#utility.yul\":6337:6468   */\n  tag_50\n  jump\t// in\ntag_119:\n    /* \"#utility.yul\":6329:6468   */\n  swap1\n  pop\n    /* \"#utility.yul\":6056:6475   */\n  swap2\n  swap1\n  pop\n  jump\t// out\n    /* \"#utility.yul\":6481:6661   */\ntag_18:\n    /* \"#utility.yul\":6529:6606   */\n  0x4e487b7100000000000000000000000000000000000000000000000000000000\n    /* \"#utility.yul\":6526:6527   */\n  0x00\n    /* \"#utility.yul\":6519:6607   */\n  mstore\n    /* \"#utility.yul\":6626:6630   */\n  0x32\n    /* \"#utility.yul\":6623:6624   */\n  0x04\n    /* \"#utility.yul\":6616:6631   */\n  mstore\n    /* \"#utility.yul\":6650:6654   */\n  0x24\n    /* \"#utility.yul\":6647:6648   */\n  0x00\n    /* \"#utility.yul\":6640:6655   */\n  revert\n    /* \"#utility.yul\":6667:6830   */\ntag_51:\n    /* \"#utility.yul\":6807:6822   */\n  0x496e76616c6964206f776e657200000000000000000000000000000000000000\n    /* \"#utility.yul\":6803:6804   */\n  0x00\n    /* \"#utility.yul\":6795:6801   */\n  dup3\n    /* \"#utility.yul\":6791:6805   */\n  add\n    /* \"#utility.yul\":6784:6823   */\n  mstore\n    /* \"#utility.yul\":6667:6830   */\n  pop\n  jump\t// out\n    /* \"#utility.yul\":6836:7202   */\ntag_52:\n    /* \"#utility.yul\":6978:6981   */\n  0x00\n    /* \"#utility.yul\":6999:7066   */\n  tag_123\n    /* \"#utility.yul\":7063:7065   */\n  0x0d\n    /* \"#utility.yul\":7058:7061   */\n  dup4\n    /* \"#utility.yul\":6999:7066   */\n  tag_46\n  jump\t// in\ntag_123:\n    /* \"#utility.yul\":6992:7066   */\n  swap2\n  pop\n    /* \"#utility.yul\":7075:7168   */\n  tag_124\n    /* \"#utility.yul\":7164:7167   */\n  dup3\n    /* \"#utility.yul\":7075:7168   */\n  tag_51\n  jump\t// in\ntag_124:\n    /* \"#utility.yul\":7193:7195   */\n  0x20\n    /* \"#utility.yul\":7188:7191   */\n  dup3\n    /* \"#utility.yul\":7184:7196   */\n  add\n    /* \"#utility.yul\":7177:7196   */\n  swap1\n  pop\n    /* \"#utility.yul\":6836:7202   */\n  swap2\n  swap1\n  pop\n  jump\t// out\n    /* \"#utility.yul\":7208:7627   */\ntag_21:\n    /* \"#utility.yul\":7374:7378   */\n  0x00\n    /* \"#utility.yul\":7412:7414   */\n  0x20\n    /* \"#utility.yul\":7401:7410   */\n  dup3\n    /* \"#utility.yul\":7397:7415   */\n  add\n    /* \"#utility.yul\":7389:7415   */\n  swap1\n  pop\n    /* \"#utility.yul\":7461:7470   */\n  dup2\n    /* \"#utility.yul\":7455:7459   */\n  dup2\n    /* \"#utility.yul\":7451:7471   */\n  sub\n    /* \"#utility.yul\":7447:7448   */\n  0x00\n    /* \"#utility.yul\":7436:7445   */\n  dup4\n    /* \"#utility.yul\":7432:7449   */\n  add\n    /* \"#utility.yul\":7425:7472   */\n  mstore\n    /* \"#utility.yul\":7489:7620   */\n  tag_126\n    /* \"#utility.yul\":7615:7619   */\n  dup2\n    /* \"#utility.yul\":7489:7620   */\n  tag_52\n  jump\t// in\ntag_126:\n    /* \"#utility.yul\":7481:7620   */\n  swap1\n  pop\n    /* \"#utility.yul\":7208:7627   */\n  swap2\n  swap1\n  pop\n  jump\t// out\n    /* \"#utility.yul\":7633:7799   */\ntag_53:\n    /* \"#utility.yul\":7773:7791   */\n  0x4f776e6572206e6f7420756e6971756500000000000000000000000000000000\n    /* \"#utility.yul\":7769:7770   */\n  0x00\n    /* \"#utility.yul\":7761:7767   */\n  dup3\n    /* \"#utility.yul\":7757:7771   */\n  add\n    /* \"#utility.yul\":7750:7792   */\n  mstore\n    /* \"#utility.yul\":7633:7799   */\n  pop\n  jump\t// out\n    /* \"#utility.yul\":7805:8171   */\ntag_54:\n    /* \"#utility.yul\":7947:7950   */\n  0x00\n    /* \"#utility.yul\":7968:8035   */\n  tag_129\n    /* \"#utility.yul\":8032:8034   */\n  0x10\n    /* \"#utility.yul\":8027:8030   */\n  dup4\n    /* \"#utility.yul\":7968:8035   */\n  tag_46\n  jump\t// in\ntag_129:\n    /* \"#utility.yul\":7961:8035   */\n  swap2\n  pop\n    /* \"#utility.yul\":8044:8137   */\n  tag_130\n    /* \"#utility.yul\":8133:8136   */\n  dup3\n    /* \"#utility.yul\":8044:8137   */\n  tag_53\n  jump\t// in\ntag_130:\n    /* \"#utility.yul\":8162:8164   */\n  0x20\n    /* \"#utility.yul\":8157:8160   */\n  dup3\n    /* \"#utility.yul\":8153:8165   */\n  add\n    /* \"#utility.yul\":8146:8165   */\n  swap1\n  pop\n    /* \"#utility.yul\":7805:8171   */\n  swap2\n  swap1\n  pop\n  jump\t// out\n    /* \"#utility.yul\":8177:8596   */\ntag_24:\n    /* \"#utility.yul\":8343:8347   */\n  0x00\n    /* \"#utility.yul\":8381:8383   */\n  0x20\n    /* \"#utility.yul\":8370:8379   */\n  dup3\n    /* \"#utility.yul\":8366:8384   */\n  add\n    /* \"#utility.yul\":8358:8384   */\n  swap1\n  pop\n    /* \"#utility.yul\":8430:8439   */\n  dup2\n    /* \"#utility.yul\":8424:8428   */\n  dup2\n    /* \"#utility.yul\":8420:8440   */\n  sub\n    /* \"#utility.yul\":8416:8417   */\n  0x00\n    /* \"#utility.yul\":8405:8414   */\n  dup4\n    /* \"#utility.yul\":8401:8418   */\n  add\n    /* \"#utility.yul\":8394:8441   */\n  mstore\n    /* \"#utility.yul\":8458:8589   */\n  tag_132\n    /* \"#utility.yul\":8584:8588   */\n  dup2\n    /* \"#utility.yul\":8458:8589   */\n  tag_54\n  jump\t// in\ntag_132:\n    /* \"#utility.yul\":8450:8589   */\n  swap1\n  pop\n    /* \"#utility.yul\":8177:8596   */\n  swap2\n  swap1\n  pop\n  jump\t// out\n    /* \"lesson3/MultiSign.sol\":60:3569  contract MultiSign{... */\ntag_26:\n  dataSize(sub_0)\n  dup1\n  dataOffset(sub_0)\n  0x00\n  codecopy\n  0x00\n  return\nstop\n\nsub_0: assembly {\n        /* \"lesson3/MultiSign.sol\":60:3569  contract MultiSign{... */\n      mstore(0x40, 0x80)\n      jumpi(tag_1, lt(calldatasize, 0x04))\n      shr(0xe0, calldataload(0x00))\n      dup1\n      0xc01a8c84\n      gt\n      tag_11\n      jumpi\n      dup1\n      0xc01a8c84\n      eq\n      tag_7\n      jumpi\n      dup1\n      0xc6427474\n      eq\n      tag_8\n      jumpi\n      dup1\n      0xdc8452cd\n      eq\n      tag_9\n      jumpi\n      dup1\n      0xee22610b\n      eq\n      tag_10\n      jumpi\n      jump(tag_2)\n    tag_11:\n      dup1\n      0x025e7c27\n      eq\n      tag_3\n      jumpi\n      dup1\n      0x2f54bf6e\n      eq\n      tag_4\n      jumpi\n      dup1\n      0x80f59a65\n      eq\n      tag_5\n      jumpi\n      dup1\n      0x9ace38c2\n      eq\n      tag_6\n      jumpi\n      jump(tag_2)\n    tag_1:\n      jumpi(tag_2, calldatasize)\n      stop\n    tag_2:\n      revert(0x00, 0x00)\n        /* \"lesson3/MultiSign.sol\":521:544  address[] public owners */\n    tag_3:\n      callvalue\n      dup1\n      iszero\n      tag_14\n      jumpi\n      revert(0x00, 0x00)\n    tag_14:\n      pop\n      tag_15\n      0x04\n      dup1\n      calldatasize\n      sub\n      dup2\n      add\n      swap1\n      tag_16\n      swap2\n      swap1\n      tag_17\n      jump\t// in\n    tag_16:\n      tag_18\n      jump\t// in\n    tag_15:\n      mload(0x40)\n      tag_19\n      swap2\n      swap1\n      tag_20\n      jump\t// in\n    tag_19:\n      mload(0x40)\n      dup1\n      swap2\n      sub\n      swap1\n      return\n        /* \"lesson3/MultiSign.sol\":577:616  mapping(address => bool) public isOwner */\n    tag_4:\n      callvalue\n      dup1\n      iszero\n      tag_21\n      jumpi\n      revert(0x00, 0x00)\n    tag_21:\n      pop\n      tag_22\n      0x04\n      dup1\n      calldatasize\n      sub\n      dup2\n      add\n      swap1\n      tag_23\n      swap2\n      swap1\n      tag_24\n      jump\t// in\n    tag_23:\n      tag_25\n      jump\t// in\n    tag_22:\n      mload(0x40)\n      tag_26\n      swap2\n      swap1\n      tag_27\n      jump\t// in\n    tag_26:\n      mload(0x40)\n      dup1\n      swap2\n      sub\n      swap1\n      return\n        /* \"lesson3/MultiSign.sol\":1022:1082  mapping(uint => mapping(address => bool)) public isConfirmed */\n    tag_5:\n      callvalue\n      dup1\n      iszero\n      tag_28\n      jumpi\n      revert(0x00, 0x00)\n    tag_28:\n      pop\n      tag_29\n      0x04\n      dup1\n      calldatasize\n      sub\n      dup2\n      add\n      swap1\n      tag_30\n      swap2\n      swap1\n      tag_31\n      jump\t// in\n    tag_30:\n      tag_32\n      jump\t// in\n    tag_29:\n      mload(0x40)\n      tag_33\n      swap2\n      swap1\n      tag_27\n      jump\t// in\n    tag_33:\n      mload(0x40)\n      dup1\n      swap2\n      sub\n      swap1\n      return\n        /* \"lesson3/MultiSign.sol\":932:965  Transaction[] public transactions */\n    tag_6:\n      callvalue\n      dup1\n      iszero\n      tag_34\n      jumpi\n      revert(0x00, 0x00)\n    tag_34:\n      pop\n      tag_35\n      0x04\n      dup1\n      calldatasize\n      sub\n      dup2\n      add\n      swap1\n      tag_36\n      swap2\n      swap1\n      tag_17\n      jump\t// in\n    tag_36:\n      tag_37\n      jump\t// in\n    tag_35:\n      mload(0x40)\n      tag_38\n      swap6\n      swap5\n      swap4\n      swap3\n      swap2\n      swap1\n      tag_39\n      jump\t// in\n    tag_38:\n      mload(0x40)\n      dup1\n      swap2\n      sub\n      swap1\n      return\n        /* \"lesson3/MultiSign.sol\":2700:3047  function confirmTransaction(uint _txIndex) public onlyOwner txExists(_txIndex) noExecuted(_txIndex) noConfirmed(_txIndex){... */\n    tag_7:\n      callvalue\n      dup1\n      iszero\n      tag_40\n      jumpi\n      revert(0x00, 0x00)\n    tag_40:\n      pop\n      tag_41\n      0x04\n      dup1\n      calldatasize\n      sub\n      dup2\n      add\n      swap1\n      tag_42\n      swap2\n      swap1\n      tag_17\n      jump\t// in\n    tag_42:\n      tag_43\n      jump\t// in\n    tag_41:\n      stop\n        /* \"lesson3/MultiSign.sol\":2293:2692  function submitTransaction(address _to,uint _value,bytes memory _data) public onlyOwner{... */\n    tag_8:\n      callvalue\n      dup1\n      iszero\n      tag_44\n      jumpi\n      revert(0x00, 0x00)\n    tag_44:\n      pop\n      tag_45\n      0x04\n      dup1\n      calldatasize\n      sub\n      dup2\n      add\n      swap1\n      tag_46\n      swap2\n      swap1\n      tag_47\n      jump\t// in\n    tag_46:\n      tag_48\n      jump\t// in\n    tag_45:\n      stop\n        /* \"lesson3/MultiSign.sol\":661:681  uint public required */\n    tag_9:\n      callvalue\n      dup1\n      iszero\n      tag_49\n      jumpi\n      revert(0x00, 0x00)\n    tag_49:\n      pop\n      tag_50\n      tag_51\n      jump\t// in\n    tag_50:\n      mload(0x40)\n      tag_52\n      swap2\n      swap1\n      tag_53\n      jump\t// in\n    tag_52:\n      mload(0x40)\n      dup1\n      swap2\n      sub\n      swap1\n      return\n        /* \"lesson3/MultiSign.sol\":3055:3566  function executeTransaction(uint _txIndex) public onlyOwner txExists(_txIndex) noExecuted(_txIndex){... */\n    tag_10:\n      callvalue\n      dup1\n      iszero\n      tag_54\n      jumpi\n      revert(0x00, 0x00)\n    tag_54:\n      pop\n      tag_55\n      0x04\n      dup1\n      calldatasize\n      sub\n      dup2\n      add\n      swap1\n      tag_56\n      swap2\n      swap1\n      tag_17\n      jump\t// in\n    tag_56:\n      tag_57\n      jump\t// in\n    tag_55:\n      stop\n        /* \"lesson3/MultiSign.sol\":521:544  address[] public owners */\n    tag_18:\n      0x00\n      dup2\n      dup2\n      sload\n      dup2\n      lt\n      tag_58\n      jumpi\n      0x00\n      dup1\n      revert\n    tag_58:\n      swap1\n      0x00\n      mstore\n      keccak256(0x00, 0x20)\n      add\n      0x00\n      swap2\n      pop\n      sload\n      swap1\n      0x0100\n      exp\n      swap1\n      div\n      0xffffffffffffffffffffffffffffffffffffffff\n      and\n      dup2\n      jump\t// out\n        /* \"lesson3/MultiSign.sol\":577:616  mapping(address => bool) public isOwner */\n    tag_25:\n      mstore(0x20, 0x01)\n      dup1\n      0x00\n      mstore\n      keccak256(0x00, 0x40)\n      0x00\n      swap2\n      pop\n      sload\n      swap1\n      0x0100\n      exp\n      swap1\n      div\n      0xff\n      and\n      dup2\n      jump\t// out\n        /* \"lesson3/MultiSign.sol\":1022:1082  mapping(uint => mapping(address => bool)) public isConfirmed */\n    tag_32:\n      mstore(0x20, 0x04)\n      dup2\n      0x00\n      mstore\n      mstore(0x20, keccak256(0x00, 0x40))\n      dup1\n      0x00\n      mstore\n      keccak256(0x00, 0x40)\n      0x00\n      swap2\n      pop\n      swap2\n      pop\n      swap1\n      sload\n      swap1\n      0x0100\n      exp\n      swap1\n      div\n      0xff\n      and\n      dup2\n      jump\t// out\n        /* \"lesson3/MultiSign.sol\":932:965  Transaction[] public transactions */\n    tag_37:\n      0x03\n      dup2\n      dup2\n      sload\n      dup2\n      lt\n      tag_60\n      jumpi\n      0x00\n      dup1\n      revert\n    tag_60:\n      swap1\n      0x00\n      mstore\n      keccak256(0x00, 0x20)\n      swap1\n      0x05\n      mul\n      add\n      0x00\n      swap2\n      pop\n      swap1\n      pop\n      dup1\n      0x00\n      add\n      0x00\n      swap1\n      sload\n      swap1\n      0x0100\n      exp\n      swap1\n      div\n      0xffffffffffffffffffffffffffffffffffffffff\n      and\n      swap1\n      dup1\n      0x01\n      add\n      sload\n      swap1\n      dup1\n      0x02\n      add\n      dup1\n      sload\n      tag_62\n      swap1\n      tag_63\n      jump\t// in\n    tag_62:\n      dup1\n      0x1f\n      add\n      0x20\n      dup1\n      swap2\n      div\n      mul\n      0x20\n      add\n      mload(0x40)\n      swap1\n      dup2\n      add\n      0x40\n      mstore\n      dup1\n      swap3\n      swap2\n      swap1\n      dup2\n      dup2\n      mstore\n      0x20\n      add\n      dup3\n      dup1\n      sload\n      tag_64\n      swap1\n      tag_63\n      jump\t// in\n    tag_64:\n      dup1\n      iszero\n      tag_65\n      jumpi\n      dup1\n      0x1f\n      lt\n      tag_66\n      jumpi\n      0x0100\n      dup1\n      dup4\n      sload\n      div\n      mul\n      dup4\n      mstore\n      swap2\n      0x20\n      add\n      swap2\n      jump(tag_65)\n    tag_66:\n      dup3\n      add\n      swap2\n      swap1\n      0x00\n      mstore\n      keccak256(0x00, 0x20)\n      swap1\n    tag_67:\n      dup2\n      sload\n      dup2\n      mstore\n      swap1\n      0x01\n      add\n      swap1\n      0x20\n      add\n      dup1\n      dup4\n      gt\n      tag_67\n      jumpi\n      dup3\n      swap1\n      sub\n      0x1f\n      and\n      dup3\n      add\n      swap2\n    tag_65:\n      pop\n      pop\n      pop\n      pop\n      pop\n      swap1\n      dup1\n      0x03\n      add\n      0x00\n      swap1\n      sload\n      swap1\n      0x0100\n      exp\n      swap1\n      div\n      0xff\n      and\n      swap1\n      dup1\n      0x04\n      add\n      sload\n      swap1\n      pop\n      dup6\n      jump\t// out\n        /* \"lesson3/MultiSign.sol\":2700:3047  function confirmTransaction(uint _txIndex) public onlyOwner txExists(_txIndex) noExecuted(_txIndex) noConfirmed(_txIndex){... */\n    tag_43:\n        /* \"lesson3/MultiSign.sol\":1130:1137  isOwner */\n      0x01\n        /* \"lesson3/MultiSign.sol\":1130:1149  isOwner[msg.sender] */\n      0x00\n        /* \"lesson3/MultiSign.sol\":1138:1148  msg.sender */\n      caller\n        /* \"lesson3/MultiSign.sol\":1130:1149  isOwner[msg.sender] */\n      0xffffffffffffffffffffffffffffffffffffffff\n      and\n      0xffffffffffffffffffffffffffffffffffffffff\n      and\n      dup2\n      mstore\n      0x20\n      add\n      swap1\n      dup2\n      mstore\n      0x20\n      add\n      0x00\n      keccak256\n      0x00\n      swap1\n      sload\n      swap1\n      0x0100\n      exp\n      swap1\n      div\n      0xff\n      and\n        /* \"lesson3/MultiSign.sol\":1122:1162  require(isOwner[msg.sender],\"Not owner\") */\n      tag_69\n      jumpi\n      mload(0x40)\n      0x08c379a000000000000000000000000000000000000000000000000000000000\n      dup2\n      mstore\n      0x04\n      add\n      tag_70\n      swap1\n      tag_71\n      jump\t// in\n    tag_70:\n      mload(0x40)\n      dup1\n      swap2\n      sub\n      swap1\n      revert\n    tag_69:\n        /* \"lesson3/MultiSign.sol\":2769:2777  _txIndex */\n      dup1\n        /* \"lesson3/MultiSign.sol\":1282:1294  transactions */\n      0x03\n        /* \"lesson3/MultiSign.sol\":1282:1301  transactions.length */\n      dup1\n      sload\n      swap1\n      pop\n        /* \"lesson3/MultiSign.sol\":1271:1279  _txIndex */\n      dup2\n        /* \"lesson3/MultiSign.sol\":1271:1301  _txIndex < transactions.length */\n      lt\n        /* \"lesson3/MultiSign.sol\":1263:1328  require(_txIndex < transactions.length,\"Transactions not exists\") */\n      tag_73\n      jumpi\n      mload(0x40)\n      0x08c379a000000000000000000000000000000000000000000000000000000000\n      dup2\n      mstore\n      0x04\n      add\n      tag_74\n      swap1\n      tag_75\n      jump\t// in\n    tag_74:\n      mload(0x40)\n      dup1\n      swap2\n      sub\n      swap1\n      revert\n    tag_73:\n        /* \"lesson3/MultiSign.sol\":2790:2798  _txIndex */\n      dup2\n        /* \"lesson3/MultiSign.sol\":1437:1449  transactions */\n      0x03\n        /* \"lesson3/MultiSign.sol\":1450:1458  _txIndex */\n      dup2\n        /* \"lesson3/MultiSign.sol\":1437:1459  transactions[_txIndex] */\n      dup2\n      sload\n      dup2\n      lt\n      tag_77\n      jumpi\n      tag_78\n      tag_79\n      jump\t// in\n    tag_78:\n    tag_77:\n      swap1\n      0x00\n      mstore\n      keccak256(0x00, 0x20)\n      swap1\n      0x05\n      mul\n      add\n        /* \"lesson3/MultiSign.sol\":1437:1468  transactions[_txIndex].executed */\n      0x03\n      add\n      0x00\n      swap1\n      sload\n      swap1\n      0x0100\n      exp\n      swap1\n      div\n      0xff\n      and\n        /* \"lesson3/MultiSign.sol\":1436:1468  !transactions[_txIndex].executed */\n      iszero\n        /* \"lesson3/MultiSign.sol\":1428:1501  require(!transactions[_txIndex].executed,\"Transactions already executed\") */\n      tag_81\n      jumpi\n      mload(0x40)\n      0x08c379a000000000000000000000000000000000000000000000000000000000\n      dup2\n      mstore\n      0x04\n      add\n      tag_82\n      swap1\n      tag_83\n      jump\t// in\n    tag_82:\n      mload(0x40)\n      dup1\n      swap2\n      sub\n      swap1\n      revert\n    tag_81:\n        /* \"lesson3/MultiSign.sol\":2812:2820  _txIndex */\n      dup3\n        /* \"lesson3/MultiSign.sol\":1582:1593  isConfirmed */\n      0x04\n        /* \"lesson3/MultiSign.sol\":1582:1603  isConfirmed[_txIndex] */\n      0x00\n        /* \"lesson3/MultiSign.sol\":1594:1602  _txIndex */\n      dup3\n        /* \"lesson3/MultiSign.sol\":1582:1603  isConfirmed[_txIndex] */\n      dup2\n      mstore\n      0x20\n      add\n      swap1\n      dup2\n      mstore\n      0x20\n      add\n      0x00\n      keccak256\n        /* \"lesson3/MultiSign.sol\":1582:1615  isConfirmed[_txIndex][msg.sender] */\n      0x00\n        /* \"lesson3/MultiSign.sol\":1604:1614  msg.sender */\n      caller\n        /* \"lesson3/MultiSign.sol\":1582:1615  isConfirmed[_txIndex][msg.sender] */\n      0xffffffffffffffffffffffffffffffffffffffff\n      and\n      0xffffffffffffffffffffffffffffffffffffffff\n      and\n      dup2\n      mstore\n      0x20\n      add\n      swap1\n      dup2\n      mstore\n      0x20\n      add\n      0x00\n      keccak256\n      0x00\n      swap1\n      sload\n      swap1\n      0x0100\n      exp\n      swap1\n      div\n      0xff\n      and\n        /* \"lesson3/MultiSign.sol\":1581:1615  !isConfirmed[_txIndex][msg.sender] */\n      iszero\n        /* \"lesson3/MultiSign.sol\":1573:1649  require(!isConfirmed[_txIndex][msg.sender],\"Transactions already confirmed\") */\n      tag_85\n      jumpi\n      mload(0x40)\n      0x08c379a000000000000000000000000000000000000000000000000000000000\n      dup2\n      mstore\n      0x04\n      add\n      tag_86\n      swap1\n      tag_87\n      jump\t// in\n    tag_86:\n      mload(0x40)\n      dup1\n      swap2\n      sub\n      swap1\n      revert\n    tag_85:\n        /* \"lesson3/MultiSign.sol\":2832:2863  Transaction storage transaction */\n      0x00\n        /* \"lesson3/MultiSign.sol\":2866:2878  transactions */\n      0x03\n        /* \"lesson3/MultiSign.sol\":2879:2887  _txIndex */\n      dup6\n        /* \"lesson3/MultiSign.sol\":2866:2888  transactions[_txIndex] */\n      dup2\n      sload\n      dup2\n      lt\n      tag_89\n      jumpi\n      tag_90\n      tag_79\n      jump\t// in\n    tag_90:\n    tag_89:\n      swap1\n      0x00\n      mstore\n      keccak256(0x00, 0x20)\n      swap1\n      0x05\n      mul\n      add\n        /* \"lesson3/MultiSign.sol\":2832:2888  Transaction storage transaction = transactions[_txIndex] */\n      swap1\n      pop\n        /* \"lesson3/MultiSign.sol\":2931:2932  1 */\n      0x01\n        /* \"lesson3/MultiSign.sol\":2899:2910  transaction */\n      dup2\n        /* \"lesson3/MultiSign.sol\":2899:2927  transaction.numConfirmations */\n      0x04\n      add\n      0x00\n        /* \"lesson3/MultiSign.sol\":2899:2932  transaction.numConfirmations += 1 */\n      dup3\n      dup3\n      sload\n      tag_92\n      swap2\n      swap1\n      tag_93\n      jump\t// in\n    tag_92:\n      swap3\n      pop\n      pop\n      dup2\n      swap1\n      sstore\n      pop\n        /* \"lesson3/MultiSign.sol\":2979:2983  true */\n      0x01\n        /* \"lesson3/MultiSign.sol\":2943:2954  isConfirmed */\n      0x04\n        /* \"lesson3/MultiSign.sol\":2943:2964  isConfirmed[_txIndex] */\n      0x00\n        /* \"lesson3/MultiSign.sol\":2955:2963  _txIndex */\n      dup8\n        /* \"lesson3/MultiSign.sol\":2943:2964  isConfirmed[_txIndex] */\n      dup2\n      mstore\n      0x20\n      add\n      swap1\n      dup2\n      mstore\n      0x20\n      add\n      0x00\n      keccak256\n        /* \"lesson3/MultiSign.sol\":2943:2976  isConfirmed[_txIndex][msg.sender] */\n      0x00\n        /* \"lesson3/MultiSign.sol\":2965:2975  msg.sender */\n      caller\n        /* \"lesson3/MultiSign.sol\":2943:2976  isConfirmed[_txIndex][msg.sender] */\n      0xffffffffffffffffffffffffffffffffffffffff\n      and\n      0xffffffffffffffffffffffffffffffffffffffff\n      and\n      dup2\n      mstore\n      0x20\n      add\n      swap1\n      dup2\n      mstore\n      0x20\n      add\n      0x00\n      keccak256\n      0x00\n        /* \"lesson3/MultiSign.sol\":2943:2983  isConfirmed[_txIndex][msg.sender] = true */\n      0x0100\n      exp\n      dup2\n      sload\n      dup2\n      0xff\n      mul\n      not\n      and\n      swap1\n      dup4\n      iszero\n      iszero\n      mul\n      or\n      swap1\n      sstore\n      pop\n        /* \"lesson3/MultiSign.sol\":3030:3038  _txIndex */\n      dup5\n        /* \"lesson3/MultiSign.sol\":3018:3028  msg.sender */\n      caller\n        /* \"lesson3/MultiSign.sol\":2999:3039  ConfirmTransaction(msg.sender, _txIndex) */\n      0xffffffffffffffffffffffffffffffffffffffff\n      and\n      0x5cbe105e36805f7820e291f799d5794ff948af2a5f664e580382defb63390041\n      mload(0x40)\n      mload(0x40)\n      dup1\n      swap2\n      sub\n      swap1\n      log3\n        /* \"lesson3/MultiSign.sol\":2821:3047  {... */\n      pop\n        /* \"lesson3/MultiSign.sol\":1512:1513  _ */\n      pop\n        /* \"lesson3/MultiSign.sol\":1339:1340  _ */\n      pop\n        /* \"lesson3/MultiSign.sol\":1173:1174  _ */\n      pop\n        /* \"lesson3/MultiSign.sol\":2700:3047  function confirmTransaction(uint _txIndex) public onlyOwner txExists(_txIndex) noExecuted(_txIndex) noConfirmed(_txIndex){... */\n      pop\n      jump\t// out\n        /* \"lesson3/MultiSign.sol\":2293:2692  function submitTransaction(address _to,uint _value,bytes memory _data) public onlyOwner{... */\n    tag_48:\n        /* \"lesson3/MultiSign.sol\":1130:1137  isOwner */\n      0x01\n        /* \"lesson3/MultiSign.sol\":1130:1149  isOwner[msg.sender] */\n      0x00\n        /* \"lesson3/MultiSign.sol\":1138:1148  msg.sender */\n      caller\n        /* \"lesson3/MultiSign.sol\":1130:1149  isOwner[msg.sender] */\n      0xffffffffffffffffffffffffffffffffffffffff\n      and\n      0xffffffffffffffffffffffffffffffffffffffff\n      and\n      dup2\n      mstore\n      0x20\n      add\n      swap1\n      dup2\n      mstore\n      0x20\n      add\n      0x00\n      keccak256\n      0x00\n      swap1\n      sload\n      swap1\n      0x0100\n      exp\n      swap1\n      div\n      0xff\n      and\n        /* \"lesson3/MultiSign.sol\":1122:1162  require(isOwner[msg.sender],\"Not owner\") */\n      tag_95\n      jumpi\n      mload(0x40)\n      0x08c379a000000000000000000000000000000000000000000000000000000000\n      dup2\n      mstore\n      0x04\n      add\n      tag_96\n      swap1\n      tag_71\n      jump\t// in\n    tag_96:\n      mload(0x40)\n      dup1\n      swap2\n      sub\n      swap1\n      revert\n    tag_95:\n        /* \"lesson3/MultiSign.sol\":2391:2403  uint txIndex */\n      0x00\n        /* \"lesson3/MultiSign.sol\":2406:2418  transactions */\n      0x03\n        /* \"lesson3/MultiSign.sol\":2406:2425  transactions.length */\n      dup1\n      sload\n      swap1\n      pop\n        /* \"lesson3/MultiSign.sol\":2391:2425  uint txIndex = transactions.length */\n      swap1\n      pop\n        /* \"lesson3/MultiSign.sol\":2436:2448  transactions */\n      0x03\n        /* \"lesson3/MultiSign.sol\":2454:2613  Transaction({... */\n      mload(0x40)\n      dup1\n      0xa0\n      add\n      0x40\n      mstore\n      dup1\n        /* \"lesson3/MultiSign.sol\":2484:2487  _to */\n      dup7\n        /* \"lesson3/MultiSign.sol\":2454:2613  Transaction({... */\n      0xffffffffffffffffffffffffffffffffffffffff\n      and\n      dup2\n      mstore\n      0x20\n      add\n        /* \"lesson3/MultiSign.sol\":2508:2514  _value */\n      dup6\n        /* \"lesson3/MultiSign.sol\":2454:2613  Transaction({... */\n      dup2\n      mstore\n      0x20\n      add\n        /* \"lesson3/MultiSign.sol\":2534:2539  _data */\n      dup5\n        /* \"lesson3/MultiSign.sol\":2454:2613  Transaction({... */\n      dup2\n      mstore\n      0x20\n      add\n        /* \"lesson3/MultiSign.sol\":2563:2568  false */\n      0x00\n        /* \"lesson3/MultiSign.sol\":2454:2613  Transaction({... */\n      iszero\n      iszero\n      dup2\n      mstore\n      0x20\n      add\n        /* \"lesson3/MultiSign.sol\":2600:2601  0 */\n      0x00\n        /* \"lesson3/MultiSign.sol\":2454:2613  Transaction({... */\n      dup2\n      mstore\n      pop\n        /* \"lesson3/MultiSign.sol\":2436:2614  transactions.push(Transaction({... */\n      swap1\n      dup1\n      0x01\n      dup2\n      sload\n      add\n      dup1\n      dup3\n      sstore\n      dup1\n      swap2\n      pop\n      pop\n      0x01\n      swap1\n      sub\n      swap1\n      0x00\n      mstore\n      keccak256(0x00, 0x20)\n      swap1\n      0x05\n      mul\n      add\n      0x00\n      swap1\n      swap2\n      swap1\n      swap2\n      swap1\n      swap2\n      pop\n      0x00\n      dup3\n      add\n      mload\n      dup2\n      0x00\n      add\n      exp(0x0100, 0x00)\n      dup2\n      sload\n      dup2\n      0xffffffffffffffffffffffffffffffffffffffff\n      mul\n      not\n      and\n      swap1\n      dup4\n      0xffffffffffffffffffffffffffffffffffffffff\n      and\n      mul\n      or\n      swap1\n      sstore\n      pop\n      0x20\n      dup3\n      add\n      mload\n      dup2\n      0x01\n      add\n      sstore\n      0x40\n      dup3\n      add\n      mload\n      dup2\n      0x02\n      add\n      swap1\n      dup2\n      tag_99\n      swap2\n      swap1\n      tag_100\n      jump\t// in\n    tag_99:\n      pop\n      0x60\n      dup3\n      add\n      mload\n      dup2\n      0x03\n      add\n      exp(0x0100, 0x00)\n      dup2\n      sload\n      dup2\n      0xff\n      mul\n      not\n      and\n      swap1\n      dup4\n      iszero\n      iszero\n      mul\n      or\n      swap1\n      sstore\n      pop\n      0x80\n      dup3\n      add\n      mload\n      dup2\n      0x04\n      add\n      sstore\n      pop\n      pop\n        /* \"lesson3/MultiSign.sol\":2659:2666  txIndex */\n      dup1\n        /* \"lesson3/MultiSign.sol\":2648:2658  msg.sender */\n      caller\n        /* \"lesson3/MultiSign.sol\":2630:2684  SubmitTransaction(msg.sender,txIndex,_to,_value,_data) */\n      0xffffffffffffffffffffffffffffffffffffffff\n      and\n      0xd5a05bf70715ad82a09a756320284a1b54c9ff74cd0f8cce6219e79b563fe59d\n        /* \"lesson3/MultiSign.sol\":2667:2670  _to */\n      dup7\n        /* \"lesson3/MultiSign.sol\":2671:2677  _value */\n      dup7\n        /* \"lesson3/MultiSign.sol\":2678:2683  _data */\n      dup7\n        /* \"lesson3/MultiSign.sol\":2630:2684  SubmitTransaction(msg.sender,txIndex,_to,_value,_data) */\n      mload(0x40)\n      tag_101\n      swap4\n      swap3\n      swap2\n      swap1\n      tag_102\n      jump\t// in\n    tag_101:\n      mload(0x40)\n      dup1\n      swap2\n      sub\n      swap1\n      log3\n        /* \"lesson3/MultiSign.sol\":2380:2692  {... */\n      pop\n        /* \"lesson3/MultiSign.sol\":2293:2692  function submitTransaction(address _to,uint _value,bytes memory _data) public onlyOwner{... */\n      pop\n      pop\n      pop\n      jump\t// out\n        /* \"lesson3/MultiSign.sol\":661:681  uint public required */\n    tag_51:\n      sload(0x02)\n      dup2\n      jump\t// out\n        /* \"lesson3/MultiSign.sol\":3055:3566  function executeTransaction(uint _txIndex) public onlyOwner txExists(_txIndex) noExecuted(_txIndex){... */\n    tag_57:\n        /* \"lesson3/MultiSign.sol\":1130:1137  isOwner */\n      0x01\n        /* \"lesson3/MultiSign.sol\":1130:1149  isOwner[msg.sender] */\n      0x00\n        /* \"lesson3/MultiSign.sol\":1138:1148  msg.sender */\n      caller\n        /* \"lesson3/MultiSign.sol\":1130:1149  isOwner[msg.sender] */\n      0xffffffffffffffffffffffffffffffffffffffff\n      and\n      0xffffffffffffffffffffffffffffffffffffffff\n      and\n      dup2\n      mstore\n      0x20\n      add\n      swap1\n      dup2\n      mstore\n      0x20\n      add\n      0x00\n      keccak256\n      0x00\n      swap1\n      sload\n      swap1\n      0x0100\n      exp\n      swap1\n      div\n      0xff\n      and\n        /* \"lesson3/MultiSign.sol\":1122:1162  require(isOwner[msg.sender],\"Not owner\") */\n      tag_104\n      jumpi\n      mload(0x40)\n      0x08c379a000000000000000000000000000000000000000000000000000000000\n      dup2\n      mstore\n      0x04\n      add\n      tag_105\n      swap1\n      tag_71\n      jump\t// in\n    tag_105:\n      mload(0x40)\n      dup1\n      swap2\n      sub\n      swap1\n      revert\n    tag_104:\n        /* \"lesson3/MultiSign.sol\":3124:3132  _txIndex */\n      dup1\n        /* \"lesson3/MultiSign.sol\":1282:1294  transactions */\n      0x03\n        /* \"lesson3/MultiSign.sol\":1282:1301  transactions.length */\n      dup1\n      sload\n      swap1\n      pop\n        /* \"lesson3/MultiSign.sol\":1271:1279  _txIndex */\n      dup2\n        /* \"lesson3/MultiSign.sol\":1271:1301  _txIndex < transactions.length */\n      lt\n        /* \"lesson3/MultiSign.sol\":1263:1328  require(_txIndex < transactions.length,\"Transactions not exists\") */\n      tag_107\n      jumpi\n      mload(0x40)\n      0x08c379a000000000000000000000000000000000000000000000000000000000\n      dup2\n      mstore\n      0x04\n      add\n      tag_108\n      swap1\n      tag_75\n      jump\t// in\n    tag_108:\n      mload(0x40)\n      dup1\n      swap2\n      sub\n      swap1\n      revert\n    tag_107:\n        /* \"lesson3/MultiSign.sol\":3145:3153  _txIndex */\n      dup2\n        /* \"lesson3/MultiSign.sol\":1437:1449  transactions */\n      0x03\n        /* \"lesson3/MultiSign.sol\":1450:1458  _txIndex */\n      dup2\n        /* \"lesson3/MultiSign.sol\":1437:1459  transactions[_txIndex] */\n      dup2\n      sload\n      dup2\n      lt\n      tag_110\n      jumpi\n      tag_111\n      tag_79\n      jump\t// in\n    tag_111:\n    tag_110:\n      swap1\n      0x00\n      mstore\n      keccak256(0x00, 0x20)\n      swap1\n      0x05\n      mul\n      add\n        /* \"lesson3/MultiSign.sol\":1437:1468  transactions[_txIndex].executed */\n      0x03\n      add\n      0x00\n      swap1\n      sload\n      swap1\n      0x0100\n      exp\n      swap1\n      div\n      0xff\n      and\n        /* \"lesson3/MultiSign.sol\":1436:1468  !transactions[_txIndex].executed */\n      iszero\n        /* \"lesson3/MultiSign.sol\":1428:1501  require(!transactions[_txIndex].executed,\"Transactions already executed\") */\n      tag_113\n      jumpi\n      mload(0x40)\n      0x08c379a000000000000000000000000000000000000000000000000000000000\n      dup2\n      mstore\n      0x04\n      add\n      tag_114\n      swap1\n      tag_83\n      jump\t// in\n    tag_114:\n      mload(0x40)\n      dup1\n      swap2\n      sub\n      swap1\n      revert\n    tag_113:\n        /* \"lesson3/MultiSign.sol\":3165:3196  Transaction storage transaction */\n      0x00\n        /* \"lesson3/MultiSign.sol\":3199:3211  transactions */\n      0x03\n        /* \"lesson3/MultiSign.sol\":3212:3220  _txIndex */\n      dup5\n        /* \"lesson3/MultiSign.sol\":3199:3221  transactions[_txIndex] */\n      dup2\n      sload\n      dup2\n      lt\n      tag_116\n      jumpi\n      tag_117\n      tag_79\n      jump\t// in\n    tag_117:\n    tag_116:\n      swap1\n      0x00\n      mstore\n      keccak256(0x00, 0x20)\n      swap1\n      0x05\n      mul\n      add\n        /* \"lesson3/MultiSign.sol\":3165:3221  Transaction storage transaction = transactions[_txIndex] */\n      swap1\n      pop\n        /* \"lesson3/MultiSign.sol\":3272:3280  required */\n      sload(0x02)\n        /* \"lesson3/MultiSign.sol\":3240:3251  transaction */\n      dup2\n        /* \"lesson3/MultiSign.sol\":3240:3268  transaction.numConfirmations */\n      0x04\n      add\n      sload\n        /* \"lesson3/MultiSign.sol\":3240:3280  transaction.numConfirmations >= required */\n      lt\n      iszero\n        /* \"lesson3/MultiSign.sol\":3232:3325  require(transaction.numConfirmations >= required ,\"Cannot execute: not enough confirmations\") */\n      tag_119\n      jumpi\n      mload(0x40)\n      0x08c379a000000000000000000000000000000000000000000000000000000000\n      dup2\n      mstore\n      0x04\n      add\n      tag_120\n      swap1\n      tag_121\n      jump\t// in\n    tag_120:\n      mload(0x40)\n      dup1\n      swap2\n      sub\n      swap1\n      revert\n    tag_119:\n        /* \"lesson3/MultiSign.sol\":3359:3363  true */\n      0x01\n        /* \"lesson3/MultiSign.sol\":3336:3347  transaction */\n      dup2\n        /* \"lesson3/MultiSign.sol\":3336:3356  transaction.executed */\n      0x03\n      add\n      0x00\n        /* \"lesson3/MultiSign.sol\":3336:3363  transaction.executed = true */\n      0x0100\n      exp\n      dup2\n      sload\n      dup2\n      0xff\n      mul\n      not\n      and\n      swap1\n      dup4\n      iszero\n      iszero\n      mul\n      or\n      swap1\n      sstore\n      pop\n        /* \"lesson3/MultiSign.sol\":3375:3387  bool success */\n      0x00\n        /* \"lesson3/MultiSign.sol\":3392:3403  transaction */\n      dup2\n        /* \"lesson3/MultiSign.sol\":3392:3406  transaction.to */\n      0x00\n      add\n      0x00\n      swap1\n      sload\n      swap1\n      0x0100\n      exp\n      swap1\n      div\n      0xffffffffffffffffffffffffffffffffffffffff\n      and\n        /* \"lesson3/MultiSign.sol\":3392:3411  transaction.to.call */\n      0xffffffffffffffffffffffffffffffffffffffff\n      and\n        /* \"lesson3/MultiSign.sol\":3418:3429  transaction */\n      dup3\n        /* \"lesson3/MultiSign.sol\":3418:3435  transaction.value */\n      0x01\n      add\n      sload\n        /* \"lesson3/MultiSign.sol\":3437:3448  transaction */\n      dup4\n        /* \"lesson3/MultiSign.sol\":3437:3453  transaction.data */\n      0x02\n      add\n        /* \"lesson3/MultiSign.sol\":3392:3454  transaction.to.call{value:transaction.value}(transaction.data) */\n      mload(0x40)\n      tag_122\n      swap2\n      swap1\n      tag_123\n      jump\t// in\n    tag_122:\n      0x00\n      mload(0x40)\n      dup1\n      dup4\n      sub\n      dup2\n      dup6\n      dup8\n      gas\n      call\n      swap3\n      pop\n      pop\n      pop\n      returndatasize\n      dup1\n      0x00\n      dup2\n      eq\n      tag_126\n      jumpi\n      mload(0x40)\n      swap2\n      pop\n      and(add(returndatasize, 0x3f), not(0x1f))\n      dup3\n      add\n      0x40\n      mstore\n      returndatasize\n      dup3\n      mstore\n      returndatasize\n      0x00\n      0x20\n      dup5\n      add\n      returndatacopy\n      jump(tag_125)\n    tag_126:\n      0x60\n      swap2\n      pop\n    tag_125:\n      pop\n        /* \"lesson3/MultiSign.sol\":3374:3454  (bool success,) = transaction.to.call{value:transaction.value}(transaction.data) */\n      pop\n      swap1\n      pop\n        /* \"lesson3/MultiSign.sol\":3473:3480  success */\n      dup1\n        /* \"lesson3/MultiSign.sol\":3465:3502  require(success,\"Transaction failed\") */\n      tag_127\n      jumpi\n      mload(0x40)\n      0x08c379a000000000000000000000000000000000000000000000000000000000\n      dup2\n      mstore\n      0x04\n      add\n      tag_128\n      swap1\n      tag_129\n      jump\t// in\n    tag_128:\n      mload(0x40)\n      dup1\n      swap2\n      sub\n      swap1\n      revert\n    tag_127:\n        /* \"lesson3/MultiSign.sol\":3549:3557  _txIndex */\n      dup5\n        /* \"lesson3/MultiSign.sol\":3537:3547  msg.sender */\n      caller\n        /* \"lesson3/MultiSign.sol\":3518:3558  ExecuteTransaction(msg.sender, _txIndex) */\n      0xffffffffffffffffffffffffffffffffffffffff\n      and\n      0x5445f318f4f5fcfb66592e68e0cc5822aa15664039bd5f0ffde24c5a8142b1ac\n      mload(0x40)\n      mload(0x40)\n      dup1\n      swap2\n      sub\n      swap1\n      log3\n        /* \"lesson3/MultiSign.sol\":3154:3566  {... */\n      pop\n      pop\n        /* \"lesson3/MultiSign.sol\":1339:1340  _ */\n      pop\n        /* \"lesson3/MultiSign.sol\":1173:1174  _ */\n      pop\n        /* \"lesson3/MultiSign.sol\":3055:3566  function executeTransaction(uint _txIndex) public onlyOwner txExists(_txIndex) noExecuted(_txIndex){... */\n      pop\n      jump\t// out\n        /* \"#utility.yul\":7:82   */\n    tag_130:\n        /* \"#utility.yul\":40:46   */\n      0x00\n        /* \"#utility.yul\":73:75   */\n      0x40\n        /* \"#utility.yul\":67:76   */\n      mload\n        /* \"#utility.yul\":57:76   */\n      swap1\n      pop\n        /* \"#utility.yul\":7:82   */\n      swap1\n      jump\t// out\n        /* \"#utility.yul\":88:205   */\n    tag_131:\n        /* \"#utility.yul\":197:198   */\n      0x00\n        /* \"#utility.yul\":194:195   */\n      0x00\n        /* \"#utility.yul\":187:199   */\n      revert\n        /* \"#utility.yul\":211:328   */\n    tag_132:\n        /* \"#utility.yul\":320:321   */\n      0x00\n        /* \"#utility.yul\":317:318   */\n      0x00\n        /* \"#utility.yul\":310:322   */\n      revert\n        /* \"#utility.yul\":334:411   */\n    tag_133:\n        /* \"#utility.yul\":371:378   */\n      0x00\n        /* \"#utility.yul\":400:405   */\n      dup2\n        /* \"#utility.yul\":389:405   */\n      swap1\n      pop\n        /* \"#utility.yul\":334:411   */\n      swap2\n      swap1\n      pop\n      jump\t// out\n        /* \"#utility.yul\":417:539   */\n    tag_134:\n        /* \"#utility.yul\":490:514   */\n      tag_196\n        /* \"#utility.yul\":508:513   */\n      dup2\n        /* \"#utility.yul\":490:514   */\n      tag_133\n      jump\t// in\n    tag_196:\n        /* \"#utility.yul\":483:488   */\n      dup2\n        /* \"#utility.yul\":480:515   */\n      eq\n        /* \"#utility.yul\":470:533   */\n      tag_197\n      jumpi\n        /* \"#utility.yul\":529:530   */\n      0x00\n        /* \"#utility.yul\":526:527   */\n      0x00\n        /* \"#utility.yul\":519:531   */\n      revert\n        /* \"#utility.yul\":470:533   */\n    tag_197:\n        /* \"#utility.yul\":417:539   */\n      pop\n      jump\t// out\n        /* \"#utility.yul\":545:684   */\n    tag_135:\n        /* \"#utility.yul\":591:596   */\n      0x00\n        /* \"#utility.yul\":629:635   */\n      dup2\n        /* \"#utility.yul\":616:636   */\n      calldataload\n        /* \"#utility.yul\":607:636   */\n      swap1\n      pop\n        /* \"#utility.yul\":645:678   */\n      tag_199\n        /* \"#utility.yul\":672:677   */\n      dup2\n        /* \"#utility.yul\":645:678   */\n      tag_134\n      jump\t// in\n    tag_199:\n        /* \"#utility.yul\":545:684   */\n      swap3\n      swap2\n      pop\n      pop\n      jump\t// out\n        /* \"#utility.yul\":690:1019   */\n    tag_17:\n        /* \"#utility.yul\":749:755   */\n      0x00\n        /* \"#utility.yul\":798:800   */\n      0x20\n        /* \"#utility.yul\":786:795   */\n      dup3\n        /* \"#utility.yul\":777:784   */\n      dup5\n        /* \"#utility.yul\":773:796   */\n      sub\n        /* \"#utility.yul\":769:801   */\n      slt\n        /* \"#utility.yul\":766:885   */\n      iszero\n      tag_201\n      jumpi\n        /* \"#utility.yul\":804:883   */\n      tag_202\n      tag_131\n      jump\t// in\n    tag_202:\n        /* \"#utility.yul\":766:885   */\n    tag_201:\n        /* \"#utility.yul\":924:925   */\n      0x00\n        /* \"#utility.yul\":949:1002   */\n      tag_203\n        /* \"#utility.yul\":994:1001   */\n      dup5\n        /* \"#utility.yul\":985:991   */\n      dup3\n        /* \"#utility.yul\":974:983   */\n      dup6\n        /* \"#utility.yul\":970:992   */\n      add\n        /* \"#utility.yul\":949:1002   */\n      tag_135\n      jump\t// in\n    tag_203:\n        /* \"#utility.yul\":939:1002   */\n      swap2\n      pop\n        /* \"#utility.yul\":895:1012   */\n      pop\n        /* \"#utility.yul\":690:1019   */\n      swap3\n      swap2\n      pop\n      pop\n      jump\t// out\n        /* \"#utility.yul\":1025:1151   */\n    tag_136:\n        /* \"#utility.yul\":1062:1069   */\n      0x00\n        /* \"#utility.yul\":1102:1144   */\n      0xffffffffffffffffffffffffffffffffffffffff\n        /* \"#utility.yul\":1095:1100   */\n      dup3\n        /* \"#utility.yul\":1091:1145   */\n      and\n        /* \"#utility.yul\":1080:1145   */\n      swap1\n      pop\n        /* \"#utility.yul\":1025:1151   */\n      swap2\n      swap1\n      pop\n      jump\t// out\n        /* \"#utility.yul\":1157:1253   */\n    tag_137:\n        /* \"#utility.yul\":1194:1201   */\n      0x00\n        /* \"#utility.yul\":1223:1247   */\n      tag_206\n        /* \"#utility.yul\":1241:1246   */\n      dup3\n        /* \"#utility.yul\":1223:1247   */\n      tag_136\n      jump\t// in\n    tag_206:\n        /* \"#utility.yul\":1212:1247   */\n      swap1\n      pop\n        /* \"#utility.yul\":1157:1253   */\n      swap2\n      swap1\n      pop\n      jump\t// out\n        /* \"#utility.yul\":1259:1377   */\n    tag_138:\n        /* \"#utility.yul\":1346:1370   */\n      tag_208\n        /* \"#utility.yul\":1364:1369   */\n      dup2\n        /* \"#utility.yul\":1346:1370   */\n      tag_137\n      jump\t// in\n    tag_208:\n        /* \"#utility.yul\":1341:1344   */\n      dup3\n        /* \"#utility.yul\":1334:1371   */\n      mstore\n        /* \"#utility.yul\":1259:1377   */\n      pop\n      pop\n      jump\t// out\n        /* \"#utility.yul\":1383:1605   */\n    tag_20:\n        /* \"#utility.yul\":1476:1480   */\n      0x00\n        /* \"#utility.yul\":1514:1516   */\n      0x20\n        /* \"#utility.yul\":1503:1512   */\n      dup3\n        /* \"#utility.yul\":1499:1517   */\n      add\n        /* \"#utility.yul\":1491:1517   */\n      swap1\n      pop\n        /* \"#utility.yul\":1527:1598   */\n      tag_210\n        /* \"#utility.yul\":1595:1596   */\n      0x00\n        /* \"#utility.yul\":1584:1593   */\n      dup4\n        /* \"#utility.yul\":1580:1597   */\n      add\n        /* \"#utility.yul\":1571:1577   */\n      dup5\n        /* \"#utility.yul\":1527:1598   */\n      tag_138\n      jump\t// in\n    tag_210:\n        /* \"#utility.yul\":1383:1605   */\n      swap3\n      swap2\n      pop\n      pop\n      jump\t// out\n        /* \"#utility.yul\":1611:1733   */\n    tag_139:\n        /* \"#utility.yul\":1684:1708   */\n      tag_212\n        /* \"#utility.yul\":1702:1707   */\n      dup2\n        /* \"#utility.yul\":1684:1708   */\n      tag_137\n      jump\t// in\n    tag_212:\n        /* \"#utility.yul\":1677:1682   */\n      dup2\n        /* \"#utility.yul\":1674:1709   */\n      eq\n        /* \"#utility.yul\":1664:1727   */\n      tag_213\n      jumpi\n        /* \"#utility.yul\":1723:1724   */\n      0x00\n        /* \"#utility.yul\":1720:1721   */\n      0x00\n        /* \"#utility.yul\":1713:1725   */\n      revert\n        /* \"#utility.yul\":1664:1727   */\n    tag_213:\n        /* \"#utility.yul\":1611:1733   */\n      pop\n      jump\t// out\n        /* \"#utility.yul\":1739:1878   */\n    tag_140:\n        /* \"#utility.yul\":1785:1790   */\n      0x00\n        /* \"#utility.yul\":1823:1829   */\n      dup2\n        /* \"#utility.yul\":1810:1830   */\n      calldataload\n        /* \"#utility.yul\":1801:1830   */\n      swap1\n      pop\n        /* \"#utility.yul\":1839:1872   */\n      tag_215\n        /* \"#utility.yul\":1866:1871   */\n      dup2\n        /* \"#utility.yul\":1839:1872   */\n      tag_139\n      jump\t// in\n    tag_215:\n        /* \"#utility.yul\":1739:1878   */\n      swap3\n      swap2\n      pop\n      pop\n      jump\t// out\n        /* \"#utility.yul\":1884:2213   */\n    tag_24:\n        /* \"#utility.yul\":1943:1949   */\n      0x00\n        /* \"#utility.yul\":1992:1994   */\n      0x20\n        /* \"#utility.yul\":1980:1989   */\n      dup3\n        /* \"#utility.yul\":1971:1978   */\n      dup5\n        /* \"#utility.yul\":1967:1990   */\n      sub\n        /* \"#utility.yul\":1963:1995   */\n      slt\n        /* \"#utility.yul\":1960:2079   */\n      iszero\n      tag_217\n      jumpi\n        /* \"#utility.yul\":1998:2077   */\n      tag_218\n      tag_131\n      jump\t// in\n    tag_218:\n        /* \"#utility.yul\":1960:2079   */\n    tag_217:\n        /* \"#utility.yul\":2118:2119   */\n      0x00\n        /* \"#utility.yul\":2143:2196   */\n      tag_219\n        /* \"#utility.yul\":2188:2195   */\n      dup5\n        /* \"#utility.yul\":2179:2185   */\n      dup3\n        /* \"#utility.yul\":2168:2177   */\n      dup6\n        /* \"#utility.yul\":2164:2186   */\n      add\n        /* \"#utility.yul\":2143:2196   */\n      tag_140\n      jump\t// in\n    tag_219:\n        /* \"#utility.yul\":2133:2196   */\n      swap2\n      pop\n        /* \"#utility.yul\":2089:2206   */\n      pop\n        /* \"#utility.yul\":1884:2213   */\n      swap3\n      swap2\n      pop\n      pop\n      jump\t// out\n        /* \"#utility.yul\":2219:2309   */\n    tag_141:\n        /* \"#utility.yul\":2253:2260   */\n      0x00\n        /* \"#utility.yul\":2296:2301   */\n      dup2\n        /* \"#utility.yul\":2289:2302   */\n      iszero\n        /* \"#utility.yul\":2282:2303   */\n      iszero\n        /* \"#utility.yul\":2271:2303   */\n      swap1\n      pop\n        /* \"#utility.yul\":2219:2309   */\n      swap2\n      swap1\n      pop\n      jump\t// out\n        /* \"#utility.yul\":2315:2424   */\n    tag_142:\n        /* \"#utility.yul\":2396:2417   */\n      tag_222\n        /* \"#utility.yul\":2411:2416   */\n      dup2\n        /* \"#utility.yul\":2396:2417   */\n      tag_141\n      jump\t// in\n    tag_222:\n        /* \"#utility.yul\":2391:2394   */\n      dup3\n        /* \"#utility.yul\":2384:2418   */\n      mstore\n        /* \"#utility.yul\":2315:2424   */\n      pop\n      pop\n      jump\t// out\n        /* \"#utility.yul\":2430:2640   */\n    tag_27:\n        /* \"#utility.yul\":2517:2521   */\n      0x00\n        /* \"#utility.yul\":2555:2557   */\n      0x20\n        /* \"#utility.yul\":2544:2553   */\n      dup3\n        /* \"#utility.yul\":2540:2558   */\n      add\n        /* \"#utility.yul\":2532:2558   */\n      swap1\n      pop\n        /* \"#utility.yul\":2568:2633   */\n      tag_224\n        /* \"#utility.yul\":2630:2631   */\n      0x00\n        /* \"#utility.yul\":2619:2628   */\n      dup4\n        /* \"#utility.yul\":2615:2632   */\n      add\n        /* \"#utility.yul\":2606:2612   */\n      dup5\n        /* \"#utility.yul\":2568:2633   */\n      tag_142\n      jump\t// in\n    tag_224:\n        /* \"#utility.yul\":2430:2640   */\n      swap3\n      swap2\n      pop\n      pop\n      jump\t// out\n        /* \"#utility.yul\":2646:3120   */\n    tag_31:\n        /* \"#utility.yul\":2714:2720   */\n      0x00\n        /* \"#utility.yul\":2722:2728   */\n      0x00\n        /* \"#utility.yul\":2771:2773   */\n      0x40\n        /* \"#utility.yul\":2759:2768   */\n      dup4\n        /* \"#utility.yul\":2750:2757   */\n      dup6\n        /* \"#utility.yul\":2746:2769   */\n      sub\n        /* \"#utility.yul\":2742:2774   */\n      slt\n        /* \"#utility.yul\":2739:2858   */\n      iszero\n      tag_226\n      jumpi\n        /* \"#utility.yul\":2777:2856   */\n      tag_227\n      tag_131\n      jump\t// in\n    tag_227:\n        /* \"#utility.yul\":2739:2858   */\n    tag_226:\n        /* \"#utility.yul\":2897:2898   */\n      0x00\n        /* \"#utility.yul\":2922:2975   */\n      tag_228\n        /* \"#utility.yul\":2967:2974   */\n      dup6\n        /* \"#utility.yul\":2958:2964   */\n      dup3\n        /* \"#utility.yul\":2947:2956   */\n      dup7\n        /* \"#utility.yul\":2943:2965   */\n      add\n        /* \"#utility.yul\":2922:2975   */\n      tag_135\n      jump\t// in\n    tag_228:\n        /* \"#utility.yul\":2912:2975   */\n      swap3\n      pop\n        /* \"#utility.yul\":2868:2985   */\n      pop\n        /* \"#utility.yul\":3024:3026   */\n      0x20\n        /* \"#utility.yul\":3050:3103   */\n      tag_229\n        /* \"#utility.yul\":3095:3102   */\n      dup6\n        /* \"#utility.yul\":3086:3092   */\n      dup3\n        /* \"#utility.yul\":3075:3084   */\n      dup7\n        /* \"#utility.yul\":3071:3093   */\n      add\n        /* \"#utility.yul\":3050:3103   */\n      tag_140\n      jump\t// in\n    tag_229:\n        /* \"#utility.yul\":3040:3103   */\n      swap2\n      pop\n        /* \"#utility.yul\":2995:3113   */\n      pop\n        /* \"#utility.yul\":2646:3120   */\n      swap3\n      pop\n      swap3\n      swap1\n      pop\n      jump\t// out\n        /* \"#utility.yul\":3126:3244   */\n    tag_143:\n        /* \"#utility.yul\":3213:3237   */\n      tag_231\n        /* \"#utility.yul\":3231:3236   */\n      dup2\n        /* \"#utility.yul\":3213:3237   */\n      tag_133\n      jump\t// in\n    tag_231:\n        /* \"#utility.yul\":3208:3211   */\n      dup3\n        /* \"#utility.yul\":3201:3238   */\n      mstore\n        /* \"#utility.yul\":3126:3244   */\n      pop\n      pop\n      jump\t// out\n        /* \"#utility.yul\":3250:3348   */\n    tag_144:\n        /* \"#utility.yul\":3301:3307   */\n      0x00\n        /* \"#utility.yul\":3335:3340   */\n      dup2\n        /* \"#utility.yul\":3329:3341   */\n      mload\n        /* \"#utility.yul\":3319:3341   */\n      swap1\n      pop\n        /* \"#utility.yul\":3250:3348   */\n      swap2\n      swap1\n      pop\n      jump\t// out\n        /* \"#utility.yul\":3354:3522   */\n    tag_145:\n        /* \"#utility.yul\":3437:3448   */\n      0x00\n        /* \"#utility.yul\":3471:3477   */\n      dup3\n        /* \"#utility.yul\":3466:3469   */\n      dup3\n        /* \"#utility.yul\":3459:3478   */\n      mstore\n        /* \"#utility.yul\":3511:3515   */\n      0x20\n        /* \"#utility.yul\":3506:3509   */\n      dup3\n        /* \"#utility.yul\":3502:3516   */\n      add\n        /* \"#utility.yul\":3487:3516   */\n      swap1\n      pop\n        /* \"#utility.yul\":3354:3522   */\n      swap3\n      swap2\n      pop\n      pop\n      jump\t// out\n        /* \"#utility.yul\":3528:3667   */\n    tag_146:\n        /* \"#utility.yul\":3617:3623   */\n      dup3\n        /* \"#utility.yul\":3612:3615   */\n      dup2\n        /* \"#utility.yul\":3607:3610   */\n      dup4\n        /* \"#utility.yul\":3601:3624   */\n      mcopy\n        /* \"#utility.yul\":3658:3659   */\n      0x00\n        /* \"#utility.yul\":3649:3655   */\n      dup4\n        /* \"#utility.yul\":3644:3647   */\n      dup4\n        /* \"#utility.yul\":3640:3656   */\n      add\n        /* \"#utility.yul\":3633:3660   */\n      mstore\n        /* \"#utility.yul\":3528:3667   */\n      pop\n      pop\n      pop\n      jump\t// out\n        /* \"#utility.yul\":3673:3775   */\n    tag_147:\n        /* \"#utility.yul\":3714:3720   */\n      0x00\n        /* \"#utility.yul\":3765:3767   */\n      0x1f\n        /* \"#utility.yul\":3761:3768   */\n      not\n        /* \"#utility.yul\":3756:3758   */\n      0x1f\n        /* \"#utility.yul\":3749:3754   */\n      dup4\n        /* \"#utility.yul\":3745:3759   */\n      add\n        /* \"#utility.yul\":3741:3769   */\n      and\n        /* \"#utility.yul\":3731:3769   */\n      swap1\n      pop\n        /* \"#utility.yul\":3673:3775   */\n      swap2\n      swap1\n      pop\n      jump\t// out\n        /* \"#utility.yul\":3781:4154   */\n    tag_148:\n        /* \"#utility.yul\":3867:3870   */\n      0x00\n        /* \"#utility.yul\":3895:3933   */\n      tag_237\n        /* \"#utility.yul\":3927:3932   */\n      dup3\n        /* \"#utility.yul\":3895:3933   */\n      tag_144\n      jump\t// in\n    tag_237:\n        /* \"#utility.yul\":3949:4019   */\n      tag_238\n        /* \"#utility.yul\":4012:4018   */\n      dup2\n        /* \"#utility.yul\":4007:4010   */\n      dup6\n        /* \"#utility.yul\":3949:4019   */\n      tag_145\n      jump\t// in\n    tag_238:\n        /* \"#utility.yul\":3942:4019   */\n      swap4\n      pop\n        /* \"#utility.yul\":4028:4093   */\n      tag_239\n        /* \"#utility.yul\":4086:4092   */\n      dup2\n        /* \"#utility.yul\":4081:4084   */\n      dup6\n        /* \"#utility.yul\":4074:4078   */\n      0x20\n        /* \"#utility.yul\":4067:4072   */\n      dup7\n        /* \"#utility.yul\":4063:4079   */\n      add\n        /* \"#utility.yul\":4028:4093   */\n      tag_146\n      jump\t// in\n    tag_239:\n        /* \"#utility.yul\":4118:4147   */\n      tag_240\n        /* \"#utility.yul\":4140:4146   */\n      dup2\n        /* \"#utility.yul\":4118:4147   */\n      tag_147\n      jump\t// in\n    tag_240:\n        /* \"#utility.yul\":4113:4116   */\n      dup5\n        /* \"#utility.yul\":4109:4148   */\n      add\n        /* \"#utility.yul\":4102:4148   */\n      swap2\n      pop\n        /* \"#utility.yul\":3871:4154   */\n      pop\n        /* \"#utility.yul\":3781:4154   */\n      swap3\n      swap2\n      pop\n      pop\n      jump\t// out\n        /* \"#utility.yul\":4160:4899   */\n    tag_39:\n        /* \"#utility.yul\":4377:4381   */\n      0x00\n        /* \"#utility.yul\":4415:4418   */\n      0xa0\n        /* \"#utility.yul\":4404:4413   */\n      dup3\n        /* \"#utility.yul\":4400:4419   */\n      add\n        /* \"#utility.yul\":4392:4419   */\n      swap1\n      pop\n        /* \"#utility.yul\":4429:4500   */\n      tag_242\n        /* \"#utility.yul\":4497:4498   */\n      0x00\n        /* \"#utility.yul\":4486:4495   */\n      dup4\n        /* \"#utility.yul\":4482:4499   */\n      add\n        /* \"#utility.yul\":4473:4479   */\n      dup9\n        /* \"#utility.yul\":4429:4500   */\n      tag_138\n      jump\t// in\n    tag_242:\n        /* \"#utility.yul\":4510:4582   */\n      tag_243\n        /* \"#utility.yul\":4578:4580   */\n      0x20\n        /* \"#utility.yul\":4567:4576   */\n      dup4\n        /* \"#utility.yul\":4563:4581   */\n      add\n        /* \"#utility.yul\":4554:4560   */\n      dup8\n        /* \"#utility.yul\":4510:4582   */\n      tag_143\n      jump\t// in\n    tag_243:\n        /* \"#utility.yul\":4629:4638   */\n      dup2\n        /* \"#utility.yul\":4623:4627   */\n      dup2\n        /* \"#utility.yul\":4619:4639   */\n      sub\n        /* \"#utility.yul\":4614:4616   */\n      0x40\n        /* \"#utility.yul\":4603:4612   */\n      dup4\n        /* \"#utility.yul\":4599:4617   */\n      add\n        /* \"#utility.yul\":4592:4640   */\n      mstore\n        /* \"#utility.yul\":4657:4733   */\n      tag_244\n        /* \"#utility.yul\":4728:4732   */\n      dup2\n        /* \"#utility.yul\":4719:4725   */\n      dup7\n        /* \"#utility.yul\":4657:4733   */\n      tag_148\n      jump\t// in\n    tag_244:\n        /* \"#utility.yul\":4649:4733   */\n      swap1\n      pop\n        /* \"#utility.yul\":4743:4809   */\n      tag_245\n        /* \"#utility.yul\":4805:4807   */\n      0x60\n        /* \"#utility.yul\":4794:4803   */\n      dup4\n        /* \"#utility.yul\":4790:4808   */\n      add\n        /* \"#utility.yul\":4781:4787   */\n      dup6\n        /* \"#utility.yul\":4743:4809   */\n      tag_142\n      jump\t// in\n    tag_245:\n        /* \"#utility.yul\":4819:4892   */\n      tag_246\n        /* \"#utility.yul\":4887:4890   */\n      0x80\n        /* \"#utility.yul\":4876:4885   */\n      dup4\n        /* \"#utility.yul\":4872:4891   */\n      add\n        /* \"#utility.yul\":4863:4869   */\n      dup5\n        /* \"#utility.yul\":4819:4892   */\n      tag_143\n      jump\t// in\n    tag_246:\n        /* \"#utility.yul\":4160:4899   */\n      swap7\n      swap6\n      pop\n      pop\n      pop\n      pop\n      pop\n      pop\n      jump\t// out\n        /* \"#utility.yul\":4905:5022   */\n    tag_149:\n        /* \"#utility.yul\":5014:5015   */\n      0x00\n        /* \"#utility.yul\":5011:5012   */\n      0x00\n        /* \"#utility.yul\":5004:5016   */\n      revert\n        /* \"#utility.yul\":5028:5145   */\n    tag_150:\n        /* \"#utility.yul\":5137:5138   */\n      0x00\n        /* \"#utility.yul\":5134:5135   */\n      0x00\n        /* \"#utility.yul\":5127:5139   */\n      revert\n        /* \"#utility.yul\":5151:5331   */\n    tag_151:\n        /* \"#utility.yul\":5199:5276   */\n      0x4e487b7100000000000000000000000000000000000000000000000000000000\n        /* \"#utility.yul\":5196:5197   */\n      0x00\n        /* \"#utility.yul\":5189:5277   */\n      mstore\n        /* \"#utility.yul\":5296:5300   */\n      0x41\n        /* \"#utility.yul\":5293:5294   */\n      0x04\n        /* \"#utility.yul\":5286:5301   */\n      mstore\n        /* \"#utility.yul\":5320:5324   */\n      0x24\n        /* \"#utility.yul\":5317:5318   */\n      0x00\n        /* \"#utility.yul\":5310:5325   */\n      revert\n        /* \"#utility.yul\":5337:5618   */\n    tag_152:\n        /* \"#utility.yul\":5420:5447   */\n      tag_251\n        /* \"#utility.yul\":5442:5446   */\n      dup3\n        /* \"#utility.yul\":5420:5447   */\n      tag_147\n      jump\t// in\n    tag_251:\n        /* \"#utility.yul\":5412:5418   */\n      dup2\n        /* \"#utility.yul\":5408:5448   */\n      add\n        /* \"#utility.yul\":5550:5556   */\n      dup2\n        /* \"#utility.yul\":5538:5548   */\n      dup2\n        /* \"#utility.yul\":5535:5557   */\n      lt\n        /* \"#utility.yul\":5514:5532   */\n      0xffffffffffffffff\n        /* \"#utility.yul\":5502:5512   */\n      dup3\n        /* \"#utility.yul\":5499:5533   */\n      gt\n        /* \"#utility.yul\":5496:5558   */\n      or\n        /* \"#utility.yul\":5493:5581   */\n      iszero\n      tag_252\n      jumpi\n        /* \"#utility.yul\":5561:5579   */\n      tag_253\n      tag_151\n      jump\t// in\n    tag_253:\n        /* \"#utility.yul\":5493:5581   */\n    tag_252:\n        /* \"#utility.yul\":5601:5611   */\n      dup1\n        /* \"#utility.yul\":5597:5599   */\n      0x40\n        /* \"#utility.yul\":5590:5612   */\n      mstore\n        /* \"#utility.yul\":5380:5618   */\n      pop\n        /* \"#utility.yul\":5337:5618   */\n      pop\n      pop\n      jump\t// out\n        /* \"#utility.yul\":5624:5753   */\n    tag_153:\n        /* \"#utility.yul\":5658:5664   */\n      0x00\n        /* \"#utility.yul\":5685:5705   */\n      tag_255\n      tag_130\n      jump\t// in\n    tag_255:\n        /* \"#utility.yul\":5675:5705   */\n      swap1\n      pop\n        /* \"#utility.yul\":5714:5747   */\n      tag_256\n        /* \"#utility.yul\":5742:5746   */\n      dup3\n        /* \"#utility.yul\":5734:5740   */\n      dup3\n        /* \"#utility.yul\":5714:5747   */\n      tag_152\n      jump\t// in\n    tag_256:\n        /* \"#utility.yul\":5624:5753   */\n      swap2\n      swap1\n      pop\n      jump\t// out\n        /* \"#utility.yul\":5759:6066   */\n    tag_154:\n        /* \"#utility.yul\":5820:5824   */\n      0x00\n        /* \"#utility.yul\":5910:5928   */\n      0xffffffffffffffff\n        /* \"#utility.yul\":5902:5908   */\n      dup3\n        /* \"#utility.yul\":5899:5929   */\n      gt\n        /* \"#utility.yul\":5896:5952   */\n      iszero\n      tag_258\n      jumpi\n        /* \"#utility.yul\":5932:5950   */\n      tag_259\n      tag_151\n      jump\t// in\n    tag_259:\n        /* \"#utility.yul\":5896:5952   */\n    tag_258:\n        /* \"#utility.yul\":5970:5999   */\n      tag_260\n        /* \"#utility.yul\":5992:5998   */\n      dup3\n        /* \"#utility.yul\":5970:5999   */\n      tag_147\n      jump\t// in\n    tag_260:\n        /* \"#utility.yul\":5962:5999   */\n      swap1\n      pop\n        /* \"#utility.yul\":6054:6058   */\n      0x20\n        /* \"#utility.yul\":6048:6052   */\n      dup2\n        /* \"#utility.yul\":6044:6059   */\n      add\n        /* \"#utility.yul\":6036:6059   */\n      swap1\n      pop\n        /* \"#utility.yul\":5759:6066   */\n      swap2\n      swap1\n      pop\n      jump\t// out\n        /* \"#utility.yul\":6072:6220   */\n    tag_155:\n        /* \"#utility.yul\":6170:6176   */\n      dup3\n        /* \"#utility.yul\":6165:6168   */\n      dup2\n        /* \"#utility.yul\":6160:6163   */\n      dup4\n        /* \"#utility.yul\":6147:6177   */\n      calldatacopy\n        /* \"#utility.yul\":6211:6212   */\n      0x00\n        /* \"#utility.yul\":6202:6208   */\n      dup4\n        /* \"#utility.yul\":6197:6200   */\n      dup4\n        /* \"#utility.yul\":6193:6209   */\n      add\n        /* \"#utility.yul\":6186:6213   */\n      mstore\n        /* \"#utility.yul\":6072:6220   */\n      pop\n      pop\n      pop\n      jump\t// out\n        /* \"#utility.yul\":6226:6649   */\n    tag_156:\n        /* \"#utility.yul\":6303:6308   */\n      0x00\n        /* \"#utility.yul\":6328:6393   */\n      tag_263\n        /* \"#utility.yul\":6344:6392   */\n      tag_264\n        /* \"#utility.yul\":6385:6391   */\n      dup5\n        /* \"#utility.yul\":6344:6392   */\n      tag_154\n      jump\t// in\n    tag_264:\n        /* \"#utility.yul\":6328:6393   */\n      tag_153\n      jump\t// in\n    tag_263:\n        /* \"#utility.yul\":6319:6393   */\n      swap1\n      pop\n        /* \"#utility.yul\":6416:6422   */\n      dup3\n        /* \"#utility.yul\":6409:6414   */\n      dup2\n        /* \"#utility.yul\":6402:6423   */\n      mstore\n        /* \"#utility.yul\":6454:6458   */\n      0x20\n        /* \"#utility.yul\":6447:6452   */\n      dup2\n        /* \"#utility.yul\":6443:6459   */\n      add\n        /* \"#utility.yul\":6492:6495   */\n      dup5\n        /* \"#utility.yul\":6483:6489   */\n      dup5\n        /* \"#utility.yul\":6478:6481   */\n      dup5\n        /* \"#utility.yul\":6474:6490   */\n      add\n        /* \"#utility.yul\":6471:6496   */\n      gt\n        /* \"#utility.yul\":6468:6580   */\n      iszero\n      tag_265\n      jumpi\n        /* \"#utility.yul\":6499:6578   */\n      tag_266\n      tag_150\n      jump\t// in\n    tag_266:\n        /* \"#utility.yul\":6468:6580   */\n    tag_265:\n        /* \"#utility.yul\":6589:6643   */\n      tag_267\n        /* \"#utility.yul\":6636:6642   */\n      dup5\n        /* \"#utility.yul\":6631:6634   */\n      dup3\n        /* \"#utility.yul\":6626:6629   */\n      dup6\n        /* \"#utility.yul\":6589:6643   */\n      tag_155\n      jump\t// in\n    tag_267:\n        /* \"#utility.yul\":6309:6649   */\n      pop\n        /* \"#utility.yul\":6226:6649   */\n      swap4\n      swap3\n      pop\n      pop\n      pop\n      jump\t// out\n        /* \"#utility.yul\":6668:7006   */\n    tag_157:\n        /* \"#utility.yul\":6723:6728   */\n      0x00\n        /* \"#utility.yul\":6772:6775   */\n      dup3\n        /* \"#utility.yul\":6765:6769   */\n      0x1f\n        /* \"#utility.yul\":6757:6763   */\n      dup4\n        /* \"#utility.yul\":6753:6770   */\n      add\n        /* \"#utility.yul\":6749:6776   */\n      slt\n        /* \"#utility.yul\":6739:6861   */\n      tag_269\n      jumpi\n        /* \"#utility.yul\":6780:6859   */\n      tag_270\n      tag_149\n      jump\t// in\n    tag_270:\n        /* \"#utility.yul\":6739:6861   */\n    tag_269:\n        /* \"#utility.yul\":6897:6903   */\n      dup2\n        /* \"#utility.yul\":6884:6904   */\n      calldataload\n        /* \"#utility.yul\":6922:7000   */\n      tag_271\n        /* \"#utility.yul\":6996:6999   */\n      dup5\n        /* \"#utility.yul\":6988:6994   */\n      dup3\n        /* \"#utility.yul\":6981:6985   */\n      0x20\n        /* \"#utility.yul\":6973:6979   */\n      dup7\n        /* \"#utility.yul\":6969:6986   */\n      add\n        /* \"#utility.yul\":6922:7000   */\n      tag_156\n      jump\t// in\n    tag_271:\n        /* \"#utility.yul\":6913:7000   */\n      swap2\n      pop\n        /* \"#utility.yul\":6729:7006   */\n      pop\n        /* \"#utility.yul\":6668:7006   */\n      swap3\n      swap2\n      pop\n      pop\n      jump\t// out\n        /* \"#utility.yul\":7012:7809   */\n    tag_47:\n        /* \"#utility.yul\":7098:7104   */\n      0x00\n        /* \"#utility.yul\":7106:7112   */\n      0x00\n        /* \"#utility.yul\":7114:7120   */\n      0x00\n        /* \"#utility.yul\":7163:7165   */\n      0x60\n        /* \"#utility.yul\":7151:7160   */\n      dup5\n        /* \"#utility.yul\":7142:7149   */\n      dup7\n        /* \"#utility.yul\":7138:7161   */\n      sub\n        /* \"#utility.yul\":7134:7166   */\n      slt\n        /* \"#utility.yul\":7131:7250   */\n      iszero\n      tag_273\n      jumpi\n        /* \"#utility.yul\":7169:7248   */\n      tag_274\n      tag_131\n      jump\t// in\n    tag_274:\n        /* \"#utility.yul\":7131:7250   */\n    tag_273:\n        /* \"#utility.yul\":7289:7290   */\n      0x00\n        /* \"#utility.yul\":7314:7367   */\n      tag_275\n        /* \"#utility.yul\":7359:7366   */\n      dup7\n        /* \"#utility.yul\":7350:7356   */\n      dup3\n        /* \"#utility.yul\":7339:7348   */\n      dup8\n        /* \"#utility.yul\":7335:7357   */\n      add\n        /* \"#utility.yul\":7314:7367   */\n      tag_140\n      jump\t// in\n    tag_275:\n        /* \"#utility.yul\":7304:7367   */\n      swap4\n      pop\n        /* \"#utility.yul\":7260:7377   */\n      pop\n        /* \"#utility.yul\":7416:7418   */\n      0x20\n        /* \"#utility.yul\":7442:7495   */\n      tag_276\n        /* \"#utility.yul\":7487:7494   */\n      dup7\n        /* \"#utility.yul\":7478:7484   */\n      dup3\n        /* \"#utility.yul\":7467:7476   */\n      dup8\n        /* \"#utility.yul\":7463:7485   */\n      add\n        /* \"#utility.yul\":7442:7495   */\n      tag_135\n      jump\t// in\n    tag_276:\n        /* \"#utility.yul\":7432:7495   */\n      swap3\n      pop\n        /* \"#utility.yul\":7387:7505   */\n      pop\n        /* \"#utility.yul\":7572:7574   */\n      0x40\n        /* \"#utility.yul\":7561:7570   */\n      dup5\n        /* \"#utility.yul\":7557:7575   */\n      add\n        /* \"#utility.yul\":7544:7576   */\n      calldataload\n        /* \"#utility.yul\":7603:7621   */\n      0xffffffffffffffff\n        /* \"#utility.yul\":7595:7601   */\n      dup2\n        /* \"#utility.yul\":7592:7622   */\n      gt\n        /* \"#utility.yul\":7589:7706   */\n      iszero\n      tag_277\n      jumpi\n        /* \"#utility.yul\":7625:7704   */\n      tag_278\n      tag_132\n      jump\t// in\n    tag_278:\n        /* \"#utility.yul\":7589:7706   */\n    tag_277:\n        /* \"#utility.yul\":7730:7792   */\n      tag_279\n        /* \"#utility.yul\":7784:7791   */\n      dup7\n        /* \"#utility.yul\":7775:7781   */\n      dup3\n        /* \"#utility.yul\":7764:7773   */\n      dup8\n        /* \"#utility.yul\":7760:7782   */\n      add\n        /* \"#utility.yul\":7730:7792   */\n      tag_157\n      jump\t// in\n    tag_279:\n        /* \"#utility.yul\":7720:7792   */\n      swap2\n      pop\n        /* \"#utility.yul\":7515:7802   */\n      pop\n        /* \"#utility.yul\":7012:7809   */\n      swap3\n      pop\n      swap3\n      pop\n      swap3\n      jump\t// out\n        /* \"#utility.yul\":7815:8037   */\n    tag_53:\n        /* \"#utility.yul\":7908:7912   */\n      0x00\n        /* \"#utility.yul\":7946:7948   */\n      0x20\n        /* \"#utility.yul\":7935:7944   */\n      dup3\n        /* \"#utility.yul\":7931:7949   */\n      add\n        /* \"#utility.yul\":7923:7949   */\n      swap1\n      pop\n        /* \"#utility.yul\":7959:8030   */\n      tag_281\n        /* \"#utility.yul\":8027:8028   */\n      0x00\n        /* \"#utility.yul\":8016:8025   */\n      dup4\n        /* \"#utility.yul\":8012:8029   */\n      add\n        /* \"#utility.yul\":8003:8009   */\n      dup5\n        /* \"#utility.yul\":7959:8030   */\n      tag_143\n      jump\t// in\n    tag_281:\n        /* \"#utility.yul\":7815:8037   */\n      swap3\n      swap2\n      pop\n      pop\n      jump\t// out\n        /* \"#utility.yul\":8043:8223   */\n    tag_158:\n        /* \"#utility.yul\":8091:8168   */\n      0x4e487b7100000000000000000000000000000000000000000000000000000000\n        /* \"#utility.yul\":8088:8089   */\n      0x00\n        /* \"#utility.yul\":8081:8169   */\n      mstore\n        /* \"#utility.yul\":8188:8192   */\n      0x22\n        /* \"#utility.yul\":8185:8186   */\n      0x04\n        /* \"#utility.yul\":8178:8193   */\n      mstore\n        /* \"#utility.yul\":8212:8216   */\n      0x24\n        /* \"#utility.yul\":8209:8210   */\n      0x00\n        /* \"#utility.yul\":8202:8217   */\n      revert\n        /* \"#utility.yul\":8229:8549   */\n    tag_63:\n        /* \"#utility.yul\":8273:8279   */\n      0x00\n        /* \"#utility.yul\":8310:8311   */\n      0x02\n        /* \"#utility.yul\":8304:8308   */\n      dup3\n        /* \"#utility.yul\":8300:8312   */\n      div\n        /* \"#utility.yul\":8290:8312   */\n      swap1\n      pop\n        /* \"#utility.yul\":8357:8358   */\n      0x01\n        /* \"#utility.yul\":8351:8355   */\n      dup3\n        /* \"#utility.yul\":8347:8359   */\n      and\n        /* \"#utility.yul\":8378:8396   */\n      dup1\n        /* \"#utility.yul\":8368:8449   */\n      tag_284\n      jumpi\n        /* \"#utility.yul\":8434:8438   */\n      0x7f\n        /* \"#utility.yul\":8426:8432   */\n      dup3\n        /* \"#utility.yul\":8422:8439   */\n      and\n        /* \"#utility.yul\":8412:8439   */\n      swap2\n      pop\n        /* \"#utility.yul\":8368:8449   */\n    tag_284:\n        /* \"#utility.yul\":8496:8498   */\n      0x20\n        /* \"#utility.yul\":8488:8494   */\n      dup3\n        /* \"#utility.yul\":8485:8499   */\n      lt\n        /* \"#utility.yul\":8465:8483   */\n      dup2\n        /* \"#utility.yul\":8462:8500   */\n      sub\n        /* \"#utility.yul\":8459:8543   */\n      tag_285\n      jumpi\n        /* \"#utility.yul\":8515:8533   */\n      tag_286\n      tag_158\n      jump\t// in\n    tag_286:\n        /* \"#utility.yul\":8459:8543   */\n    tag_285:\n        /* \"#utility.yul\":8280:8549   */\n      pop\n        /* \"#utility.yul\":8229:8549   */\n      swap2\n      swap1\n      pop\n      jump\t// out\n        /* \"#utility.yul\":8555:8724   */\n    tag_159:\n        /* \"#utility.yul\":8639:8650   */\n      0x00\n        /* \"#utility.yul\":8673:8679   */\n      dup3\n        /* \"#utility.yul\":8668:8671   */\n      dup3\n        /* \"#utility.yul\":8661:8680   */\n      mstore\n        /* \"#utility.yul\":8713:8717   */\n      0x20\n        /* \"#utility.yul\":8708:8711   */\n      dup3\n        /* \"#utility.yul\":8704:8718   */\n      add\n        /* \"#utility.yul\":8689:8718   */\n      swap1\n      pop\n        /* \"#utility.yul\":8555:8724   */\n      swap3\n      swap2\n      pop\n      pop\n      jump\t// out\n        /* \"#utility.yul\":8730:8889   */\n    tag_160:\n        /* \"#utility.yul\":8870:8881   */\n      0x4e6f74206f776e65720000000000000000000000000000000000000000000000\n        /* \"#utility.yul\":8866:8867   */\n      0x00\n        /* \"#utility.yul\":8858:8864   */\n      dup3\n        /* \"#utility.yul\":8854:8868   */\n      add\n        /* \"#utility.yul\":8847:8882   */\n      mstore\n        /* \"#utility.yul\":8730:8889   */\n      pop\n      jump\t// out\n        /* \"#utility.yul\":8895:9260   */\n    tag_161:\n        /* \"#utility.yul\":9037:9040   */\n      0x00\n        /* \"#utility.yul\":9058:9124   */\n      tag_290\n        /* \"#utility.yul\":9122:9123   */\n      0x09\n        /* \"#utility.yul\":9117:9120   */\n      dup4\n        /* \"#utility.yul\":9058:9124   */\n      tag_159\n      jump\t// in\n    tag_290:\n        /* \"#utility.yul\":9051:9124   */\n      swap2\n      pop\n        /* \"#utility.yul\":9133:9226   */\n      tag_291\n        /* \"#utility.yul\":9222:9225   */\n      dup3\n        /* \"#utility.yul\":9133:9226   */\n      tag_160\n      jump\t// in\n    tag_291:\n        /* \"#utility.yul\":9251:9253   */\n      0x20\n        /* \"#utility.yul\":9246:9249   */\n      dup3\n        /* \"#utility.yul\":9242:9254   */\n      add\n        /* \"#utility.yul\":9235:9254   */\n      swap1\n      pop\n        /* \"#utility.yul\":8895:9260   */\n      swap2\n      swap1\n      pop\n      jump\t// out\n        /* \"#utility.yul\":9266:9685   */\n    tag_71:\n        /* \"#utility.yul\":9432:9436   */\n      0x00\n        /* \"#utility.yul\":9470:9472   */\n      0x20\n        /* \"#utility.yul\":9459:9468   */\n      dup3\n        /* \"#utility.yul\":9455:9473   */\n      add\n        /* \"#utility.yul\":9447:9473   */\n      swap1\n      pop\n        /* \"#utility.yul\":9519:9528   */\n      dup2\n        /* \"#utility.yul\":9513:9517   */\n      dup2\n        /* \"#utility.yul\":9509:9529   */\n      sub\n        /* \"#utility.yul\":9505:9506   */\n      0x00\n        /* \"#utility.yul\":9494:9503   */\n      dup4\n        /* \"#utility.yul\":9490:9507   */\n      add\n        /* \"#utility.yul\":9483:9530   */\n      mstore\n        /* \"#utility.yul\":9547:9678   */\n      tag_293\n        /* \"#utility.yul\":9673:9677   */\n      dup2\n        /* \"#utility.yul\":9547:9678   */\n      tag_161\n      jump\t// in\n    tag_293:\n        /* \"#utility.yul\":9539:9678   */\n      swap1\n      pop\n        /* \"#utility.yul\":9266:9685   */\n      swap2\n      swap1\n      pop\n      jump\t// out\n        /* \"#utility.yul\":9691:9864   */\n    tag_162:\n        /* \"#utility.yul\":9831:9856   */\n      0x5472616e73616374696f6e73206e6f7420657869737473000000000000000000\n        /* \"#utility.yul\":9827:9828   */\n      0x00\n        /* \"#utility.yul\":9819:9825   */\n      dup3\n        /* \"#utility.yul\":9815:9829   */\n      add\n        /* \"#utility.yul\":9808:9857   */\n      mstore\n        /* \"#utility.yul\":9691:9864   */\n      pop\n      jump\t// out\n        /* \"#utility.yul\":9870:10236   */\n    tag_163:\n        /* \"#utility.yul\":10012:10015   */\n      0x00\n        /* \"#utility.yul\":10033:10100   */\n      tag_296\n        /* \"#utility.yul\":10097:10099   */\n      0x17\n        /* \"#utility.yul\":10092:10095   */\n      dup4\n        /* \"#utility.yul\":10033:10100   */\n      tag_159\n      jump\t// in\n    tag_296:\n        /* \"#utility.yul\":10026:10100   */\n      swap2\n      pop\n        /* \"#utility.yul\":10109:10202   */\n      tag_297\n        /* \"#utility.yul\":10198:10201   */\n      dup3\n        /* \"#utility.yul\":10109:10202   */\n      tag_162\n      jump\t// in\n    tag_297:\n        /* \"#utility.yul\":10227:10229   */\n      0x20\n        /* \"#utility.yul\":10222:10225   */\n      dup3\n        /* \"#utility.yul\":10218:10230   */\n      add\n        /* \"#utility.yul\":10211:10230   */\n      swap1\n      pop\n        /* \"#utility.yul\":9870:10236   */\n      swap2\n      swap1\n      pop\n      jump\t// out\n        /* \"#utility.yul\":10242:10661   */\n    tag_75:\n        /* \"#utility.yul\":10408:10412   */\n      0x00\n        /* \"#utility.yul\":10446:10448   */\n      0x20\n        /* \"#utility.yul\":10435:10444   */\n      dup3\n        /* \"#utility.yul\":10431:10449   */\n      add\n        /* \"#utility.yul\":10423:10449   */\n      swap1\n      pop\n        /* \"#utility.yul\":10495:10504   */\n      dup2\n        /* \"#utility.yul\":10489:10493   */\n      dup2\n        /* \"#utility.yul\":10485:10505   */\n      sub\n        /* \"#utility.yul\":10481:10482   */\n      0x00\n        /* \"#utility.yul\":10470:10479   */\n      dup4\n        /* \"#utility.yul\":10466:10483   */\n      add\n        /* \"#utility.yul\":10459:10506   */\n      mstore\n        /* \"#utility.yul\":10523:10654   */\n      tag_299\n        /* \"#utility.yul\":10649:10653   */\n      dup2\n        /* \"#utility.yul\":10523:10654   */\n      tag_163\n      jump\t// in\n    tag_299:\n        /* \"#utility.yul\":10515:10654   */\n      swap1\n      pop\n        /* \"#utility.yul\":10242:10661   */\n      swap2\n      swap1\n      pop\n      jump\t// out\n        /* \"#utility.yul\":10667:10847   */\n    tag_79:\n        /* \"#utility.yul\":10715:10792   */\n      0x4e487b7100000000000000000000000000000000000000000000000000000000\n        /* \"#utility.yul\":10712:10713   */\n      0x00\n        /* \"#utility.yul\":10705:10793   */\n      mstore\n        /* \"#utility.yul\":10812:10816   */\n      0x32\n        /* \"#utility.yul\":10809:10810   */\n      0x04\n        /* \"#utility.yul\":10802:10817   */\n      mstore\n        /* \"#utility.yul\":10836:10840   */\n      0x24\n        /* \"#utility.yul\":10833:10834   */\n      0x00\n        /* \"#utility.yul\":10826:10841   */\n      revert\n        /* \"#utility.yul\":10853:11032   */\n    tag_164:\n        /* \"#utility.yul\":10993:11024   */\n      0x5472616e73616374696f6e7320616c7265616479206578656375746564000000\n        /* \"#utility.yul\":10989:10990   */\n      0x00\n        /* \"#utility.yul\":10981:10987   */\n      dup3\n        /* \"#utility.yul\":10977:10991   */\n      add\n        /* \"#utility.yul\":10970:11025   */\n      mstore\n        /* \"#utility.yul\":10853:11032   */\n      pop\n      jump\t// out\n        /* \"#utility.yul\":11038:11404   */\n    tag_165:\n        /* \"#utility.yul\":11180:11183   */\n      0x00\n        /* \"#utility.yul\":11201:11268   */\n      tag_303\n        /* \"#utility.yul\":11265:11267   */\n      0x1d\n        /* \"#utility.yul\":11260:11263   */\n      dup4\n        /* \"#utility.yul\":11201:11268   */\n      tag_159\n      jump\t// in\n    tag_303:\n        /* \"#utility.yul\":11194:11268   */\n      swap2\n      pop\n        /* \"#utility.yul\":11277:11370   */\n      tag_304\n        /* \"#utility.yul\":11366:11369   */\n      dup3\n        /* \"#utility.yul\":11277:11370   */\n      tag_164\n      jump\t// in\n    tag_304:\n        /* \"#utility.yul\":11395:11397   */\n      0x20\n        /* \"#utility.yul\":11390:11393   */\n      dup3\n        /* \"#utility.yul\":11386:11398   */\n      add\n        /* \"#utility.yul\":11379:11398   */\n      swap1\n      pop\n        /* \"#utility.yul\":11038:11404   */\n      swap2\n      swap1\n      pop\n      jump\t// out\n        /* \"#utility.yul\":11410:11829   */\n    tag_83:\n        /* \"#utility.yul\":11576:11580   */\n      0x00\n        /* \"#utility.yul\":11614:11616   */\n      0x20\n        /* \"#utility.yul\":11603:11612   */\n      dup3\n        /* \"#utility.yul\":11599:11617   */\n      add\n        /* \"#utility.yul\":11591:11617   */\n      swap1\n      pop\n        /* \"#utility.yul\":11663:11672   */\n      dup2\n        /* \"#utility.yul\":11657:11661   */\n      dup2\n        /* \"#utility.yul\":11653:11673   */\n      sub\n        /* \"#utility.yul\":11649:11650   */\n      0x00\n        /* \"#utility.yul\":11638:11647   */\n      dup4\n        /* \"#utility.yul\":11634:11651   */\n      add\n        /* \"#utility.yul\":11627:11674   */\n      mstore\n        /* \"#utility.yul\":11691:11822   */\n      tag_306\n        /* \"#utility.yul\":11817:11821   */\n      dup2\n        /* \"#utility.yul\":11691:11822   */\n      tag_165\n      jump\t// in\n    tag_306:\n        /* \"#utility.yul\":11683:11822   */\n      swap1\n      pop\n        /* \"#utility.yul\":11410:11829   */\n      swap2\n      swap1\n      pop\n      jump\t// out\n        /* \"#utility.yul\":11835:12015   */\n    tag_166:\n        /* \"#utility.yul\":11975:12007   */\n      0x5472616e73616374696f6e7320616c726561647920636f6e6669726d65640000\n        /* \"#utility.yul\":11971:11972   */\n      0x00\n        /* \"#utility.yul\":11963:11969   */\n      dup3\n        /* \"#utility.yul\":11959:11973   */\n      add\n        /* \"#utility.yul\":11952:12008   */\n      mstore\n        /* \"#utility.yul\":11835:12015   */\n      pop\n      jump\t// out\n        /* \"#utility.yul\":12021:12387   */\n    tag_167:\n        /* \"#utility.yul\":12163:12166   */\n      0x00\n        /* \"#utility.yul\":12184:12251   */\n      tag_309\n        /* \"#utility.yul\":12248:12250   */\n      0x1e\n        /* \"#utility.yul\":12243:12246   */\n      dup4\n        /* \"#utility.yul\":12184:12251   */\n      tag_159\n      jump\t// in\n    tag_309:\n        /* \"#utility.yul\":12177:12251   */\n      swap2\n      pop\n        /* \"#utility.yul\":12260:12353   */\n      tag_310\n        /* \"#utility.yul\":12349:12352   */\n      dup3\n        /* \"#utility.yul\":12260:12353   */\n      tag_166\n      jump\t// in\n    tag_310:\n        /* \"#utility.yul\":12378:12380   */\n      0x20\n        /* \"#utility.yul\":12373:12376   */\n      dup3\n        /* \"#utility.yul\":12369:12381   */\n      add\n        /* \"#utility.yul\":12362:12381   */\n      swap1\n      pop\n        /* \"#utility.yul\":12021:12387   */\n      swap2\n      swap1\n      pop\n      jump\t// out\n        /* \"#utility.yul\":12393:12812   */\n    tag_87:\n        /* \"#utility.yul\":12559:12563   */\n      0x00\n        /* \"#utility.yul\":12597:12599   */\n      0x20\n        /* \"#utility.yul\":12586:12595   */\n      dup3\n        /* \"#utility.yul\":12582:12600   */\n      add\n        /* \"#utility.yul\":12574:12600   */\n      swap1\n      pop\n        /* \"#utility.yul\":12646:12655   */\n      dup2\n        /* \"#utility.yul\":12640:12644   */\n      dup2\n        /* \"#utility.yul\":12636:12656   */\n      sub\n        /* \"#utility.yul\":12632:12633   */\n      0x00\n        /* \"#utility.yul\":12621:12630   */\n      dup4\n        /* \"#utility.yul\":12617:12634   */\n      add\n        /* \"#utility.yul\":12610:12657   */\n      mstore\n        /* \"#utility.yul\":12674:12805   */\n      tag_312\n        /* \"#utility.yul\":12800:12804   */\n      dup2\n        /* \"#utility.yul\":12674:12805   */\n      tag_167\n      jump\t// in\n    tag_312:\n        /* \"#utility.yul\":12666:12805   */\n      swap1\n      pop\n        /* \"#utility.yul\":12393:12812   */\n      swap2\n      swap1\n      pop\n      jump\t// out\n        /* \"#utility.yul\":12818:12998   */\n    tag_168:\n        /* \"#utility.yul\":12866:12943   */\n      0x4e487b7100000000000000000000000000000000000000000000000000000000\n        /* \"#utility.yul\":12863:12864   */\n      0x00\n        /* \"#utility.yul\":12856:12944   */\n      mstore\n        /* \"#utility.yul\":12963:12967   */\n      0x11\n        /* \"#utility.yul\":12960:12961   */\n      0x04\n        /* \"#utility.yul\":12953:12968   */\n      mstore\n        /* \"#utility.yul\":12987:12991   */\n      0x24\n        /* \"#utility.yul\":12984:12985   */\n      0x00\n        /* \"#utility.yul\":12977:12992   */\n      revert\n        /* \"#utility.yul\":13004:13195   */\n    tag_93:\n        /* \"#utility.yul\":13044:13047   */\n      0x00\n        /* \"#utility.yul\":13063:13083   */\n      tag_315\n        /* \"#utility.yul\":13081:13082   */\n      dup3\n        /* \"#utility.yul\":13063:13083   */\n      tag_133\n      jump\t// in\n    tag_315:\n        /* \"#utility.yul\":13058:13083   */\n      swap2\n      pop\n        /* \"#utility.yul\":13097:13117   */\n      tag_316\n        /* \"#utility.yul\":13115:13116   */\n      dup4\n        /* \"#utility.yul\":13097:13117   */\n      tag_133\n      jump\t// in\n    tag_316:\n        /* \"#utility.yul\":13092:13117   */\n      swap3\n      pop\n        /* \"#utility.yul\":13140:13141   */\n      dup3\n        /* \"#utility.yul\":13137:13138   */\n      dup3\n        /* \"#utility.yul\":13133:13142   */\n      add\n        /* \"#utility.yul\":13126:13142   */\n      swap1\n      pop\n        /* \"#utility.yul\":13161:13164   */\n      dup1\n        /* \"#utility.yul\":13158:13159   */\n      dup3\n        /* \"#utility.yul\":13155:13165   */\n      gt\n        /* \"#utility.yul\":13152:13188   */\n      iszero\n      tag_317\n      jumpi\n        /* \"#utility.yul\":13168:13186   */\n      tag_318\n      tag_168\n      jump\t// in\n    tag_318:\n        /* \"#utility.yul\":13152:13188   */\n    tag_317:\n        /* \"#utility.yul\":13004:13195   */\n      swap3\n      swap2\n      pop\n      pop\n      jump\t// out\n        /* \"#utility.yul\":13201:13341   */\n    tag_169:\n        /* \"#utility.yul\":13249:13253   */\n      0x00\n        /* \"#utility.yul\":13272:13275   */\n      dup2\n        /* \"#utility.yul\":13264:13275   */\n      swap1\n      pop\n        /* \"#utility.yul\":13295:13298   */\n      dup2\n        /* \"#utility.yul\":13292:13293   */\n      0x00\n        /* \"#utility.yul\":13285:13299   */\n      mstore\n        /* \"#utility.yul\":13329:13333   */\n      0x20\n        /* \"#utility.yul\":13326:13327   */\n      0x00\n        /* \"#utility.yul\":13316:13334   */\n      keccak256\n        /* \"#utility.yul\":13308:13334   */\n      swap1\n      pop\n        /* \"#utility.yul\":13201:13341   */\n      swap2\n      swap1\n      pop\n      jump\t// out\n        /* \"#utility.yul\":13347:13440   */\n    tag_170:\n        /* \"#utility.yul\":13384:13390   */\n      0x00\n        /* \"#utility.yul\":13431:13433   */\n      0x20\n        /* \"#utility.yul\":13426:13428   */\n      0x1f\n        /* \"#utility.yul\":13419:13424   */\n      dup4\n        /* \"#utility.yul\":13415:13429   */\n      add\n        /* \"#utility.yul\":13411:13434   */\n      div\n        /* \"#utility.yul\":13401:13434   */\n      swap1\n      pop\n        /* \"#utility.yul\":13347:13440   */\n      swap2\n      swap1\n      pop\n      jump\t// out\n        /* \"#utility.yul\":13446:13553   */\n    tag_171:\n        /* \"#utility.yul\":13490:13498   */\n      0x00\n        /* \"#utility.yul\":13540:13545   */\n      dup3\n        /* \"#utility.yul\":13534:13538   */\n      dup3\n        /* \"#utility.yul\":13530:13546   */\n      shl\n        /* \"#utility.yul\":13509:13546   */\n      swap1\n      pop\n        /* \"#utility.yul\":13446:13553   */\n      swap3\n      swap2\n      pop\n      pop\n      jump\t// out\n        /* \"#utility.yul\":13559:13952   */\n    tag_172:\n        /* \"#utility.yul\":13628:13634   */\n      0x00\n        /* \"#utility.yul\":13678:13679   */\n      0x08\n        /* \"#utility.yul\":13666:13676   */\n      dup4\n        /* \"#utility.yul\":13662:13680   */\n      mul\n        /* \"#utility.yul\":13701:13798   */\n      tag_323\n        /* \"#utility.yul\":13731:13797   */\n      0xffffffffffffffffffffffffffffffffffffffffffffffffffffffffffffffff\n        /* \"#utility.yul\":13720:13729   */\n      dup3\n        /* \"#utility.yul\":13701:13798   */\n      tag_171\n      jump\t// in\n    tag_323:\n        /* \"#utility.yul\":13819:13858   */\n      tag_324\n        /* \"#utility.yul\":13849:13857   */\n      dup7\n        /* \"#utility.yul\":13838:13847   */\n      dup4\n        /* \"#utility.yul\":13819:13858   */\n      tag_171\n      jump\t// in\n    tag_324:\n        /* \"#utility.yul\":13807:13858   */\n      swap6\n      pop\n        /* \"#utility.yul\":13891:13895   */\n      dup1\n        /* \"#utility.yul\":13887:13896   */\n      not\n        /* \"#utility.yul\":13880:13885   */\n      dup5\n        /* \"#utility.yul\":13876:13897   */\n      and\n        /* \"#utility.yul\":13867:13897   */\n      swap4\n      pop\n        /* \"#utility.yul\":13940:13944   */\n      dup1\n        /* \"#utility.yul\":13930:13938   */\n      dup7\n        /* \"#utility.yul\":13926:13945   */\n      and\n        /* \"#utility.yul\":13919:13924   */\n      dup5\n        /* \"#utility.yul\":13916:13946   */\n      or\n        /* \"#utility.yul\":13906:13946   */\n      swap3\n      pop\n        /* \"#utility.yul\":13635:13952   */\n      pop\n      pop\n        /* \"#utility.yul\":13559:13952   */\n      swap4\n      swap3\n      pop\n      pop\n      pop\n      jump\t// out\n        /* \"#utility.yul\":13958:14018   */\n    tag_173:\n        /* \"#utility.yul\":13986:13989   */\n      0x00\n        /* \"#utility.yul\":14007:14012   */\n      dup2\n        /* \"#utility.yul\":14000:14012   */\n      swap1\n      pop\n        /* \"#utility.yul\":13958:14018   */\n      swap2\n      swap1\n      pop\n      jump\t// out\n        /* \"#utility.yul\":14024:14166   */\n    tag_174:\n        /* \"#utility.yul\":14074:14083   */\n      0x00\n        /* \"#utility.yul\":14107:14160   */\n      tag_327\n        /* \"#utility.yul\":14125:14159   */\n      tag_328\n        /* \"#utility.yul\":14134:14158   */\n      tag_329\n        /* \"#utility.yul\":14152:14157   */\n      dup5\n        /* \"#utility.yul\":14134:14158   */\n      tag_133\n      jump\t// in\n    tag_329:\n        /* \"#utility.yul\":14125:14159   */\n      tag_173\n      jump\t// in\n    tag_328:\n        /* \"#utility.yul\":14107:14160   */\n      tag_133\n      jump\t// in\n    tag_327:\n        /* \"#utility.yul\":14094:14160   */\n      swap1\n      pop\n        /* \"#utility.yul\":14024:14166   */\n      swap2\n      swap1\n      pop\n      jump\t// out\n        /* \"#utility.yul\":14172:14247   */\n    tag_175:\n        /* \"#utility.yul\":14215:14218   */\n      0x00\n        /* \"#utility.yul\":14236:14241   */\n      dup2\n        /* \"#utility.yul\":14229:14241   */\n      swap1\n      pop\n        /* \"#utility.yul\":14172:14247   */\n      swap2\n      swap1\n      pop\n      jump\t// out\n        /* \"#utility.yul\":14253:14522   */\n    tag_176:\n        /* \"#utility.yul\":14363:14402   */\n      tag_332\n        /* \"#utility.yul\":14394:14401   */\n      dup4\n        /* \"#utility.yul\":14363:14402   */\n      tag_174\n      jump\t// in\n    tag_332:\n        /* \"#utility.yul\":14424:14515   */\n      tag_333\n        /* \"#utility.yul\":14473:14514   */\n      tag_334\n        /* \"#utility.yul\":14497:14513   */\n      dup3\n        /* \"#utility.yul\":14473:14514   */\n      tag_175\n      jump\t// in\n    tag_334:\n        /* \"#utility.yul\":14465:14471   */\n      dup5\n        /* \"#utility.yul\":14458:14462   */\n      dup5\n        /* \"#utility.yul\":14452:14463   */\n      sload\n        /* \"#utility.yul\":14424:14515   */\n      tag_172\n      jump\t// in\n    tag_333:\n        /* \"#utility.yul\":14418:14422   */\n      dup3\n        /* \"#utility.yul\":14411:14516   */\n      sstore\n        /* \"#utility.yul\":14329:14522   */\n      pop\n        /* \"#utility.yul\":14253:14522   */\n      pop\n      pop\n      pop\n      jump\t// out\n        /* \"#utility.yul\":14528:14601   */\n    tag_177:\n        /* \"#utility.yul\":14573:14576   */\n      0x00\n        /* \"#utility.yul\":14594:14595   */\n      0x00\n        /* \"#utility.yul\":14587:14595   */\n      swap1\n      pop\n        /* \"#utility.yul\":14528:14601   */\n      swap1\n      jump\t// out\n        /* \"#utility.yul\":14607:14796   */\n    tag_178:\n        /* \"#utility.yul\":14684:14716   */\n      tag_337\n      tag_177\n      jump\t// in\n    tag_337:\n        /* \"#utility.yul\":14725:14790   */\n      tag_338\n        /* \"#utility.yul\":14783:14789   */\n      dup2\n        /* \"#utility.yul\":14775:14781   */\n      dup5\n        /* \"#utility.yul\":14769:14773   */\n      dup5\n        /* \"#utility.yul\":14725:14790   */\n      tag_176\n      jump\t// in\n    tag_338:\n        /* \"#utility.yul\":14660:14796   */\n      pop\n        /* \"#utility.yul\":14607:14796   */\n      pop\n      pop\n      jump\t// out\n        /* \"#utility.yul\":14802:14988   */\n    tag_179:\n        /* \"#utility.yul\":14862:14982   */\n    tag_340:\n        /* \"#utility.yul\":14879:14882   */\n      dup2\n        /* \"#utility.yul\":14872:14877   */\n      dup2\n        /* \"#utility.yul\":14869:14883   */\n      lt\n        /* \"#utility.yul\":14862:14982   */\n      iszero\n      tag_342\n      jumpi\n        /* \"#utility.yul\":14933:14972   */\n      tag_343\n        /* \"#utility.yul\":14970:14971   */\n      0x00\n        /* \"#utility.yul\":14963:14968   */\n      dup3\n        /* \"#utility.yul\":14933:14972   */\n      tag_178\n      jump\t// in\n    tag_343:\n        /* \"#utility.yul\":14906:14907   */\n      0x01\n        /* \"#utility.yul\":14899:14904   */\n      dup2\n        /* \"#utility.yul\":14895:14908   */\n      add\n        /* \"#utility.yul\":14886:14908   */\n      swap1\n      pop\n        /* \"#utility.yul\":14862:14982   */\n      jump(tag_340)\n    tag_342:\n        /* \"#utility.yul\":14802:14988   */\n      pop\n      pop\n      jump\t// out\n        /* \"#utility.yul\":14994:15535   */\n    tag_180:\n        /* \"#utility.yul\":15094:15096   */\n      0x1f\n        /* \"#utility.yul\":15089:15092   */\n      dup3\n        /* \"#utility.yul\":15086:15097   */\n      gt\n        /* \"#utility.yul\":15083:15528   */\n      iszero\n      tag_345\n      jumpi\n        /* \"#utility.yul\":15128:15165   */\n      tag_346\n        /* \"#utility.yul\":15159:15164   */\n      dup2\n        /* \"#utility.yul\":15128:15165   */\n      tag_169\n      jump\t// in\n    tag_346:\n        /* \"#utility.yul\":15211:15240   */\n      tag_347\n        /* \"#utility.yul\":15229:15239   */\n      dup5\n        /* \"#utility.yul\":15211:15240   */\n      tag_170\n      jump\t// in\n    tag_347:\n        /* \"#utility.yul\":15201:15209   */\n      dup2\n        /* \"#utility.yul\":15197:15241   */\n      add\n        /* \"#utility.yul\":15394:15396   */\n      0x20\n        /* \"#utility.yul\":15382:15392   */\n      dup6\n        /* \"#utility.yul\":15379:15397   */\n      lt\n        /* \"#utility.yul\":15376:15425   */\n      iszero\n      tag_348\n      jumpi\n        /* \"#utility.yul\":15415:15423   */\n      dup2\n        /* \"#utility.yul\":15400:15423   */\n      swap1\n      pop\n        /* \"#utility.yul\":15376:15425   */\n    tag_348:\n        /* \"#utility.yul\":15438:15518   */\n      tag_349\n        /* \"#utility.yul\":15494:15516   */\n      tag_350\n        /* \"#utility.yul\":15512:15515   */\n      dup6\n        /* \"#utility.yul\":15494:15516   */\n      tag_170\n      jump\t// in\n    tag_350:\n        /* \"#utility.yul\":15484:15492   */\n      dup4\n        /* \"#utility.yul\":15480:15517   */\n      add\n        /* \"#utility.yul\":15467:15478   */\n      dup3\n        /* \"#utility.yul\":15438:15518   */\n      tag_179\n      jump\t// in\n    tag_349:\n        /* \"#utility.yul\":15098:15528   */\n      pop\n      pop\n        /* \"#utility.yul\":15083:15528   */\n    tag_345:\n        /* \"#utility.yul\":14994:15535   */\n      pop\n      pop\n      pop\n      jump\t// out\n        /* \"#utility.yul\":15541:15658   */\n    tag_181:\n        /* \"#utility.yul\":15595:15603   */\n      0x00\n        /* \"#utility.yul\":15645:15650   */\n      dup3\n        /* \"#utility.yul\":15639:15643   */\n      dup3\n        /* \"#utility.yul\":15635:15651   */\n      shr\n        /* \"#utility.yul\":15614:15651   */\n      swap1\n      pop\n        /* \"#utility.yul\":15541:15658   */\n      swap3\n      swap2\n      pop\n      pop\n      jump\t// out\n        /* \"#utility.yul\":15664:15833   */\n    tag_182:\n        /* \"#utility.yul\":15708:15714   */\n      0x00\n        /* \"#utility.yul\":15741:15792   */\n      tag_353\n        /* \"#utility.yul\":15789:15790   */\n      0x00\n        /* \"#utility.yul\":15785:15791   */\n      not\n        /* \"#utility.yul\":15777:15782   */\n      dup5\n        /* \"#utility.yul\":15774:15775   */\n      0x08\n        /* \"#utility.yul\":15770:15783   */\n      mul\n        /* \"#utility.yul\":15741:15792   */\n      tag_181\n      jump\t// in\n    tag_353:\n        /* \"#utility.yul\":15737:15793   */\n      not\n        /* \"#utility.yul\":15822:15826   */\n      dup1\n        /* \"#utility.yul\":15816:15820   */\n      dup4\n        /* \"#utility.yul\":15812:15827   */\n      and\n        /* \"#utility.yul\":15802:15827   */\n      swap2\n      pop\n        /* \"#utility.yul\":15715:15833   */\n      pop\n        /* \"#utility.yul\":15664:15833   */\n      swap3\n      swap2\n      pop\n      pop\n      jump\t// out\n        /* \"#utility.yul\":15838:16133   */\n    tag_183:\n        /* \"#utility.yul\":15914:15918   */\n      0x00\n        /* \"#utility.yul\":16060:16089   */\n      tag_355\n        /* \"#utility.yul\":16085:16088   */\n      dup4\n        /* \"#utility.yul\":16079:16083   */\n      dup4\n        /* \"#utility.yul\":16060:16089   */\n      tag_182\n      jump\t// in\n    tag_355:\n        /* \"#utility.yul\":16052:16089   */\n      swap2\n      pop\n        /* \"#utility.yul\":16122:16125   */\n      dup3\n        /* \"#utility.yul\":16119:16120   */\n      0x02\n        /* \"#utility.yul\":16115:16126   */\n      mul\n        /* \"#utility.yul\":16109:16113   */\n      dup3\n        /* \"#utility.yul\":16106:16127   */\n      or\n        /* \"#utility.yul\":16098:16127   */\n      swap1\n      pop\n        /* \"#utility.yul\":15838:16133   */\n      swap3\n      swap2\n      pop\n      pop\n      jump\t// out\n        /* \"#utility.yul\":16138:17528   */\n    tag_100:\n        /* \"#utility.yul\":16253:16289   */\n      tag_357\n        /* \"#utility.yul\":16285:16288   */\n      dup3\n        /* \"#utility.yul\":16253:16289   */\n      tag_144\n      jump\t// in\n    tag_357:\n        /* \"#utility.yul\":16354:16372   */\n      0xffffffffffffffff\n        /* \"#utility.yul\":16346:16352   */\n      dup2\n        /* \"#utility.yul\":16343:16373   */\n      gt\n        /* \"#utility.yul\":16340:16396   */\n      iszero\n      tag_358\n      jumpi\n        /* \"#utility.yul\":16376:16394   */\n      tag_359\n      tag_151\n      jump\t// in\n    tag_359:\n        /* \"#utility.yul\":16340:16396   */\n    tag_358:\n        /* \"#utility.yul\":16420:16458   */\n      tag_360\n        /* \"#utility.yul\":16452:16456   */\n      dup3\n        /* \"#utility.yul\":16446:16457   */\n      sload\n        /* \"#utility.yul\":16420:16458   */\n      tag_63\n      jump\t// in\n    tag_360:\n        /* \"#utility.yul\":16505:16571   */\n      tag_361\n        /* \"#utility.yul\":16564:16570   */\n      dup3\n        /* \"#utility.yul\":16556:16562   */\n      dup3\n        /* \"#utility.yul\":16550:16554   */\n      dup6\n        /* \"#utility.yul\":16505:16571   */\n      tag_180\n      jump\t// in\n    tag_361:\n        /* \"#utility.yul\":16598:16599   */\n      0x00\n        /* \"#utility.yul\":16622:16626   */\n      0x20\n        /* \"#utility.yul\":16609:16626   */\n      swap1\n      pop\n        /* \"#utility.yul\":16654:16656   */\n      0x1f\n        /* \"#utility.yul\":16646:16652   */\n      dup4\n        /* \"#utility.yul\":16643:16657   */\n      gt\n        /* \"#utility.yul\":16671:16672   */\n      0x01\n        /* \"#utility.yul\":16666:17283   */\n      dup2\n      eq\n      tag_363\n      jumpi\n        /* \"#utility.yul\":17327:17328   */\n      0x00\n        /* \"#utility.yul\":17344:17350   */\n      dup5\n        /* \"#utility.yul\":17341:17418   */\n      iszero\n      tag_364\n      jumpi\n        /* \"#utility.yul\":17393:17402   */\n      dup3\n        /* \"#utility.yul\":17388:17391   */\n      dup8\n        /* \"#utility.yul\":17384:17403   */\n      add\n        /* \"#utility.yul\":17378:17404   */\n      mload\n        /* \"#utility.yul\":17369:17404   */\n      swap1\n      pop\n        /* \"#utility.yul\":17341:17418   */\n    tag_364:\n        /* \"#utility.yul\":17444:17511   */\n      tag_365\n        /* \"#utility.yul\":17504:17510   */\n      dup6\n        /* \"#utility.yul\":17497:17502   */\n      dup3\n        /* \"#utility.yul\":17444:17511   */\n      tag_183\n      jump\t// in\n    tag_365:\n        /* \"#utility.yul\":17438:17442   */\n      dup7\n        /* \"#utility.yul\":17431:17512   */\n      sstore\n        /* \"#utility.yul\":17300:17522   */\n      pop\n        /* \"#utility.yul\":16636:17522   */\n      jump(tag_362)\n        /* \"#utility.yul\":16666:17283   */\n    tag_363:\n        /* \"#utility.yul\":16718:16722   */\n      0x1f\n        /* \"#utility.yul\":16714:16723   */\n      not\n        /* \"#utility.yul\":16706:16712   */\n      dup5\n        /* \"#utility.yul\":16702:16724   */\n      and\n        /* \"#utility.yul\":16752:16788   */\n      tag_366\n        /* \"#utility.yul\":16783:16787   */\n      dup7\n        /* \"#utility.yul\":16752:16788   */\n      tag_169\n      jump\t// in\n    tag_366:\n        /* \"#utility.yul\":16810:16811   */\n      0x00\n        /* \"#utility.yul\":16824:17032   */\n    tag_367:\n        /* \"#utility.yul\":16838:16845   */\n      dup3\n        /* \"#utility.yul\":16835:16836   */\n      dup2\n        /* \"#utility.yul\":16832:16846   */\n      lt\n        /* \"#utility.yul\":16824:17032   */\n      iszero\n      tag_369\n      jumpi\n        /* \"#utility.yul\":16917:16926   */\n      dup5\n        /* \"#utility.yul\":16912:16915   */\n      dup10\n        /* \"#utility.yul\":16908:16927   */\n      add\n        /* \"#utility.yul\":16902:16928   */\n      mload\n        /* \"#utility.yul\":16894:16900   */\n      dup3\n        /* \"#utility.yul\":16887:16929   */\n      sstore\n        /* \"#utility.yul\":16968:16969   */\n      0x01\n        /* \"#utility.yul\":16960:16966   */\n      dup3\n        /* \"#utility.yul\":16956:16970   */\n      add\n        /* \"#utility.yul\":16946:16970   */\n      swap2\n      pop\n        /* \"#utility.yul\":17015:17017   */\n      0x20\n        /* \"#utility.yul\":17004:17013   */\n      dup6\n        /* \"#utility.yul\":17000:17018   */\n      add\n        /* \"#utility.yul\":16987:17018   */\n      swap5\n      pop\n        /* \"#utility.yul\":16861:16865   */\n      0x20\n        /* \"#utility.yul\":16858:16859   */\n      dup2\n        /* \"#utility.yul\":16854:16866   */\n      add\n        /* \"#utility.yul\":16849:16866   */\n      swap1\n      pop\n        /* \"#utility.yul\":16824:17032   */\n      jump(tag_367)\n    tag_369:\n        /* \"#utility.yul\":17060:17066   */\n      dup7\n        /* \"#utility.yul\":17051:17058   */\n      dup4\n        /* \"#utility.yul\":17048:17067   */\n      lt\n        /* \"#utility.yul\":17045:17224   */\n      iszero\n      tag_370\n      jumpi\n        /* \"#utility.yul\":17118:17127   */\n      dup5\n        /* \"#utility.yul\":17113:17116   */\n      dup10\n        /* \"#utility.yul\":17109:17128   */\n      add\n        /* \"#utility.yul\":17103:17129   */\n      mload\n        /* \"#utility.yul\":17161:17209   */\n      tag_371\n        /* \"#utility.yul\":17203:17207   */\n      0x1f\n        /* \"#utility.yul\":17195:17201   */\n      dup10\n        /* \"#utility.yul\":17191:17208   */\n      and\n        /* \"#utility.yul\":17180:17189   */\n      dup3\n        /* \"#utility.yul\":17161:17209   */\n      tag_182\n      jump\t// in\n    tag_371:\n        /* \"#utility.yul\":17153:17159   */\n      dup4\n        /* \"#utility.yul\":17146:17210   */\n      sstore\n        /* \"#utility.yul\":17068:17224   */\n      pop\n        /* \"#utility.yul\":17045:17224   */\n    tag_370:\n        /* \"#utility.yul\":17270:17271   */\n      0x01\n        /* \"#utility.yul\":17266:17267   */\n      0x02\n        /* \"#utility.yul\":17258:17264   */\n      dup9\n        /* \"#utility.yul\":17254:17268   */\n      mul\n        /* \"#utility.yul\":17250:17272   */\n      add\n        /* \"#utility.yul\":17244:17248   */\n      dup9\n        /* \"#utility.yul\":17237:17273   */\n      sstore\n        /* \"#utility.yul\":16673:17283   */\n      pop\n      pop\n      pop\n        /* \"#utility.yul\":16636:17522   */\n    tag_362:\n      pop\n        /* \"#utility.yul\":16228:17528   */\n      pop\n      pop\n      pop\n        /* \"#utility.yul\":16138:17528   */\n      pop\n      pop\n      jump\t// out\n        /* \"#utility.yul\":17534:18063   */\n    tag_102:\n        /* \"#utility.yul\":17701:17705   */\n      0x00\n        /* \"#utility.yul\":17739:17741   */\n      0x60\n        /* \"#utility.yul\":17728:17737   */\n      dup3\n        /* \"#utility.yul\":17724:17742   */\n      add\n        /* \"#utility.yul\":17716:17742   */\n      swap1\n      pop\n        /* \"#utility.yul\":17752:17823   */\n      tag_373\n        /* \"#utility.yul\":17820:17821   */\n      0x00\n        /* \"#utility.yul\":17809:17818   */\n      dup4\n        /* \"#utility.yul\":17805:17822   */\n      add\n        /* \"#utility.yul\":17796:17802   */\n      dup7\n        /* \"#utility.yul\":17752:17823   */\n      tag_138\n      jump\t// in\n    tag_373:\n        /* \"#utility.yul\":17833:17905   */\n      tag_374\n        /* \"#utility.yul\":17901:17903   */\n      0x20\n        /* \"#utility.yul\":17890:17899   */\n      dup4\n        /* \"#utility.yul\":17886:17904   */\n      add\n        /* \"#utility.yul\":17877:17883   */\n      dup6\n        /* \"#utility.yul\":17833:17905   */\n      tag_143\n      jump\t// in\n    tag_374:\n        /* \"#utility.yul\":17952:17961   */\n      dup2\n        /* \"#utility.yul\":17946:17950   */\n      dup2\n        /* \"#utility.yul\":17942:17962   */\n      sub\n        /* \"#utility.yul\":17937:17939   */\n      0x40\n        /* \"#utility.yul\":17926:17935   */\n      dup4\n        /* \"#utility.yul\":17922:17940   */\n      add\n        /* \"#utility.yul\":17915:17963   */\n      mstore\n        /* \"#utility.yul\":17980:18056   */\n      tag_375\n        /* \"#utility.yul\":18051:18055   */\n      dup2\n        /* \"#utility.yul\":18042:18048   */\n      dup5\n        /* \"#utility.yul\":17980:18056   */\n      tag_148\n      jump\t// in\n    tag_375:\n        /* \"#utility.yul\":17972:18056   */\n      swap1\n      pop\n        /* \"#utility.yul\":17534:18063   */\n      swap5\n      swap4\n      pop\n      pop\n      pop\n      pop\n      jump\t// out\n        /* \"#utility.yul\":18069:18296   */\n    tag_184:\n        /* \"#utility.yul\":18209:18243   */\n      0x43616e6e6f7420657865637574653a206e6f7420656e6f75676820636f6e6669\n        /* \"#utility.yul\":18205:18206   */\n      0x00\n        /* \"#utility.yul\":18197:18203   */\n      dup3\n        /* \"#utility.yul\":18193:18207   */\n      add\n        /* \"#utility.yul\":18186:18244   */\n      mstore\n        /* \"#utility.yul\":18278:18288   */\n      0x726d6174696f6e73000000000000000000000000000000000000000000000000\n        /* \"#utility.yul\":18273:18275   */\n      0x20\n        /* \"#utility.yul\":18265:18271   */\n      dup3\n        /* \"#utility.yul\":18261:18276   */\n      add\n        /* \"#utility.yul\":18254:18289   */\n      mstore\n        /* \"#utility.yul\":18069:18296   */\n      pop\n      jump\t// out\n        /* \"#utility.yul\":18302:18668   */\n    tag_185:\n        /* \"#utility.yul\":18444:18447   */\n      0x00\n        /* \"#utility.yul\":18465:18532   */\n      tag_378\n        /* \"#utility.yul\":18529:18531   */\n      0x28\n        /* \"#utility.yul\":18524:18527   */\n      dup4\n        /* \"#utility.yul\":18465:18532   */\n      tag_159\n      jump\t// in\n    tag_378:\n        /* \"#utility.yul\":18458:18532   */\n      swap2\n      pop\n        /* \"#utility.yul\":18541:18634   */\n      tag_379\n        /* \"#utility.yul\":18630:18633   */\n      dup3\n        /* \"#utility.yul\":18541:18634   */\n      tag_184\n      jump\t// in\n    tag_379:\n        /* \"#utility.yul\":18659:18661   */\n      0x40\n        /* \"#utility.yul\":18654:18657   */\n      dup3\n        /* \"#utility.yul\":18650:18662   */\n      add\n        /* \"#utility.yul\":18643:18662   */\n      swap1\n      pop\n        /* \"#utility.yul\":18302:18668   */\n      swap2\n      swap1\n      pop\n      jump\t// out\n        /* \"#utility.yul\":18674:19093   */\n    tag_121:\n        /* \"#utility.yul\":18840:18844   */\n      0x00\n        /* \"#utility.yul\":18878:18880   */\n      0x20\n        /* \"#utility.yul\":18867:18876   */\n      dup3\n        /* \"#utility.yul\":18863:18881   */\n      add\n        /* \"#utility.yul\":18855:18881   */\n      swap1\n      pop\n        /* \"#utility.yul\":18927:18936   */\n      dup2\n        /* \"#utility.yul\":18921:18925   */\n      dup2\n        /* \"#utility.yul\":18917:18937   */\n      sub\n        /* \"#utility.yul\":18913:18914   */\n      0x00\n        /* \"#utility.yul\":18902:18911   */\n      dup4\n        /* \"#utility.yul\":18898:18915   */\n      add\n        /* \"#utility.yul\":18891:18938   */\n      mstore\n        /* \"#utility.yul\":18955:19086   */\n      tag_381\n        /* \"#utility.yul\":19081:19085   */\n      dup2\n        /* \"#utility.yul\":18955:19086   */\n      tag_185\n      jump\t// in\n    tag_381:\n        /* \"#utility.yul\":18947:19086   */\n      swap1\n      pop\n        /* \"#utility.yul\":18674:19093   */\n      swap2\n      swap1\n      pop\n      jump\t// out\n        /* \"#utility.yul\":19099:19246   */\n    tag_186:\n        /* \"#utility.yul\":19200:19211   */\n      0x00\n        /* \"#utility.yul\":19237:19240   */\n      dup2\n        /* \"#utility.yul\":19222:19240   */\n      swap1\n      pop\n        /* \"#utility.yul\":19099:19246   */\n      swap3\n      swap2\n      pop\n      pop\n      jump\t// out\n        /* \"#utility.yul\":19274:20144   */\n    tag_187:\n        /* \"#utility.yul\":19375:19378   */\n      0x00\n        /* \"#utility.yul\":19412:19417   */\n      dup2\n        /* \"#utility.yul\":19406:19418   */\n      sload\n        /* \"#utility.yul\":19441:19477   */\n      tag_384\n        /* \"#utility.yul\":19467:19476   */\n      dup2\n        /* \"#utility.yul\":19441:19477   */\n      tag_63\n      jump\t// in\n    tag_384:\n        /* \"#utility.yul\":19493:19581   */\n      tag_385\n        /* \"#utility.yul\":19574:19580   */\n      dup2\n        /* \"#utility.yul\":19569:19572   */\n      dup7\n        /* \"#utility.yul\":19493:19581   */\n      tag_186\n      jump\t// in\n    tag_385:\n        /* \"#utility.yul\":19486:19581   */\n      swap5\n      pop\n        /* \"#utility.yul\":19612:19613   */\n      0x01\n        /* \"#utility.yul\":19601:19610   */\n      dup3\n        /* \"#utility.yul\":19597:19614   */\n      and\n        /* \"#utility.yul\":19628:19629   */\n      0x00\n        /* \"#utility.yul\":19623:19789   */\n      dup2\n      eq\n      tag_387\n      jumpi\n        /* \"#utility.yul\":19803:19804   */\n      0x01\n        /* \"#utility.yul\":19798:20138   */\n      dup2\n      eq\n      tag_388\n      jumpi\n        /* \"#utility.yul\":19590:20138   */\n      jump(tag_386)\n        /* \"#utility.yul\":19623:19789   */\n    tag_387:\n        /* \"#utility.yul\":19707:19711   */\n      0xff\n        /* \"#utility.yul\":19703:19712   */\n      not\n        /* \"#utility.yul\":19692:19701   */\n      dup4\n        /* \"#utility.yul\":19688:19713   */\n      and\n        /* \"#utility.yul\":19683:19686   */\n      dup7\n        /* \"#utility.yul\":19676:19714   */\n      mstore\n        /* \"#utility.yul\":19769:19775   */\n      dup2\n        /* \"#utility.yul\":19762:19776   */\n      iszero\n        /* \"#utility.yul\":19755:19777   */\n      iszero\n        /* \"#utility.yul\":19747:19753   */\n      dup3\n        /* \"#utility.yul\":19743:19778   */\n      mul\n        /* \"#utility.yul\":19738:19741   */\n      dup7\n        /* \"#utility.yul\":19734:19779   */\n      add\n        /* \"#utility.yul\":19727:19779   */\n      swap4\n      pop\n        /* \"#utility.yul\":19623:19789   */\n      jump(tag_386)\n        /* \"#utility.yul\":19798:20138   */\n    tag_388:\n        /* \"#utility.yul\":19865:19902   */\n      tag_389\n        /* \"#utility.yul\":19896:19901   */\n      dup6\n        /* \"#utility.yul\":19865:19902   */\n      tag_169\n      jump\t// in\n    tag_389:\n        /* \"#utility.yul\":19924:19925   */\n      0x00\n        /* \"#utility.yul\":19938:20092   */\n    tag_390:\n        /* \"#utility.yul\":19952:19958   */\n      dup4\n        /* \"#utility.yul\":19949:19950   */\n      dup2\n        /* \"#utility.yul\":19946:19959   */\n      lt\n        /* \"#utility.yul\":19938:20092   */\n      iszero\n      tag_392\n      jumpi\n        /* \"#utility.yul\":20026:20033   */\n      dup2\n        /* \"#utility.yul\":20020:20034   */\n      sload\n        /* \"#utility.yul\":20016:20017   */\n      dup2\n        /* \"#utility.yul\":20011:20014   */\n      dup10\n        /* \"#utility.yul\":20007:20018   */\n      add\n        /* \"#utility.yul\":20000:20035   */\n      mstore\n        /* \"#utility.yul\":20076:20077   */\n      0x01\n        /* \"#utility.yul\":20067:20074   */\n      dup3\n        /* \"#utility.yul\":20063:20078   */\n      add\n        /* \"#utility.yul\":20052:20078   */\n      swap2\n      pop\n        /* \"#utility.yul\":19974:19978   */\n      0x20\n        /* \"#utility.yul\":19971:19972   */\n      dup2\n        /* \"#utility.yul\":19967:19979   */\n      add\n        /* \"#utility.yul\":19962:19979   */\n      swap1\n      pop\n        /* \"#utility.yul\":19938:20092   */\n      jump(tag_390)\n    tag_392:\n        /* \"#utility.yul\":20121:20127   */\n      dup4\n        /* \"#utility.yul\":20116:20119   */\n      dup9\n        /* \"#utility.yul\":20112:20128   */\n      add\n        /* \"#utility.yul\":20105:20128   */\n      swap6\n      pop\n        /* \"#utility.yul\":19805:20138   */\n      pop\n      pop\n        /* \"#utility.yul\":19590:20138   */\n    tag_386:\n      pop\n        /* \"#utility.yul\":19379:20144   */\n      pop\n      pop\n        /* \"#utility.yul\":19274:20144   */\n      swap3\n      swap2\n      pop\n      pop\n      jump\t// out\n        /* \"#utility.yul\":20150:20415   */\n    tag_123:\n        /* \"#utility.yul\":20277:20280   */\n      0x00\n        /* \"#utility.yul\":20299:20389   */\n      tag_394\n        /* \"#utility.yul\":20385:20388   */\n      dup3\n        /* \"#utility.yul\":20376:20382   */\n      dup5\n        /* \"#utility.yul\":20299:20389   */\n      tag_187\n      jump\t// in\n    tag_394:\n        /* \"#utility.yul\":20292:20389   */\n      swap2\n      pop\n        /* \"#utility.yul\":20406:20409   */\n      dup2\n        /* \"#utility.yul\":20399:20409   */\n      swap1\n      pop\n        /* \"#utility.yul\":20150:20415   */\n      swap3\n      swap2\n      pop\n      pop\n      jump\t// out\n        /* \"#utility.yul\":20421:20589   */\n    tag_188:\n        /* \"#utility.yul\":20561:20581   */\n      0x5472616e73616374696f6e206661696c65640000000000000000000000000000\n        /* \"#utility.yul\":20557:20558   */\n      0x00\n        /* \"#utility.yul\":20549:20555   */\n      dup3\n        /* \"#utility.yul\":20545:20559   */\n      add\n        /* \"#utility.yul\":20538:20582   */\n      mstore\n        /* \"#utility.yul\":20421:20589   */\n      pop\n      jump\t// out\n        /* \"#utility.yul\":20595:20961   */\n    tag_189:\n        /* \"#utility.yul\":20737:20740   */\n      0x00\n        /* \"#utility.yul\":20758:20825   */\n      tag_397\n        /* \"#utility.yul\":20822:20824   */\n      0x12\n        /* \"#utility.yul\":20817:20820   */\n      dup4\n        /* \"#utility.yul\":20758:20825   */\n      tag_159\n      jump\t// in\n    tag_397:\n        /* \"#utility.yul\":20751:20825   */\n      swap2\n      pop\n        /* \"#utility.yul\":20834:20927   */\n      tag_398\n        /* \"#utility.yul\":20923:20926   */\n      dup3\n        /* \"#utility.yul\":20834:20927   */\n      tag_188\n      jump\t// in\n    tag_398:\n        /* \"#utility.yul\":20952:20954   */\n      0x20\n        /* \"#utility.yul\":20947:20950   */\n      dup3\n        /* \"#utility.yul\":20943:20955   */\n      add\n        /* \"#utility.yul\":20936:20955   */\n      swap1\n      pop\n        /* \"#utility.yul\":20595:20961   */\n      swap2\n      swap1\n      pop\n      jump\t// out\n        /* \"#utility.yul\":20967:21386   */\n    tag_129:\n        /* \"#utility.yul\":21133:21137   */\n      0x00\n        /* \"#utility.yul\":21171:21173   */\n      0x20\n        /* \"#utility.yul\":21160:21169   */\n      dup3\n        /* \"#utility.yul\":21156:21174   */\n      add\n        /* \"#utility.yul\":21148:21174   */\n      swap1\n      pop\n        /* \"#utility.yul\":21220:21229   */\n      dup2\n        /* \"#utility.yul\":21214:21218   */\n      dup2\n        /* \"#utility.yul\":21210:21230   */\n      sub\n        /* \"#utility.yul\":21206:21207   */\n      0x00\n        /* \"#utility.yul\":21195:21204   */\n      dup4\n        /* \"#utility.yul\":21191:21208   */\n      add\n        /* \"#utility.yul\":21184:21231   */\n      mstore\n        /* \"#utility.yul\":21248:21379   */\n      tag_400\n        /* \"#utility.yul\":21374:21378   */\n      dup2\n        /* \"#utility.yul\":21248:21379   */\n      tag_189\n      jump\t// in\n    tag_400:\n        /* \"#utility.yul\":21240:21379   */\n      swap1\n      pop\n        /* \"#utility.yul\":20967:21386   */\n      swap2\n      swap1\n      pop\n      jump\t// out\n\n    auxdata: 0xa2646970667358221220dc6c6cab3ff84f44df156845ae14873d2a916b55820030f94d1687f6a9e80af064736f6c634300081f0033\n}\n",
				"bytecode": {
					"linkReferences": {},
					"object": "608060405234801561000f575f5ffd5b50604051611d3e380380611d3e833981810160405281019061003191906104aa565b5f825111610074576040517f08c379a000000000000000000000000000000000000000000000000000000000815260040161006b9061055e565b60405180910390fd5b5f81118015610084575081518111155b6100c3576040517f08c379a00000000000000000000000000000000000000000000000000000000081526004016100ba906105c6565b60405180910390fd5b5f825190505f5f90505b818110156102ac575f8482815181106100e9576100e86105e4565b5b602002602001015190505f73ffffffffffffffffffffffffffffffffffffffff168173ffffffffffffffffffffffffffffffffffffffff1603610161576040517f08c379a00000000000000000000000000000000000000000000000000000000081526004016101589061065b565b60405180910390fd5b60015f8273ffffffffffffffffffffffffffffffffffffffff1673ffffffffffffffffffffffffffffffffffffffff1681526020019081526020015f205f9054906101000a900460ff16156101eb576040517f08c379a00000000000000000000000000000000000000000000000000000000081526004016101e2906106c3565b60405180910390fd5b6001805f8373ffffffffffffffffffffffffffffffffffffffff1673ffffffffffffffffffffffffffffffffffffffff1681526020019081526020015f205f6101000a81548160ff0219169083151502179055505f81908060018154018082558091505060019003905f5260205f20015f9091909190916101000a81548173ffffffffffffffffffffffffffffffffffffffff021916908373ffffffffffffffffffffffffffffffffffffffff1602179055505080806001019150506100cd565b50816002819055505050506106e1565b5f604051905090565b5f5ffd5b5f5ffd5b5f5ffd5b5f601f19601f8301169050919050565b7f4e487b71000000000000000000000000000000000000000000000000000000005f52604160045260245ffd5b610317826102d1565b810181811067ffffffffffffffff82111715610336576103356102e1565b5b80604052505050565b5f6103486102bc565b9050610354828261030e565b919050565b5f67ffffffffffffffff821115610373576103726102e1565b5b602082029050602081019050919050565b5f5ffd5b5f73ffffffffffffffffffffffffffffffffffffffff82169050919050565b5f6103b182610388565b9050919050565b6103c1816103a7565b81146103cb575f5ffd5b50565b5f815190506103dc816103b8565b92915050565b5f6103f46103ef84610359565b61033f565b9050808382526020820190506020840283018581111561041757610416610384565b5b835b81811015610440578061042c88826103ce565b845260208401935050602081019050610419565b5050509392505050565b5f82601f83011261045e5761045d6102cd565b5b815161046e8482602086016103e2565b91505092915050565b5f819050919050565b61048981610477565b8114610493575f5ffd5b50565b5f815190506104a481610480565b92915050565b5f5f604083850312156104c0576104bf6102c5565b5b5f83015167ffffffffffffffff8111156104dd576104dc6102c9565b5b6104e98582860161044a565b92505060206104fa85828601610496565b9150509250929050565b5f82825260208201905092915050565b7f4f776e65727320726571756972656400000000000000000000000000000000005f82015250565b5f610548600f83610504565b915061055382610514565b602082019050919050565b5f6020820190508181035f8301526105758161053c565b9050919050565b7f496e76616c69642072657169726564206e756d626572000000000000000000005f82015250565b5f6105b0601683610504565b91506105bb8261057c565b602082019050919050565b5f6020820190508181035f8301526105dd816105a4565b9050919050565b7f4e487b71000000000000000000000000000000000000000000000000000000005f52603260045260245ffd5b7f496e76616c6964206f776e6572000000000000000000000000000000000000005f82015250565b5f610645600d83610504565b915061065082610611565b602082019050919050565b5f6020820190508181035f83015261067281610639565b9050919050565b7f4f776e6572206e6f7420756e69717565000000000000000000000000000000005f82015250565b5f6106ad601083610504565b91506106b882610679565b602082019050919050565b5f6020820190508181035f8301526106da816106a1565b9050919050565b611650806106ee5f395ff3fe60806040526004361061007e575f3560e01c8063c01a8c841161004d578063c01a8c841461017d578063c6427474146101a5578063dc8452cd146101cd578063ee22610b146101f757610085565b8063025e7c27146100895780632f54bf6e146100c557806380f59a65146101015780639ace38c21461013d57610085565b3661008557005b5f5ffd5b348015610094575f5ffd5b506100af60048036038101906100aa9190610b6e565b61021f565b6040516100bc9190610bd8565b60405180910390f35b3480156100d0575f5ffd5b506100eb60048036038101906100e69190610c1b565b610259565b6040516100f89190610c60565b60405180910390f35b34801561010c575f5ffd5b5061012760048036038101906101229190610c79565b610276565b6040516101349190610c60565b60405180910390f35b348015610148575f5ffd5b50610163600480360381019061015e9190610b6e565b6102a0565b604051610174959493929190610d36565b60405180910390f35b348015610188575f5ffd5b506101a3600480360381019061019e9190610b6e565b610392565b005b3480156101b0575f5ffd5b506101cb60048036038101906101c69190610eba565b61065b565b005b3480156101d8575f5ffd5b506101e161083c565b6040516101ee9190610f26565b60405180910390f35b348015610202575f5ffd5b5061021d60048036038101906102189190610b6e565b610842565b005b5f818154811061022d575f80fd5b905f5260205f20015f915054906101000a900473ffffffffffffffffffffffffffffffffffffffff1681565b6001602052805f5260405f205f915054906101000a900460ff1681565b6004602052815f5260405f20602052805f5260405f205f915091509054906101000a900460ff1681565b600381815481106102af575f80fd5b905f5260205f2090600502015f91509050805f015f9054906101000a900473ffffffffffffffffffffffffffffffffffffffff16908060010154908060020180546102f990610f6c565b80601f016020809104026020016040519081016040528092919081815260200182805461032590610f6c565b80156103705780601f1061034757610100808354040283529160200191610370565b820191905f5260205f20905b81548152906001019060200180831161035357829003601f168201915b505050505090806003015f9054906101000a900460ff16908060040154905085565b60015f3373ffffffffffffffffffffffffffffffffffffffff1673ffffffffffffffffffffffffffffffffffffffff1681526020019081526020015f205f9054906101000a900460ff1661041b576040517f08c379a000000000000000000000000000000000000000000000000000000000815260040161041290610ff6565b60405180910390fd5b806003805490508110610463576040517f08c379a000000000000000000000000000000000000000000000000000000000815260040161045a9061105e565b60405180910390fd5b81600381815481106104785761047761107c565b5b905f5260205f2090600502016003015f9054906101000a900460ff16156104d4576040517f08c379a00000000000000000000000000000000000000000000000000000000081526004016104cb906110f3565b60405180910390fd5b8260045f8281526020019081526020015f205f3373ffffffffffffffffffffffffffffffffffffffff1673ffffffffffffffffffffffffffffffffffffffff1681526020019081526020015f205f9054906101000a900460ff161561056e576040517f08c379a00000000000000000000000000000000000000000000000000000000081526004016105659061115b565b60405180910390fd5b5f600385815481106105835761058261107c565b5b905f5260205f20906005020190506001816004015f8282546105a591906111a6565b92505081905550600160045f8781526020019081526020015f205f3373ffffffffffffffffffffffffffffffffffffffff1673ffffffffffffffffffffffffffffffffffffffff1681526020019081526020015f205f6101000a81548160ff021916908315150217905550843373ffffffffffffffffffffffffffffffffffffffff167f5cbe105e36805f7820e291f799d5794ff948af2a5f664e580382defb6339004160405160405180910390a35050505050565b60015f3373ffffffffffffffffffffffffffffffffffffffff1673ffffffffffffffffffffffffffffffffffffffff1681526020019081526020015f205f9054906101000a900460ff166106e4576040517f08c379a00000000000000000000000000000000000000000000000000000000081526004016106db90610ff6565b60405180910390fd5b5f600380549050905060036040518060a001604052808673ffffffffffffffffffffffffffffffffffffffff1681526020018581526020018481526020015f151581526020015f815250908060018154018082558091505060019003905f5260205f2090600502015f909190919091505f820151815f015f6101000a81548173ffffffffffffffffffffffffffffffffffffffff021916908373ffffffffffffffffffffffffffffffffffffffff1602179055506020820151816001015560408201518160020190816107b79190611379565b506060820151816003015f6101000a81548160ff021916908315150217905550608082015181600401555050803373ffffffffffffffffffffffffffffffffffffffff167fd5a05bf70715ad82a09a756320284a1b54c9ff74cd0f8cce6219e79b563fe59d86868660405161082e93929190611448565b60405180910390a350505050565b60025481565b60015f3373ffffffffffffffffffffffffffffffffffffffff1673ffffffffffffffffffffffffffffffffffffffff1681526020019081526020015f205f9054906101000a900460ff166108cb576040517f08c379a00000000000000000000000000000000000000000000000000000000081526004016108c290610ff6565b60405180910390fd5b806003805490508110610913576040517f08c379a000000000000000000000000000000000000000000000000000000000815260040161090a9061105e565b60405180910390fd5b81600381815481106109285761092761107c565b5b905f5260205f2090600502016003015f9054906101000a900460ff1615610984576040517f08c379a000000000000000000000000000000000000000000000000000000000815260040161097b906110f3565b60405180910390fd5b5f600384815481106109995761099861107c565b5b905f5260205f2090600502019050600254816004015410156109f0576040517f08c379a00000000000000000000000000000000000000000000000000000000081526004016109e7906114f4565b60405180910390fd5b6001816003015f6101000a81548160ff0219169083151502179055505f815f015f9054906101000a900473ffffffffffffffffffffffffffffffffffffffff1673ffffffffffffffffffffffffffffffffffffffff16826001015483600201604051610a5c919061159c565b5f6040518083038185875af1925050503d805f8114610a96576040519150601f19603f3d011682016040523d82523d5f602084013e610a9b565b606091505b5050905080610adf576040517f08c379a0000000000000000000000000000000000000000000000000000000008152600401610ad6906115fc565b60405180910390fd5b843373ffffffffffffffffffffffffffffffffffffffff167f5445f318f4f5fcfb66592e68e0cc5822aa15664039bd5f0ffde24c5a8142b1ac60405160405180910390a35050505050565b5f604051905090565b5f5ffd5b5f5ffd5b5f819050919050565b610b4d81610b3b565b8114610b57575f5ffd5b50565b5f81359050610b6881610b44565b92915050565b5f60208284031215610b8357610b82610b33565b5b5f610b9084828501610b5a565b91505092915050565b5f73ffffffffffffffffffffffffffffffffffffffff82169050919050565b5f610bc282610b99565b9050919050565b610bd281610bb8565b82525050565b5f602082019050610beb5f830184610bc9565b92915050565b610bfa81610bb8565b8114610c04575f5ffd5b50565b5f81359050610c1581610bf1565b92915050565b5f60208284031215610c3057610c2f610b33565b5b5f610c3d84828501610c07565b91505092915050565b5f8115159050919050565b610c5a81610c46565b82525050565b5f602082019050610c735f830184610c51565b92915050565b5f5f60408385031215610c8f57610c8e610b33565b5b5f610c9c85828601610b5a565b9250506020610cad85828601610c07565b9150509250929050565b610cc081610b3b565b82525050565b5f81519050919050565b5f82825260208201905092915050565b8281835e5f83830152505050565b5f601f19601f8301169050919050565b5f610d0882610cc6565b610d128185610cd0565b9350610d22818560208601610ce0565b610d2b81610cee565b840191505092915050565b5f60a082019050610d495f830188610bc9565b610d566020830187610cb7565b8181036040830152610d688186610cfe565b9050610d776060830185610c51565b610d846080830184610cb7565b9695505050505050565b5f5ffd5b5f5ffd5b7f4e487b71000000000000000000000000000000000000000000000000000000005f52604160045260245ffd5b610dcc82610cee565b810181811067ffffffffffffffff82111715610deb57610dea610d96565b5b80604052505050565b5f610dfd610b2a565b9050610e098282610dc3565b919050565b5f67ffffffffffffffff821115610e2857610e27610d96565b5b610e3182610cee565b9050602081019050919050565b828183375f83830152505050565b5f610e5e610e5984610e0e565b610df4565b905082815260208101848484011115610e7a57610e79610d92565b5b610e85848285610e3e565b509392505050565b5f82601f830112610ea157610ea0610d8e565b5b8135610eb1848260208601610e4c565b91505092915050565b5f5f5f60608486031215610ed157610ed0610b33565b5b5f610ede86828701610c07565b9350506020610eef86828701610b5a565b925050604084013567ffffffffffffffff811115610f1057610f0f610b37565b5b610f1c86828701610e8d565b9150509250925092565b5f602082019050610f395f830184610cb7565b92915050565b7f4e487b71000000000000000000000000000000000000000000000000000000005f52602260045260245ffd5b5f6002820490506001821680610f8357607f821691505b602082108103610f9657610f95610f3f565b5b50919050565b5f82825260208201905092915050565b7f4e6f74206f776e657200000000000000000000000000000000000000000000005f82015250565b5f610fe0600983610f9c565b9150610feb82610fac565b602082019050919050565b5f6020820190508181035f83015261100d81610fd4565b9050919050565b7f5472616e73616374696f6e73206e6f74206578697374730000000000000000005f82015250565b5f611048601783610f9c565b915061105382611014565b602082019050919050565b5f6020820190508181035f8301526110758161103c565b9050919050565b7f4e487b71000000000000000000000000000000000000000000000000000000005f52603260045260245ffd5b7f5472616e73616374696f6e7320616c72656164792065786563757465640000005f82015250565b5f6110dd601d83610f9c565b91506110e8826110a9565b602082019050919050565b5f6020820190508181035f83015261110a816110d1565b9050919050565b7f5472616e73616374696f6e7320616c726561647920636f6e6669726d656400005f82015250565b5f611145601e83610f9c565b915061115082611111565b602082019050919050565b5f6020820190508181035f83015261117281611139565b9050919050565b7f4e487b71000000000000000000000000000000000000000000000000000000005f52601160045260245ffd5b5f6111b082610b3b565b91506111bb83610b3b565b92508282019050808211156111d3576111d2611179565b5b92915050565b5f819050815f5260205f209050919050565b5f6020601f8301049050919050565b5f82821b905092915050565b5f600883026112357fffffffffffffffffffffffffffffffffffffffffffffffffffffffffffffffff826111fa565b61123f86836111fa565b95508019841693508086168417925050509392505050565b5f819050919050565b5f61127a61127561127084610b3b565b611257565b610b3b565b9050919050565b5f819050919050565b61129383611260565b6112a761129f82611281565b848454611206565b825550505050565b5f5f905090565b6112be6112af565b6112c981848461128a565b505050565b5b818110156112ec576112e15f826112b6565b6001810190506112cf565b5050565b601f82111561133157611302816111d9565b61130b846111eb565b8101602085101561131a578190505b61132e611326856111eb565b8301826112ce565b50505b505050565b5f82821c905092915050565b5f6113515f1984600802611336565b1980831691505092915050565b5f6113698383611342565b9150826002028217905092915050565b61138282610cc6565b67ffffffffffffffff81111561139b5761139a610d96565b5b6113a58254610f6c565b6113b08282856112f0565b5f60209050601f8311600181146113e1575f84156113cf578287015190505b6113d9858261135e565b865550611440565b601f1984166113ef866111d9565b5f5b82811015611416578489015182556001820191506020850194506020810190506113f1565b86831015611433578489015161142f601f891682611342565b8355505b6001600288020188555050505b505050505050565b5f60608201905061145b5f830186610bc9565b6114686020830185610cb7565b818103604083015261147a8184610cfe565b9050949350505050565b7f43616e6e6f7420657865637574653a206e6f7420656e6f75676820636f6e66695f8201527f726d6174696f6e73000000000000000000000000000000000000000000000000602082015250565b5f6114de602883610f9c565b91506114e982611484565b604082019050919050565b5f6020820190508181035f83015261150b816114d2565b9050919050565b5f81905092915050565b5f815461152881610f6c565b6115328186611512565b9450600182165f811461154c576001811461156157611593565b60ff1983168652811515820286019350611593565b61156a856111d9565b5f5b8381101561158b5781548189015260018201915060208101905061156c565b838801955050505b50505092915050565b5f6115a7828461151c565b915081905092915050565b7f5472616e73616374696f6e206661696c656400000000000000000000000000005f82015250565b5f6115e6601283610f9c565b91506115f1826115b2565b602082019050919050565b5f6020820190508181035f830152611613816115da565b905091905056fea2646970667358221220dc6c6cab3ff84f44df156845ae14873d2a916b55820030f94d1687f6a9e80af064736f6c634300081f0033",
					"opcodes": "PUSH1 0x80 PUSH1 0x40 MSTORE CALLVALUE DUP1 ISZERO PUSH2 0xF JUMPI PUSH0 PUSH0 REVERT JUMPDEST POP PUSH1 0x40 MLOAD PUSH2 0x1D3E CODESIZE SUB DUP1 PUSH2 0x1D3E DUP4 CODECOPY DUP2 DUP2 ADD PUSH1 0x40 MSTORE DUP2 ADD SWAP1 PUSH2 0x31 SWAP2 SWAP1 PUSH2 0x4AA JUMP JUMPDEST PUSH0 DUP3 MLOAD GT PUSH2 0x74 JUMPI PUSH1 0x40 MLOAD PUSH32 0x8C379A000000000000000000000000000000000000000000000000000000000 DUP2 MSTORE PUSH1 0x4 ADD PUSH2 0x6B SWAP1 PUSH2 0x55E JUMP JUMPDEST PUSH1 0x40 MLOAD DUP1 SWAP2 SUB SWAP1 REVERT JUMPDEST PUSH0 DUP2 GT DUP1 ISZERO PUSH2 0x84 JUMPI POP DUP2 MLOAD DUP2 GT ISZERO JUMPDEST PUSH2 0xC3 JUMPI PUSH1 0x40 MLOAD PUSH32 0x8C379A000000000000000000000000000000000000000000000000000000000 DUP2 MSTORE PUSH1 0x4 ADD PUSH2 0xBA SWAP1 PUSH2 0x5C6 JUMP JUMPDEST PUSH1 0x40 MLOAD DUP1 SWAP2 SUB SWAP1 REVERT JUMPDEST PUSH0 DUP3 MLOAD SWAP1 POP PUSH0 PUSH0 SWAP1 POP JUMPDEST DUP2 DUP2 LT ISZERO PUSH2 0x2AC JUMPI PUSH0 DUP5 DUP3 DUP2 MLOAD DUP2 LT PUSH2 0xE9 JUMPI PUSH2 0xE8 PUSH2 0x5E4 JUMP JUMPDEST JUMPDEST PUSH1 0x20 MUL PUSH1 0x20 ADD ADD MLOAD SWAP1 POP PUSH0 PUSH20 0xFFFFFFFFFFFFFFFFFFFFFFFFFFFFFFFFFFFFFFFF AND DUP2 PUSH20 0xFFFFFFFFFFFFFFFFFFFFFFFFFFFFFFFFFFFFFFFF AND SUB PUSH2 0x161 JUMPI PUSH1 0x40 MLOAD PUSH32 0x8C379A000000000000000000000000000000000000000000000000000000000 DUP2 MSTORE PUSH1 0x4 ADD PUSH2 0x158 SWAP1 PUSH2 0x65B JUMP JUMPDEST PUSH1 0x40 MLOAD DUP1 SWAP2 SUB SWAP1 REVERT JUMPDEST PUSH1 0x1 PUSH0 DUP3 PUSH20 0xFFFFFFFFFFFFFFFFFFFFFFFFFFFFFFFFFFFFFFFF AND PUSH20 0xFFFFFFFFFFFFFFFFFFFFFFFFFFFFFFFFFFFFFFFF AND DUP2 MSTORE PUSH1 0x20 ADD SWAP1 DUP2 MSTORE PUSH1 0x20 ADD PUSH0 KECCAK256 PUSH0 SWAP1 SLOAD SWAP1 PUSH2 0x100 EXP SWAP1 DIV PUSH1 0xFF AND ISZERO PUSH2 0x1EB JUMPI PUSH1 0x40 MLOAD PUSH32 0x8C379A000000000000000000000000000000000000000000000000000000000 DUP2 MSTORE PUSH1 0x4 ADD PUSH2 0x1E2 SWAP1 PUSH2 0x6C3 JUMP JUMPDEST PUSH1 0x40 MLOAD DUP1 SWAP2 SUB SWAP1 REVERT JUMPDEST PUSH1 0x1 DUP1 PUSH0 DUP4 PUSH20 0xFFFFFFFFFFFFFFFFFFFFFFFFFFFFFFFFFFFFFFFF AND PUSH20 0xFFFFFFFFFFFFFFFFFFFFFFFFFFFFFFFFFFFFFFFF AND DUP2 MSTORE PUSH1 0x20 ADD SWAP1 DUP2 MSTORE PUSH1 0x20 ADD PUSH0 KECCAK256 PUSH0 PUSH2 0x100 EXP DUP2 SLOAD DUP2 PUSH1 0xFF MUL NOT AND SWAP1 DUP4 ISZERO ISZERO MUL OR SWAP1 SSTORE POP PUSH0 DUP2 SWAP1 DUP1 PUSH1 0x1 DUP2 SLOAD ADD DUP1 DUP3 SSTORE DUP1 SWAP2 POP POP PUSH1 0x1 SWAP1 SUB SWAP1 PUSH0 MSTORE PUSH1 0x20 PUSH0 KECCAK256 ADD PUSH0 SWAP1 SWAP2 SWAP1 SWAP2 SWAP1 SWAP2 PUSH2 0x100 EXP DUP2 SLOAD DUP2 PUSH20 0xFFFFFFFFFFFFFFFFFFFFFFFFFFFFFFFFFFFFFFFF MUL NOT AND SWAP1 DUP4 PUSH20 0xFFFFFFFFFFFFFFFFFFFFFFFFFFFFFFFFFFFFFFFF AND MUL OR SWAP1 SSTORE POP POP DUP1 DUP1 PUSH1 0x1 ADD SWAP2 POP POP PUSH2 0xCD JUMP JUMPDEST POP DUP2 PUSH1 0x2 DUP2 SWAP1 SSTORE POP POP POP POP PUSH2 0x6E1 JUMP JUMPDEST PUSH0 PUSH1 0x40 MLOAD SWAP1 POP SWAP1 JUMP JUMPDEST PUSH0 PUSH0 REVERT JUMPDEST PUSH0 PUSH0 REVERT JUMPDEST PUSH0 PUSH0 REVERT JUMPDEST PUSH0 PUSH1 0x1F NOT PUSH1 0x1F DUP4 ADD AND SWAP1 POP SWAP2 SWAP1 POP JUMP JUMPDEST PUSH32 0x4E487B7100000000000000000000000000000000000000000000000000000000 PUSH0 MSTORE PUSH1 0x41 PUSH1 0x4 MSTORE PUSH1 0x24 PUSH0 REVERT JUMPDEST PUSH2 0x317 DUP3 PUSH2 0x2D1 JUMP JUMPDEST DUP2 ADD DUP2 DUP2 LT PUSH8 0xFFFFFFFFFFFFFFFF DUP3 GT OR ISZERO PUSH2 0x336 JUMPI PUSH2 0x335 PUSH2 0x2E1 JUMP JUMPDEST JUMPDEST DUP1 PUSH1 0x40 MSTORE POP POP POP JUMP JUMPDEST PUSH0 PUSH2 0x348 PUSH2 0x2BC JUMP JUMPDEST SWAP1 POP PUSH2 0x354 DUP3 DUP3 PUSH2 0x30E JUMP JUMPDEST SWAP2 SWAP1 POP JUMP JUMPDEST PUSH0 PUSH8 0xFFFFFFFFFFFFFFFF DUP3 GT ISZERO PUSH2 0x373 JUMPI PUSH2 0x372 PUSH2 0x2E1 JUMP JUMPDEST JUMPDEST PUSH1 0x20 DUP3 MUL SWAP1 POP PUSH1 0x20 DUP2 ADD SWAP1 POP SWAP2 SWAP1 POP JUMP JUMPDEST PUSH0 PUSH0 REVERT JUMPDEST PUSH0 PUSH20 0xFFFFFFFFFFFFFFFFFFFFFFFFFFFFFFFFFFFFFFFF DUP3 AND SWAP1 POP SWAP2 SWAP1 POP JUMP JUMPDEST PUSH0 PUSH2 0x3B1 DUP3 PUSH2 0x388 JUMP JUMPDEST SWAP1 POP SWAP2 SWAP1 POP JUMP JUMPDEST PUSH2 0x3C1 DUP2 PUSH2 0x3A7 JUMP JUMPDEST DUP2 EQ PUSH2 0x3CB JUMPI PUSH0 PUSH0 REVERT JUMPDEST POP JUMP JUMPDEST PUSH0 DUP2 MLOAD SWAP1 POP PUSH2 0x3DC DUP2 PUSH2 0x3B8 JUMP JUMPDEST SWAP3 SWAP2 POP POP JUMP JUMPDEST PUSH0 PUSH2 0x3F4 PUSH2 0x3EF DUP5 PUSH2 0x359 JUMP JUMPDEST PUSH2 0x33F JUMP JUMPDEST SWAP1 POP DUP1 DUP4 DUP3 MSTORE PUSH1 0x20 DUP3 ADD SWAP1 POP PUSH1 0x20 DUP5 MUL DUP4 ADD DUP6 DUP2 GT ISZERO PUSH2 0x417 JUMPI PUSH2 0x416 PUSH2 0x384 JUMP JUMPDEST JUMPDEST DUP4 JUMPDEST DUP2 DUP2 LT ISZERO PUSH2 0x440 JUMPI DUP1 PUSH2 0x42C DUP9 DUP3 PUSH2 0x3CE JUMP JUMPDEST DUP5 MSTORE PUSH1 0x20 DUP5 ADD SWAP4 POP POP PUSH1 0x20 DUP2 ADD SWAP1 POP PUSH2 0x419 JUMP JUMPDEST POP POP POP SWAP4 SWAP3 POP POP POP JUMP JUMPDEST PUSH0 DUP3 PUSH1 0x1F DUP4 ADD SLT PUSH2 0x45E JUMPI PUSH2 0x45D PUSH2 0x2CD JUMP JUMPDEST JUMPDEST DUP2 MLOAD PUSH2 0x46E DUP5 DUP3 PUSH1 0x20 DUP7 ADD PUSH2 0x3E2 JUMP JUMPDEST SWAP2 POP POP SWAP3 SWAP2 POP POP JUMP JUMPDEST PUSH0 DUP2 SWAP1 POP SWAP2 SWAP1 POP JUMP JUMPDEST PUSH2 0x489 DUP2 PUSH2 0x477 JUMP JUMPDEST DUP2 EQ PUSH2 0x493 JUMPI PUSH0 PUSH0 REVERT JUMPDEST POP JUMP JUMPDEST PUSH0 DUP2 MLOAD SWAP1 POP PUSH2 0x4A4 DUP2 PUSH2 0x480 JUMP JUMPDEST SWAP3 SWAP2 POP POP JUMP JUMPDEST PUSH0 PUSH0 PUSH1 0x40 DUP4 DUP6 SUB SLT ISZERO PUSH2 0x4C0 JUMPI PUSH2 0x4BF PUSH2 0x2C5 JUMP JUMPDEST JUMPDEST PUSH0 DUP4 ADD MLOAD PUSH8 0xFFFFFFFFFFFFFFFF DUP2 GT ISZERO PUSH2 0x4DD JUMPI PUSH2 0x4DC PUSH2 0x2C9 JUMP JUMPDEST JUMPDEST PUSH2 0x4E9 DUP6 DUP3 DUP7 ADD PUSH2 0x44A JUMP JUMPDEST SWAP3 POP POP PUSH1 0x20 PUSH2 0x4FA DUP6 DUP3 DUP7 ADD PUSH2 0x496 JUMP JUMPDEST SWAP2 POP POP SWAP3 POP SWAP3 SWAP1 POP JUMP JUMPDEST PUSH0 DUP3 DUP3 MSTORE PUSH1 0x20 DUP3 ADD SWAP1 POP SWAP3 SWAP2 POP POP JUMP JUMPDEST PUSH32 0x4F776E6572732072657175697265640000000000000000000000000000000000 PUSH0 DUP3 ADD MSTORE POP JUMP JUMPDEST PUSH0 PUSH2 0x548 PUSH1 0xF DUP4 PUSH2 0x504 JUMP JUMPDEST SWAP2 POP PUSH2 0x553 DUP3 PUSH2 0x514 JUMP JUMPDEST PUSH1 0x20 DUP3 ADD SWAP1 POP SWAP2 SWAP1 POP JUMP JUMPDEST PUSH0 PUSH1 0x20 DUP3 ADD SWAP1 POP DUP2 DUP2 SUB PUSH0 DUP4 ADD MSTORE PUSH2 0x575 DUP2 PUSH2 0x53C JUMP JUMPDEST SWAP1 POP SWAP2 SWAP1 POP JUMP JUMPDEST PUSH32 0x496E76616C69642072657169726564206E756D62657200000000000000000000 PUSH0 DUP3 ADD MSTORE POP JUMP JUMPDEST PUSH0 PUSH2 0x5B0 PUSH1 0x16 DUP4 PUSH2 0x504 JUMP JUMPDEST SWAP2 POP PUSH2 0x5BB DUP3 PUSH2 0x57C JUMP JUMPDEST PUSH1 0x20 DUP3 ADD SWAP1 POP SWAP2 SWAP1 POP JUMP JUMPDEST PUSH0 PUSH1 0x20 DUP3 ADD SWAP1 POP DUP2 DUP2 SUB PUSH0 DUP4 ADD MSTORE PUSH2 0x5DD DUP2 PUSH2 0x5A4 JUMP JUMPDEST SWAP1 POP SWAP2 SWAP1 POP JUMP JUMPDEST PUSH32 0x4E487B7100000000000000000000000000000000000000000000000000000000 PUSH0 MSTORE PUSH1 0x32 PUSH1 0x4 MSTORE PUSH1 0x24 PUSH0 REVERT JUMPDEST PUSH32 0x496E76616C6964206F776E657200000000000000000000000000000000000000 PUSH0 DUP3 ADD MSTORE POP JUMP JUMPDEST PUSH0 PUSH2 0x645 PUSH1 0xD DUP4 PUSH2 0x504 JUMP JUMPDEST SWAP2 POP PUSH2 0x650 DUP3 PUSH2 0x611 JUMP JUMPDEST PUSH1 0x20 DUP3 ADD SWAP1 POP SWAP2 SWAP1 POP JUMP JUMPDEST PUSH0 PUSH1 0x20 DUP3 ADD SWAP1 POP DUP2 DUP2 SUB PUSH0 DUP4 ADD MSTORE PUSH2 0x672 DUP2 PUSH2 0x639 JUMP JUMPDEST SWAP1 POP SWAP2 SWAP1 POP JUMP JUMPDEST PUSH32 0x4F776E6572206E6F7420756E6971756500000000000000000000000000000000 PUSH0 DUP3 ADD MSTORE POP JUMP JUMPDEST PUSH0 PUSH2 0x6AD PUSH1 0x10 DUP4 PUSH2 0x504 JUMP JUMPDEST SWAP2 POP PUSH2 0x6B8 DUP3 PUSH2 0x679 JUMP JUMPDEST PUSH1 0x20 DUP3 ADD SWAP1 POP SWAP2 SWAP1 POP JUMP JUMPDEST PUSH0 PUSH1 0x20 DUP3 ADD SWAP1 POP DUP2 DUP2 SUB PUSH0 DUP4 ADD MSTORE PUSH2 0x6DA DUP2 PUSH2 0x6A1 JUMP JUMPDEST SWAP1 POP SWAP2 SWAP1 POP JUMP JUMPDEST PUSH2 0x1650 DUP1 PUSH2 0x6EE PUSH0 CODECOPY PUSH0 RETURN INVALID PUSH1 0x80 PUSH1 0x40 MSTORE PUSH1 0x4 CALLDATASIZE LT PUSH2 0x7E JUMPI PUSH0 CALLDATALOAD PUSH1 0xE0 SHR DUP1 PUSH4 0xC01A8C84 GT PUSH2 0x4D JUMPI DUP1 PUSH4 0xC01A8C84 EQ PUSH2 0x17D JUMPI DUP1 PUSH4 0xC6427474 EQ PUSH2 0x1A5 JUMPI DUP1 PUSH4 0xDC8452CD EQ PUSH2 0x1CD JUMPI DUP1 PUSH4 0xEE22610B EQ PUSH2 0x1F7 JUMPI PUSH2 0x85 JUMP JUMPDEST DUP1 PUSH4 0x25E7C27 EQ PUSH2 0x89 JUMPI DUP1 PUSH4 0x2F54BF6E EQ PUSH2 0xC5 JUMPI DUP1 PUSH4 0x80F59A65 EQ PUSH2 0x101 JUMPI DUP1 PUSH4 0x9ACE38C2 EQ PUSH2 0x13D JUMPI PUSH2 0x85 JUMP JUMPDEST CALLDATASIZE PUSH2 0x85 JUMPI STOP JUMPDEST PUSH0 PUSH0 REVERT JUMPDEST CALLVALUE DUP1 ISZERO PUSH2 0x94 JUMPI PUSH0 PUSH0 REVERT JUMPDEST POP PUSH2 0xAF PUSH1 0x4 DUP1 CALLDATASIZE SUB DUP2 ADD SWAP1 PUSH2 0xAA SWAP2 SWAP1 PUSH2 0xB6E JUMP JUMPDEST PUSH2 0x21F JUMP JUMPDEST PUSH1 0x40 MLOAD PUSH2 0xBC SWAP2 SWAP1 PUSH2 0xBD8 JUMP JUMPDEST PUSH1 0x40 MLOAD DUP1 SWAP2 SUB SWAP1 RETURN JUMPDEST CALLVALUE DUP1 ISZERO PUSH2 0xD0 JUMPI PUSH0 PUSH0 REVERT JUMPDEST POP PUSH2 0xEB PUSH1 0x4 DUP1 CALLDATASIZE SUB DUP2 ADD SWAP1 PUSH2 0xE6 SWAP2 SWAP1 PUSH2 0xC1B JUMP JUMPDEST PUSH2 0x259 JUMP JUMPDEST PUSH1 0x40 MLOAD PUSH2 0xF8 SWAP2 SWAP1 PUSH2 0xC60 JUMP JUMPDEST PUSH1 0x40 MLOAD DUP1 SWAP2 SUB SWAP1 RETURN JUMPDEST CALLVALUE DUP1 ISZERO PUSH2 0x10C JUMPI PUSH0 PUSH0 REVERT JUMPDEST POP PUSH2 0x127 PUSH1 0x4 DUP1 CALLDATASIZE SUB DUP2 ADD SWAP1 PUSH2 0x122 SWAP2 SWAP1 PUSH2 0xC79 JUMP JUMPDEST PUSH2 0x276 JUMP JUMPDEST PUSH1 0x40 MLOAD PUSH2 0x134 SWAP2 SWAP1 PUSH2 0xC60 JUMP JUMPDEST PUSH1 0x40 MLOAD DUP1 SWAP2 SUB SWAP1 RETURN JUMPDEST CALLVALUE DUP1 ISZERO PUSH2 0x148 JUMPI PUSH0 PUSH0 REVERT JUMPDEST POP PUSH2 0x163 PUSH1 0x4 DUP1 CALLDATASIZE SUB DUP2 ADD SWAP1 PUSH2 0x15E SWAP2 SWAP1 PUSH2 0xB6E JUMP JUMPDEST PUSH2 0x2A0 JUMP JUMPDEST PUSH1 0x40 MLOAD PUSH2 0x174 SWAP6 SWAP5 SWAP4 SWAP3 SWAP2 SWAP1 PUSH2 0xD36 JUMP JUMPDEST PUSH1 0x40 MLOAD DUP1 SWAP2 SUB SWAP1 RETURN JUMPDEST CALLVALUE DUP1 ISZERO PUSH2 0x188 JUMPI PUSH0 PUSH0 REVERT JUMPDEST POP PUSH2 0x1A3 PUSH1 0x4 DUP1 CALLDATASIZE SUB DUP2 ADD SWAP1 PUSH2 0x19E SWAP2 SWAP1 PUSH2 0xB6E JUMP JUMPDEST PUSH2 0x392 JUMP JUMPDEST STOP JUMPDEST CALLVALUE DUP1 ISZERO PUSH2 0x1B0 JUMPI PUSH0 PUSH0 REVERT JUMPDEST POP PUSH2 0x1CB PUSH1 0x4 DUP1 CALLDATASIZE SUB DUP2 ADD SWAP1 PUSH2 0x1C6 SWAP2 SWAP1 PUSH2 0xEBA JUMP JUMPDEST PUSH2 0x65B JUMP JUMPDEST STOP JUMPDEST CALLVALUE DUP1 ISZERO PUSH2 0x1D8 JUMPI PUSH0 PUSH0 REVERT JUMPDEST POP PUSH2 0x1E1 PUSH2 0x83C JUMP JUMPDEST PUSH1 0x40 MLOAD PUSH2 0x1EE SWAP2 SWAP1 PUSH2 0xF26 JUMP JUMPDEST PUSH1 0x40 MLOAD DUP1 SWAP2 SUB SWAP1 RETURN JUMPDEST CALLVALUE DUP1 ISZERO PUSH2 0x202 JUMPI PUSH0 PUSH0 REVERT JUMPDEST POP PUSH2 0x21D PUSH1 0x4 DUP1 CALLDATASIZE SUB DUP2 ADD SWAP1 PUSH2 0x218 SWAP2 SWAP1 PUSH2 0xB6E JUMP JUMPDEST PUSH2 0x842 JUMP JUMPDEST STOP JUMPDEST PUSH0 DUP2 DUP2 SLOAD DUP2 LT PUSH2 0x22D JUMPI PUSH0 DUP1 REVERT JUMPDEST SWAP1 PUSH0 MSTORE PUSH1 0x20 PUSH0 KECCAK256 ADD PUSH0 SWAP2 POP SLOAD SWAP1 PUSH2 0x100 EXP SWAP1 DIV PUSH20 0xFFFFFFFFFFFFFFFFFFFFFFFFFFFFFFFFFFFFFFFF AND DUP2 JUMP JUMPDEST PUSH1 0x1 PUSH1 0x20 MSTORE DUP1 PUSH0 MSTORE PUSH1 0x40 PUSH0 KECCAK256 PUSH0 SWAP2 POP SLOAD SWAP1 PUSH2 0x100 EXP SWAP1 DIV PUSH1 0xFF AND DUP2 JUMP JUMPDEST PUSH1 0x4 PUSH1 0x20 MSTORE DUP2 PUSH0 MSTORE PUSH1 0x40 PUSH0 KECCAK256 PUSH1 0x20 MSTORE DUP1 PUSH0 MSTORE PUSH1 0x40 PUSH0 KECCAK256 PUSH0 SWAP2 POP SWAP2 POP SWAP1 SLOAD SWAP1 PUSH2 0x100 EXP SWAP1 DIV PUSH1 0xFF AND DUP2 JUMP JUMPDEST PUSH1 0x3 DUP2 DUP2 SLOAD DUP2 LT PUSH2 0x2AF JUMPI PUSH0 DUP1 REVERT JUMPDEST SWAP1 PUSH0 MSTORE PUSH1 0x20 PUSH0 KECCAK256 SWAP1 PUSH1 0x5 MUL ADD PUSH0 SWAP2 POP SWAP1 POP DUP1 PUSH0 ADD PUSH0 SWAP1 SLOAD SWAP1 PUSH2 0x100 EXP SWAP1 DIV PUSH20 0xFFFFFFFFFFFFFFFFFFFFFFFFFFFFFFFFFFFFFFFF AND SWAP1 DUP1 PUSH1 0x1 ADD SLOAD SWAP1 DUP1 PUSH1 0x2 ADD DUP1 SLOAD PUSH2 0x2F9 SWAP1 PUSH2 0xF6C JUMP JUMPDEST DUP1 PUSH1 0x1F ADD PUSH1 0x20 DUP1 SWAP2 DIV MUL PUSH1 0x20 ADD PUSH1 0x40 MLOAD SWAP1 DUP2 ADD PUSH1 0x40 MSTORE DUP1 SWAP3 SWAP2 SWAP1 DUP2 DUP2 MSTORE PUSH1 0x20 ADD DUP3 DUP1 SLOAD PUSH2 0x325 SWAP1 PUSH2 0xF6C JUMP JUMPDEST DUP1 ISZERO PUSH2 0x370 JUMPI DUP1 PUSH1 0x1F LT PUSH2 0x347 JUMPI PUSH2 0x100 DUP1 DUP4 SLOAD DIV MUL DUP4 MSTORE SWAP2 PUSH1 0x20 ADD SWAP2 PUSH2 0x370 JUMP JUMPDEST DUP3 ADD SWAP2 SWAP1 PUSH0 MSTORE PUSH1 0x20 PUSH0 KECCAK256 SWAP1 JUMPDEST DUP2 SLOAD DUP2 MSTORE SWAP1 PUSH1 0x1 ADD SWAP1 PUSH1 0x20 ADD DUP1 DUP4 GT PUSH2 0x353 JUMPI DUP3 SWAP1 SUB PUSH1 0x1F AND DUP3 ADD SWAP2 JUMPDEST POP POP POP POP POP SWAP1 DUP1 PUSH1 0x3 ADD PUSH0 SWAP1 SLOAD SWAP1 PUSH2 0x100 EXP SWAP1 DIV PUSH1 0xFF AND SWAP1 DUP1 PUSH1 0x4 ADD SLOAD SWAP1 POP DUP6 JUMP JUMPDEST PUSH1 0x1 PUSH0 CALLER PUSH20 0xFFFFFFFFFFFFFFFFFFFFFFFFFFFFFFFFFFFFFFFF AND PUSH20 0xFFFFFFFFFFFFFFFFFFFFFFFFFFFFFFFFFFFFFFFF AND DUP2 MSTORE PUSH1 0x20 ADD SWAP1 DUP2 MSTORE PUSH1 0x20 ADD PUSH0 KECCAK256 PUSH0 SWAP1 SLOAD SWAP1 PUSH2 0x100 EXP SWAP1 DIV PUSH1 0xFF AND PUSH2 0x41B JUMPI PUSH1 0x40 MLOAD PUSH32 0x8C379A000000000000000000000000000000000000000000000000000000000 DUP2 MSTORE PUSH1 0x4 ADD PUSH2 0x412 SWAP1 PUSH2 0xFF6 JUMP JUMPDEST PUSH1 0x40 MLOAD DUP1 SWAP2 SUB SWAP1 REVERT JUMPDEST DUP1 PUSH1 0x3 DUP1 SLOAD SWAP1 POP DUP2 LT PUSH2 0x463 JUMPI PUSH1 0x40 MLOAD PUSH32 0x8C379A000000000000000000000000000000000000000000000000000000000 DUP2 MSTORE PUSH1 0x4 ADD PUSH2 0x45A SWAP1 PUSH2 0x105E JUMP JUMPDEST PUSH1 0x40 MLOAD DUP1 SWAP2 SUB SWAP1 REVERT JUMPDEST DUP2 PUSH1 0x3 DUP2 DUP2 SLOAD DUP2 LT PUSH2 0x478 JUMPI PUSH2 0x477 PUSH2 0x107C JUMP JUMPDEST JUMPDEST SWAP1 PUSH0 MSTORE PUSH1 0x20 PUSH0 KECCAK256 SWAP1 PUSH1 0x5 MUL ADD PUSH1 0x3 ADD PUSH0 SWAP1 SLOAD SWAP1 PUSH2 0x100 EXP SWAP1 DIV PUSH1 0xFF AND ISZERO PUSH2 0x4D4 JUMPI PUSH1 0x40 MLOAD PUSH32 0x8C379A000000000000000000000000000000000000000000000000000000000 DUP2 MSTORE PUSH1 0x4 ADD PUSH2 0x4CB SWAP1 PUSH2 0x10F3 JUMP JUMPDEST PUSH1 0x40 MLOAD DUP1 SWAP2 SUB SWAP1 REVERT JUMPDEST DUP3 PUSH1 0x4 PUSH0 DUP3 DUP2 MSTORE PUSH1 0x20 ADD SWAP1 DUP2 MSTORE PUSH1 0x20 ADD PUSH0 KECCAK256 PUSH0 CALLER PUSH20 0xFFFFFFFFFFFFFFFFFFFFFFFFFFFFFFFFFFFFFFFF AND PUSH20 0xFFFFFFFFFFFFFFFFFFFFFFFFFFFFFFFFFFFFFFFF AND DUP2 MSTORE PUSH1 0x20 ADD SWAP1 DUP2 MSTORE PUSH1 0x20 ADD PUSH0 KECCAK256 PUSH0 SWAP1 SLOAD SWAP1 PUSH2 0x100 EXP SWAP1 DIV PUSH1 0xFF AND ISZERO PUSH2 0x56E JUMPI PUSH1 0x40 MLOAD PUSH32 0x8C379A000000000000000000000000000000000000000000000000000000000 DUP2 MSTORE PUSH1 0x4 ADD PUSH2 0x565 SWAP1 PUSH2 0x115B JUMP JUMPDEST PUSH1 0x40 MLOAD DUP1 SWAP2 SUB SWAP1 REVERT JUMPDEST PUSH0 PUSH1 0x3 DUP6 DUP2 SLOAD DUP2 LT PUSH2 0x583 JUMPI PUSH2 0x582 PUSH2 0x107C JUMP JUMPDEST JUMPDEST SWAP1 PUSH0 MSTORE PUSH1 0x20 PUSH0 KECCAK256 SWAP1 PUSH1 0x5 MUL ADD SWAP1 POP PUSH1 0x1 DUP2 PUSH1 0x4 ADD PUSH0 DUP3 DUP3 SLOAD PUSH2 0x5A5 SWAP2 SWAP1 PUSH2 0x11A6 JUMP JUMPDEST SWAP3 POP POP DUP2 SWAP1 SSTORE POP PUSH1 0x1 PUSH1 0x4 PUSH0 DUP8 DUP2 MSTORE PUSH1 0x20 ADD SWAP1 DUP2 MSTORE PUSH1 0x20 ADD PUSH0 KECCAK256 PUSH0 CALLER PUSH20 0xFFFFFFFFFFFFFFFFFFFFFFFFFFFFFFFFFFFFFFFF AND PUSH20 0xFFFFFFFFFFFFFFFFFFFFFFFFFFFFFFFFFFFFFFFF AND DUP2 MSTORE PUSH1 0x20 ADD SWAP1 DUP2 MSTORE PUSH1 0x20 ADD PUSH0 KECCAK256 PUSH0 PUSH2 0x100 EXP DUP2 SLOAD DUP2 PUSH1 0xFF MUL NOT AND SWAP1 DUP4 ISZERO ISZERO MUL OR SWAP1 SSTORE POP DUP5 CALLER PUSH20 0xFFFFFFFFFFFFFFFFFFFFFFFFFFFFFFFFFFFFFFFF AND PUSH32 0x5CBE105E36805F7820E291F799D5794FF948AF2A5F664E580382DEFB63390041 PUSH1 0x40 MLOAD PUSH1 0x40 MLOAD DUP1 SWAP2 SUB SWAP1 LOG3 POP POP POP POP POP JUMP JUMPDEST PUSH1 0x1 PUSH0 CALLER PUSH20 0xFFFFFFFFFFFFFFFFFFFFFFFFFFFFFFFFFFFFFFFF AND PUSH20 0xFFFFFFFFFFFFFFFFFFFFFFFFFFFFFFFFFFFFFFFF AND DUP2 MSTORE PUSH1 0x20 ADD SWAP1 DUP2 MSTORE PUSH1 0x20 ADD PUSH0 KECCAK256 PUSH0 SWAP1 SLOAD SWAP1 PUSH2 0x100 EXP SWAP1 DIV PUSH1 0xFF AND PUSH2 0x6E4 JUMPI PUSH1 0x40 MLOAD PUSH32 0x8C379A000000000000000000000000000000000000000000000000000000000 DUP2 MSTORE PUSH1 0x4 ADD PUSH2 0x6DB SWAP1 PUSH2 0xFF6 JUMP JUMPDEST PUSH1 0x40 MLOAD DUP1 SWAP2 SUB SWAP1 REVERT JUMPDEST PUSH0 PUSH1 0x3 DUP1 SLOAD SWAP1 POP SWAP1 POP PUSH1 0x3 PUSH1 0x40 MLOAD DUP1 PUSH1 0xA0 ADD PUSH1 0x40 MSTORE DUP1 DUP7 PUSH20 0xFFFFFFFFFFFFFFFFFFFFFFFFFFFFFFFFFFFFFFFF AND DUP2 MSTORE PUSH1 0x20 ADD DUP6 DUP2 MSTORE PUSH1 0x20 ADD DUP5 DUP2 MSTORE PUSH1 0x20 ADD PUSH0 ISZERO ISZERO DUP2 MSTORE PUSH1 0x20 ADD PUSH0 DUP2 MSTORE POP SWAP1 DUP1 PUSH1 0x1 DUP2 SLOAD ADD DUP1 DUP3 SSTORE DUP1 SWAP2 POP POP PUSH1 0x1 SWAP1 SUB SWAP1 PUSH0 MSTORE PUSH1 0x20 PUSH0 KECCAK256 SWAP1 PUSH1 0x5 MUL ADD PUSH0 SWAP1 SWAP2 SWAP1 SWAP2 SWAP1 SWAP2 POP PUSH0 DUP3 ADD MLOAD DUP2 PUSH0 ADD PUSH0 PUSH2 0x100 EXP DUP2 SLOAD DUP2 PUSH20 0xFFFFFFFFFFFFFFFFFFFFFFFFFFFFFFFFFFFFFFFF MUL NOT AND SWAP1 DUP4 PUSH20 0xFFFFFFFFFFFFFFFFFFFFFFFFFFFFFFFFFFFFFFFF AND MUL OR SWAP1 SSTORE POP PUSH1 0x20 DUP3 ADD MLOAD DUP2 PUSH1 0x1 ADD SSTORE PUSH1 0x40 DUP3 ADD MLOAD DUP2 PUSH1 0x2 ADD SWAP1 DUP2 PUSH2 0x7B7 SWAP2 SWAP1 PUSH2 0x1379 JUMP JUMPDEST POP PUSH1 0x60 DUP3 ADD MLOAD DUP2 PUSH1 0x3 ADD PUSH0 PUSH2 0x100 EXP DUP2 SLOAD DUP2 PUSH1 0xFF MUL NOT AND SWAP1 DUP4 ISZERO ISZERO MUL OR SWAP1 SSTORE POP PUSH1 0x80 DUP3 ADD MLOAD DUP2 PUSH1 0x4 ADD SSTORE POP POP DUP1 CALLER PUSH20 0xFFFFFFFFFFFFFFFFFFFFFFFFFFFFFFFFFFFFFFFF AND PUSH32 0xD5A05BF70715AD82A09A756320284A1B54C9FF74CD0F8CCE6219E79B563FE59D DUP7 DUP7 DUP7 PUSH1 0x40 MLOAD PUSH2 0x82E SWAP4 SWAP3 SWAP2 SWAP1 PUSH2 0x1448 JUMP JUMPDEST PUSH1 0x40 MLOAD DUP1 SWAP2 SUB SWAP1 LOG3 POP POP POP POP JUMP JUMPDEST PUSH1 0x2 SLOAD DUP2 JUMP JUMPDEST PUSH1 0x1 PUSH0 CALLER PUSH20 0xFFFFFFFFFFFFFFFFFFFFFFFFFFFFFFFFFFFFFFFF AND PUSH20 0xFFFFFFFFFFFFFFFFFFFFFFFFFFFFFFFFFFFFFFFF AND DUP2 MSTORE PUSH1 0x20 ADD SWAP1 DUP2 MSTORE PUSH1 0x20 ADD PUSH0 KECCAK256 PUSH0 SWAP1 SLOAD SWAP1 PUSH2 0x100 EXP SWAP1 DIV PUSH1 0xFF AND PUSH2 0x8CB JUMPI PUSH1 0x40 MLOAD PUSH32 0x8C379A000000000000000000000000000000000000000000000000000000000 DUP2 MSTORE PUSH1 0x4 ADD PUSH2 0x8C2 SWAP1 PUSH2 0xFF6 JUMP JUMPDEST PUSH1 0x40 MLOAD DUP1 SWAP2 SUB SWAP1 REVERT JUMPDEST DUP1 PUSH1 0x3 DUP1 SLOAD SWAP1 POP DUP2 LT PUSH2 0x913 JUMPI PUSH1 0x40 MLOAD PUSH32 0x8C379A000000000000000000000000000000000000000000000000000000000 DUP2 MSTORE PUSH1 0x4 ADD PUSH2 0x90A SWAP1 PUSH2 0x105E JUMP JUMPDEST PUSH1 0x40 MLOAD DUP1 SWAP2 SUB SWAP1 REVERT JUMPDEST DUP2 PUSH1 0x3 DUP2 DUP2 SLOAD DUP2 LT PUSH2 0x928 JUMPI PUSH2 0x927 PUSH2 0x107C JUMP JUMPDEST JUMPDEST SWAP1 PUSH0 MSTORE PUSH1 0x20 PUSH0 KECCAK256 SWAP1 PUSH1 0x5 MUL ADD PUSH1 0x3 ADD PUSH0 SWAP1 SLOAD SWAP1 PUSH2 0x100 EXP SWAP1 DIV PUSH1 0xFF AND ISZERO PUSH2 0x984 JUMPI PUSH1 0x40 MLOAD PUSH32 0x8C379A000000000000000000000000000000000000000000000000000000000 DUP2 MSTORE PUSH1 0x4 ADD PUSH2 0x97B SWAP1 PUSH2 0x10F3 JUMP JUMPDEST PUSH1 0x40 MLOAD DUP1 SWAP2 SUB SWAP1 REVERT JUMPDEST PUSH0 PUSH1 0x3 DUP5 DUP2 SLOAD DUP2 LT PUSH2 0x999 JUMPI PUSH2 0x998 PUSH2 0x107C JUMP JUMPDEST JUMPDEST SWAP1 PUSH0 MSTORE PUSH1 0x20 PUSH0 KECCAK256 SWAP1 PUSH1 0x5 MUL ADD SWAP1 POP PUSH1 0x2 SLOAD DUP2 PUSH1 0x4 ADD SLOAD LT ISZERO PUSH2 0x9F0 JUMPI PUSH1 0x40 MLOAD PUSH32 0x8C379A000000000000000000000000000000000000000000000000000000000 DUP2 MSTORE PUSH1 0x4 ADD PUSH2 0x9E7 SWAP1 PUSH2 0x14F4 JUMP JUMPDEST PUSH1 0x40 MLOAD DUP1 SWAP2 SUB SWAP1 REVERT JUMPDEST PUSH1 0x1 DUP2 PUSH1 0x3 ADD PUSH0 PUSH2 0x100 EXP DUP2 SLOAD DUP2 PUSH1 0xFF MUL NOT AND SWAP1 DUP4 ISZERO ISZERO MUL OR SWAP1 SSTORE POP PUSH0 DUP2 PUSH0 ADD PUSH0 SWAP1 SLOAD SWAP1 PUSH2 0x100 EXP SWAP1 DIV PUSH20 0xFFFFFFFFFFFFFFFFFFFFFFFFFFFFFFFFFFFFFFFF AND PUSH20 0xFFFFFFFFFFFFFFFFFFFFFFFFFFFFFFFFFFFFFFFF AND DUP3 PUSH1 0x1 ADD SLOAD DUP4 PUSH1 0x2 ADD PUSH1 0x40 MLOAD PUSH2 0xA5C SWAP2 SWAP1 PUSH2 0x159C JUMP JUMPDEST PUSH0 PUSH1 0x40 MLOAD DUP1 DUP4 SUB DUP2 DUP6 DUP8 GAS CALL SWAP3 POP POP POP RETURNDATASIZE DUP1 PUSH0 DUP2 EQ PUSH2 0xA96 JUMPI PUSH1 0x40 MLOAD SWAP2 POP PUSH1 0x1F NOT PUSH1 0x3F RETURNDATASIZE ADD AND DUP3 ADD PUSH1 0x40 MSTORE RETURNDATASIZE DUP3 MSTORE RETURNDATASIZE PUSH0 PUSH1 0x20 DUP5 ADD RETURNDATACOPY PUSH2 0xA9B JUMP JUMPDEST PUSH1 0x60 SWAP2 POP JUMPDEST POP POP SWAP1 POP DUP1 PUSH2 0xADF JUMPI PUSH1 0x40 MLOAD PUSH32 0x8C379A000000000000000000000000000000000000000000000000000000000 DUP2 MSTORE PUSH1 0x4 ADD PUSH2 0xAD6 SWAP1 PUSH2 0x15FC JUMP JUMPDEST PUSH1 0x40 MLOAD DUP1 SWAP2 SUB SWAP1 REVERT JUMPDEST DUP5 CALLER PUSH20 0xFFFFFFFFFFFFFFFFFFFFFFFFFFFFFFFFFFFFFFFF AND PUSH32 0x5445F318F4F5FCFB66592E68E0CC5822AA15664039BD5F0FFDE24C5A8142B1AC PUSH1 0x40 MLOAD PUSH1 0x40 MLOAD DUP1 SWAP2 SUB SWAP1 LOG3 POP POP POP POP POP JUMP JUMPDEST PUSH0 PUSH1 0x40 MLOAD SWAP1 POP SWAP1 JUMP JUMPDEST PUSH0 PUSH0 REVERT JUMPDEST PUSH0 PUSH0 REVERT JUMPDEST PUSH0 DUP2 SWAP1 POP SWAP2 SWAP1 POP JUMP JUMPDEST PUSH2 0xB4D DUP2 PUSH2 0xB3B JUMP JUMPDEST DUP2 EQ PUSH2 0xB57 JUMPI PUSH0 PUSH0 REVERT JUMPDEST POP JUMP JUMPDEST PUSH0 DUP2 CALLDATALOAD SWAP1 POP PUSH2 0xB68 DUP2 PUSH2 0xB44 JUMP JUMPDEST SWAP3 SWAP2 POP POP JUMP JUMPDEST PUSH0 PUSH1 0x20 DUP3 DUP5 SUB SLT ISZERO PUSH2 0xB83 JUMPI PUSH2 0xB82 PUSH2 0xB33 JUMP JUMPDEST JUMPDEST PUSH0 PUSH2 0xB90 DUP5 DUP3 DUP6 ADD PUSH2 0xB5A JUMP JUMPDEST SWAP2 POP POP SWAP3 SWAP2 POP POP JUMP JUMPDEST PUSH0 PUSH20 0xFFFFFFFFFFFFFFFFFFFFFFFFFFFFFFFFFFFFFFFF DUP3 AND SWAP1 POP SWAP2 SWAP1 POP JUMP JUMPDEST PUSH0 PUSH2 0xBC2 DUP3 PUSH2 0xB99 JUMP JUMPDEST SWAP1 POP SWAP2 SWAP1 POP JUMP JUMPDEST PUSH2 0xBD2 DUP2 PUSH2 0xBB8 JUMP JUMPDEST DUP3 MSTORE POP POP JUMP JUMPDEST PUSH0 PUSH1 0x20 DUP3 ADD SWAP1 POP PUSH2 0xBEB PUSH0 DUP4 ADD DUP5 PUSH2 0xBC9 JUMP JUMPDEST SWAP3 SWAP2 POP POP JUMP JUMPDEST PUSH2 0xBFA DUP2 PUSH2 0xBB8 JUMP JUMPDEST DUP2 EQ PUSH2 0xC04 JUMPI PUSH0 PUSH0 REVERT JUMPDEST POP JUMP JUMPDEST PUSH0 DUP2 CALLDATALOAD SWAP1 POP PUSH2 0xC15 DUP2 PUSH2 0xBF1 JUMP JUMPDEST SWAP3 SWAP2 POP POP JUMP JUMPDEST PUSH0 PUSH1 0x20 DUP3 DUP5 SUB SLT ISZERO PUSH2 0xC30 JUMPI PUSH2 0xC2F PUSH2 0xB33 JUMP JUMPDEST JUMPDEST PUSH0 PUSH2 0xC3D DUP5 DUP3 DUP6 ADD PUSH2 0xC07 JUMP JUMPDEST SWAP2 POP POP SWAP3 SWAP2 POP POP JUMP JUMPDEST PUSH0 DUP2 ISZERO ISZERO SWAP1 POP SWAP2 SWAP1 POP JUMP JUMPDEST PUSH2 0xC5A DUP2 PUSH2 0xC46 JUMP JUMPDEST DUP3 MSTORE POP POP JUMP JUMPDEST PUSH0 PUSH1 0x20 DUP3 ADD SWAP1 POP PUSH2 0xC73 PUSH0 DUP4 ADD DUP5 PUSH2 0xC51 JUMP JUMPDEST SWAP3 SWAP2 POP POP JUMP JUMPDEST PUSH0 PUSH0 PUSH1 0x40 DUP4 DUP6 SUB SLT ISZERO PUSH2 0xC8F JUMPI PUSH2 0xC8E PUSH2 0xB33 JUMP JUMPDEST JUMPDEST PUSH0 PUSH2 0xC9C DUP6 DUP3 DUP7 ADD PUSH2 0xB5A JUMP JUMPDEST SWAP3 POP POP PUSH1 0x20 PUSH2 0xCAD DUP6 DUP3 DUP7 ADD PUSH2 0xC07 JUMP JUMPDEST SWAP2 POP POP SWAP3 POP SWAP3 SWAP1 POP JUMP JUMPDEST PUSH2 0xCC0 DUP2 PUSH2 0xB3B JUMP JUMPDEST DUP3 MSTORE POP POP JUMP JUMPDEST PUSH0 DUP2 MLOAD SWAP1 POP SWAP2 SWAP1 POP JUMP JUMPDEST PUSH0 DUP3 DUP3 MSTORE PUSH1 0x20 DUP3 ADD SWAP1 POP SWAP3 SWAP2 POP POP JUMP JUMPDEST DUP3 DUP2 DUP4 MCOPY PUSH0 DUP4 DUP4 ADD MSTORE POP POP POP JUMP JUMPDEST PUSH0 PUSH1 0x1F NOT PUSH1 0x1F DUP4 ADD AND SWAP1 POP SWAP2 SWAP1 POP JUMP JUMPDEST PUSH0 PUSH2 0xD08 DUP3 PUSH2 0xCC6 JUMP JUMPDEST PUSH2 0xD12 DUP2 DUP6 PUSH2 0xCD0 JUMP JUMPDEST SWAP4 POP PUSH2 0xD22 DUP2 DUP6 PUSH1 0x20 DUP7 ADD PUSH2 0xCE0 JUMP JUMPDEST PUSH2 0xD2B DUP2 PUSH2 0xCEE JUMP JUMPDEST DUP5 ADD SWAP2 POP POP SWAP3 SWAP2 POP POP JUMP JUMPDEST PUSH0 PUSH1 0xA0 DUP3 ADD SWAP1 POP PUSH2 0xD49 PUSH0 DUP4 ADD DUP9 PUSH2 0xBC9 JUMP JUMPDEST PUSH2 0xD56 PUSH1 0x20 DUP4 ADD DUP8 PUSH2 0xCB7 JUMP JUMPDEST DUP2 DUP2 SUB PUSH1 0x40 DUP4 ADD MSTORE PUSH2 0xD68 DUP2 DUP7 PUSH2 0xCFE JUMP JUMPDEST SWAP1 POP PUSH2 0xD77 PUSH1 0x60 DUP4 ADD DUP6 PUSH2 0xC51 JUMP JUMPDEST PUSH2 0xD84 PUSH1 0x80 DUP4 ADD DUP5 PUSH2 0xCB7 JUMP JUMPDEST SWAP7 SWAP6 POP POP POP POP POP POP JUMP JUMPDEST PUSH0 PUSH0 REVERT JUMPDEST PUSH0 PUSH0 REVERT JUMPDEST PUSH32 0x4E487B7100000000000000000000000000000000000000000000000000000000 PUSH0 MSTORE PUSH1 0x41 PUSH1 0x4 MSTORE PUSH1 0x24 PUSH0 REVERT JUMPDEST PUSH2 0xDCC DUP3 PUSH2 0xCEE JUMP JUMPDEST DUP2 ADD DUP2 DUP2 LT PUSH8 0xFFFFFFFFFFFFFFFF DUP3 GT OR ISZERO PUSH2 0xDEB JUMPI PUSH2 0xDEA PUSH2 0xD96 JUMP JUMPDEST JUMPDEST DUP1 PUSH1 0x40 MSTORE POP POP POP JUMP JUMPDEST PUSH0 PUSH2 0xDFD PUSH2 0xB2A JUMP JUMPDEST SWAP1 POP PUSH2 0xE09 DUP3 DUP3 PUSH2 0xDC3 JUMP JUMPDEST SWAP2 SWAP1 POP JUMP JUMPDEST PUSH0 PUSH8 0xFFFFFFFFFFFFFFFF DUP3 GT ISZERO PUSH2 0xE28 JUMPI PUSH2 0xE27 PUSH2 0xD96 JUMP JUMPDEST JUMPDEST PUSH2 0xE31 DUP3 PUSH2 0xCEE JUMP JUMPDEST SWAP1 POP PUSH1 0x20 DUP2 ADD SWAP1 POP SWAP2 SWAP1 POP JUMP JUMPDEST DUP3 DUP2 DUP4 CALLDATACOPY PUSH0 DUP4 DUP4 ADD MSTORE POP POP POP JUMP JUMPDEST PUSH0 PUSH2 0xE5E PUSH2 0xE59 DUP5 PUSH2 0xE0E JUMP JUMPDEST PUSH2 0xDF4 JUMP JUMPDEST SWAP1 POP DUP3 DUP2 MSTORE PUSH1 0x20 DUP2 ADD DUP5 DUP5 DUP5 ADD GT ISZERO PUSH2 0xE7A JUMPI PUSH2 0xE79 PUSH2 0xD92 JUMP JUMPDEST JUMPDEST PUSH2 0xE85 DUP5 DUP3 DUP6 PUSH2 0xE3E JUMP JUMPDEST POP SWAP4 SWAP3 POP POP POP JUMP JUMPDEST PUSH0 DUP3 PUSH1 0x1F DUP4 ADD SLT PUSH2 0xEA1 JUMPI PUSH2 0xEA0 PUSH2 0xD8E JUMP JUMPDEST JUMPDEST DUP2 CALLDATALOAD PUSH2 0xEB1 DUP5 DUP3 PUSH1 0x20 DUP7 ADD PUSH2 0xE4C JUMP JUMPDEST SWAP2 POP POP SWAP3 SWAP2 POP POP JUMP JUMPDEST PUSH0 PUSH0 PUSH0 PUSH1 0x60 DUP5 DUP7 SUB SLT ISZERO PUSH2 0xED1 JUMPI PUSH2 0xED0 PUSH2 0xB33 JUMP JUMPDEST JUMPDEST PUSH0 PUSH2 0xEDE DUP7 DUP3 DUP8 ADD PUSH2 0xC07 JUMP JUMPDEST SWAP4 POP POP PUSH1 0x20 PUSH2 0xEEF DUP7 DUP3 DUP8 ADD PUSH2 0xB5A JUMP JUMPDEST SWAP3 POP POP PUSH1 0x40 DUP5 ADD CALLDATALOAD PUSH8 0xFFFFFFFFFFFFFFFF DUP2 GT ISZERO PUSH2 0xF10 JUMPI PUSH2 0xF0F PUSH2 0xB37 JUMP JUMPDEST JUMPDEST PUSH2 0xF1C DUP7 DUP3 DUP8 ADD PUSH2 0xE8D JUMP JUMPDEST SWAP2 POP POP SWAP3 POP SWAP3 POP SWAP3 JUMP JUMPDEST PUSH0 PUSH1 0x20 DUP3 ADD SWAP1 POP PUSH2 0xF39 PUSH0 DUP4 ADD DUP5 PUSH2 0xCB7 JUMP JUMPDEST SWAP3 SWAP2 POP POP JUMP JUMPDEST PUSH32 0x4E487B7100000000000000000000000000000000000000000000000000000000 PUSH0 MSTORE PUSH1 0x22 PUSH1 0x4 MSTORE PUSH1 0x24 PUSH0 REVERT JUMPDEST PUSH0 PUSH1 0x2 DUP3 DIV SWAP1 POP PUSH1 0x1 DUP3 AND DUP1 PUSH2 0xF83 JUMPI PUSH1 0x7F DUP3 AND SWAP2 POP JUMPDEST PUSH1 0x20 DUP3 LT DUP2 SUB PUSH2 0xF96 JUMPI PUSH2 0xF95 PUSH2 0xF3F JUMP JUMPDEST JUMPDEST POP SWAP2 SWAP1 POP JUMP JUMPDEST PUSH0 DUP3 DUP3 MSTORE PUSH1 0x20 DUP3 ADD SWAP1 POP SWAP3 SWAP2 POP POP JUMP JUMPDEST PUSH32 0x4E6F74206F776E65720000000000000000000000000000000000000000000000 PUSH0 DUP3 ADD MSTORE POP JUMP JUMPDEST PUSH0 PUSH2 0xFE0 PUSH1 0x9 DUP4 PUSH2 0xF9C JUMP JUMPDEST SWAP2 POP PUSH2 0xFEB DUP3 PUSH2 0xFAC JUMP JUMPDEST PUSH1 0x20 DUP3 ADD SWAP1 POP SWAP2 SWAP1 POP JUMP JUMPDEST PUSH0 PUSH1 0x20 DUP3 ADD SWAP1 POP DUP2 DUP2 SUB PUSH0 DUP4 ADD MSTORE PUSH2 0x100D DUP2 PUSH2 0xFD4 JUMP JUMPDEST SWAP1 POP SWAP2 SWAP1 POP JUMP JUMPDEST PUSH32 0x5472616E73616374696F6E73206E6F7420657869737473000000000000000000 PUSH0 DUP3 ADD MSTORE POP JUMP JUMPDEST PUSH0 PUSH2 0x1048 PUSH1 0x17 DUP4 PUSH2 0xF9C JUMP JUMPDEST SWAP2 POP PUSH2 0x1053 DUP3 PUSH2 0x1014 JUMP JUMPDEST PUSH1 0x20 DUP3 ADD SWAP1 POP SWAP2 SWAP1 POP JUMP JUMPDEST PUSH0 PUSH1 0x20 DUP3 ADD SWAP1 POP DUP2 DUP2 SUB PUSH0 DUP4 ADD MSTORE PUSH2 0x1075 DUP2 PUSH2 0x103C JUMP JUMPDEST SWAP1 POP SWAP2 SWAP1 POP JUMP JUMPDEST PUSH32 0x4E487B7100000000000000000000000000000000000000000000000000000000 PUSH0 MSTORE PUSH1 0x32 PUSH1 0x4 MSTORE PUSH1 0x24 PUSH0 REVERT JUMPDEST PUSH32 0x5472616E73616374696F6E7320616C7265616479206578656375746564000000 PUSH0 DUP3 ADD MSTORE POP JUMP JUMPDEST PUSH0 PUSH2 0x10DD PUSH1 0x1D DUP4 PUSH2 0xF9C JUMP JUMPDEST SWAP2 POP PUSH2 0x10E8 DUP3 PUSH2 0x10A9 JUMP JUMPDEST PUSH1 0x20 DUP3 ADD SWAP1 POP SWAP2 SWAP1 POP JUMP JUMPDEST PUSH0 PUSH1 0x20 DUP3 ADD SWAP1 POP DUP2 DUP2 SUB PUSH0 DUP4 ADD MSTORE PUSH2 0x110A DUP2 PUSH2 0x10D1 JUMP JUMPDEST SWAP1 POP SWAP2 SWAP1 POP JUMP JUMPDEST PUSH32 0x5472616E73616374696F6E7320616C726561647920636F6E6669726D65640000 PUSH0 DUP3 ADD MSTORE POP JUMP JUMPDEST PUSH0 PUSH2 0x1145 PUSH1 0x1E DUP4 PUSH2 0xF9C JUMP JUMPDEST SWAP2 POP PUSH2 0x1150 DUP3 PUSH2 0x1111 JUMP JUMPDEST PUSH1 0x20 DUP3 ADD SWAP1 POP SWAP2 SWAP1 POP JUMP JUMPDEST PUSH0 PUSH1 0x20 DUP3 ADD SWAP1 POP DUP2 DUP2 SUB PUSH0 DUP4 ADD MSTORE PUSH2 0x1172 DUP2 PUSH2 0x1139 JUMP JUMPDEST SWAP1 POP SWAP2 SWAP1 POP JUMP JUMPDEST PUSH32 0x4E487B7100000000000000000000000000000000000000000000000000000000 PUSH0 MSTORE PUSH1 0x11 PUSH1 0x4 MSTORE PUSH1 0x24 PUSH0 REVERT JUMPDEST PUSH0 PUSH2 0x11B0 DUP3 PUSH2 0xB3B JUMP JUMPDEST SWAP2 POP PUSH2 0x11BB DUP4 PUSH2 0xB3B JUMP JUMPDEST SWAP3 POP DUP3 DUP3 ADD SWAP1 POP DUP1 DUP3 GT ISZERO PUSH2 0x11D3 JUMPI PUSH2 0x11D2 PUSH2 0x1179 JUMP JUMPDEST JUMPDEST SWAP3 SWAP2 POP POP JUMP JUMPDEST PUSH0 DUP2 SWAP1 POP DUP2 PUSH0 MSTORE PUSH1 0x20 PUSH0 KECCAK256 SWAP1 POP SWAP2 SWAP1 POP JUMP JUMPDEST PUSH0 PUSH1 0x20 PUSH1 0x1F DUP4 ADD DIV SWAP1 POP SWAP2 SWAP1 POP JUMP JUMPDEST PUSH0 DUP3 DUP3 SHL SWAP1 POP SWAP3 SWAP2 POP POP JUMP JUMPDEST PUSH0 PUSH1 0x8 DUP4 MUL PUSH2 0x1235 PUSH32 0xFFFFFFFFFFFFFFFFFFFFFFFFFFFFFFFFFFFFFFFFFFFFFFFFFFFFFFFFFFFFFFFF DUP3 PUSH2 0x11FA JUMP JUMPDEST PUSH2 0x123F DUP7 DUP4 PUSH2 0x11FA JUMP JUMPDEST SWAP6 POP DUP1 NOT DUP5 AND SWAP4 POP DUP1 DUP7 AND DUP5 OR SWAP3 POP POP POP SWAP4 SWAP3 POP POP POP JUMP JUMPDEST PUSH0 DUP2 SWAP1 POP SWAP2 SWAP1 POP JUMP JUMPDEST PUSH0 PUSH2 0x127A PUSH2 0x1275 PUSH2 0x1270 DUP5 PUSH2 0xB3B JUMP JUMPDEST PUSH2 0x1257 JUMP JUMPDEST PUSH2 0xB3B JUMP JUMPDEST SWAP1 POP SWAP2 SWAP1 POP JUMP JUMPDEST PUSH0 DUP2 SWAP1 POP SWAP2 SWAP1 POP JUMP JUMPDEST PUSH2 0x1293 DUP4 PUSH2 0x1260 JUMP JUMPDEST PUSH2 0x12A7 PUSH2 0x129F DUP3 PUSH2 0x1281 JUMP JUMPDEST DUP5 DUP5 SLOAD PUSH2 0x1206 JUMP JUMPDEST DUP3 SSTORE POP POP POP POP JUMP JUMPDEST PUSH0 PUSH0 SWAP1 POP SWAP1 JUMP JUMPDEST PUSH2 0x12BE PUSH2 0x12AF JUMP JUMPDEST PUSH2 0x12C9 DUP2 DUP5 DUP5 PUSH2 0x128A JUMP JUMPDEST POP POP POP JUMP JUMPDEST JUMPDEST DUP2 DUP2 LT ISZERO PUSH2 0x12EC JUMPI PUSH2 0x12E1 PUSH0 DUP3 PUSH2 0x12B6 JUMP JUMPDEST PUSH1 0x1 DUP2 ADD SWAP1 POP PUSH2 0x12CF JUMP JUMPDEST POP POP JUMP JUMPDEST PUSH1 0x1F DUP3 GT ISZERO PUSH2 0x1331 JUMPI PUSH2 0x1302 DUP2 PUSH2 0x11D9 JUMP JUMPDEST PUSH2 0x130B DUP5 PUSH2 0x11EB JUMP JUMPDEST DUP2 ADD PUSH1 0x20 DUP6 LT ISZERO PUSH2 0x131A JUMPI DUP2 SWAP1 POP JUMPDEST PUSH2 0x132E PUSH2 0x1326 DUP6 PUSH2 0x11EB JUMP JUMPDEST DUP4 ADD DUP3 PUSH2 0x12CE JUMP JUMPDEST POP POP JUMPDEST POP POP POP JUMP JUMPDEST PUSH0 DUP3 DUP3 SHR SWAP1 POP SWAP3 SWAP2 POP POP JUMP JUMPDEST PUSH0 PUSH2 0x1351 PUSH0 NOT DUP5 PUSH1 0x8 MUL PUSH2 0x1336 JUMP JUMPDEST NOT DUP1 DUP4 AND SWAP2 POP POP SWAP3 SWAP2 POP POP JUMP JUMPDEST PUSH0 PUSH2 0x1369 DUP4 DUP4 PUSH2 0x1342 JUMP JUMPDEST SWAP2 POP DUP3 PUSH1 0x2 MUL DUP3 OR SWAP1 POP SWAP3 SWAP2 POP POP JUMP JUMPDEST PUSH2 0x1382 DUP3 PUSH2 0xCC6 JUMP JUMPDEST PUSH8 0xFFFFFFFFFFFFFFFF DUP2 GT ISZERO PUSH2 0x139B JUMPI PUSH2 0x139A PUSH2 0xD96 JUMP JUMPDEST JUMPDEST PUSH2 0x13A5 DUP3 SLOAD PUSH2 0xF6C JUMP JUMPDEST PUSH2 0x13B0 DUP3 DUP3 DUP6 PUSH2 0x12F0 JUMP JUMPDEST PUSH0 PUSH1 0x20 SWAP1 POP PUSH1 0x1F DUP4 GT PUSH1 0x1 DUP2 EQ PUSH2 0x13E1 JUMPI PUSH0 DUP5 ISZERO PUSH2 0x13CF JUMPI DUP3 DUP8 ADD MLOAD SWAP1 POP JUMPDEST PUSH2 0x13D9 DUP6 DUP3 PUSH2 0x135E JUMP JUMPDEST DUP7 SSTORE POP PUSH2 0x1440 JUMP JUMPDEST PUSH1 0x1F NOT DUP5 AND PUSH2 0x13EF DUP7 PUSH2 0x11D9 JUMP JUMPDEST PUSH0 JUMPDEST DUP3 DUP2 LT ISZERO PUSH2 0x1416 JUMPI DUP5 DUP10 ADD MLOAD DUP3 SSTORE PUSH1 0x1 DUP3 ADD SWAP2 POP PUSH1 0x20 DUP6 ADD SWAP5 POP PUSH1 0x20 DUP2 ADD SWAP1 POP PUSH2 0x13F1 JUMP JUMPDEST DUP7 DUP4 LT ISZERO PUSH2 0x1433 JUMPI DUP5 DUP10 ADD MLOAD PUSH2 0x142F PUSH1 0x1F DUP10 AND DUP3 PUSH2 0x1342 JUMP JUMPDEST DUP4 SSTORE POP JUMPDEST PUSH1 0x1 PUSH1 0x2 DUP9 MUL ADD DUP9 SSTORE POP POP POP JUMPDEST POP POP POP POP POP POP JUMP JUMPDEST PUSH0 PUSH1 0x60 DUP3 ADD SWAP1 POP PUSH2 0x145B PUSH0 DUP4 ADD DUP7 PUSH2 0xBC9 JUMP JUMPDEST PUSH2 0x1468 PUSH1 0x20 DUP4 ADD DUP6 PUSH2 0xCB7 JUMP JUMPDEST DUP2 DUP2 SUB PUSH1 0x40 DUP4 ADD MSTORE PUSH2 0x147A DUP2 DUP5 PUSH2 0xCFE JUMP JUMPDEST SWAP1 POP SWAP5 SWAP4 POP POP POP POP JUMP JUMPDEST PUSH32 0x43616E6E6F7420657865637574653A206E6F7420656E6F75676820636F6E6669 PUSH0 DUP3 ADD MSTORE PUSH32 0x726D6174696F6E73000000000000000000000000000000000000000000000000 PUSH1 0x20 DUP3 ADD MSTORE POP JUMP JUMPDEST PUSH0 PUSH2 0x14DE PUSH1 0x28 DUP4 PUSH2 0xF9C JUMP JUMPDEST SWAP2 POP PUSH2 0x14E9 DUP3 PUSH2 0x1484 JUMP JUMPDEST PUSH1 0x40 DUP3 ADD SWAP1 POP SWAP2 SWAP1 POP JUMP JUMPDEST PUSH0 PUSH1 0x20 DUP3 ADD SWAP1 POP DUP2 DUP2 SUB PUSH0 DUP4 ADD MSTORE PUSH2 0x150B DUP2 PUSH2 0x14D2 JUMP JUMPDEST SWAP1 POP SWAP2 SWAP1 POP JUMP JUMPDEST PUSH0 DUP2 SWAP1 POP SWAP3 SWAP2 POP POP JUMP JUMPDEST PUSH0 DUP2 SLOAD PUSH2 0x1528 DUP2 PUSH2 0xF6C JUMP JUMPDEST PUSH2 0x1532 DUP2 DUP7 PUSH2 0x1512 JUMP JUMPDEST SWAP5 POP PUSH1 0x1 DUP3 AND PUSH0 DUP2 EQ PUSH2 0x154C JUMPI PUSH1 0x1 DUP2 EQ PUSH2 0x1561 JUMPI PUSH2 0x1593 JUMP JUMPDEST PUSH1 0xFF NOT DUP4 AND DUP7 MSTORE DUP2 ISZERO ISZERO DUP3 MUL DUP7 ADD SWAP4 POP PUSH2 0x1593 JUMP JUMPDEST PUSH2 0x156A DUP6 PUSH2 0x11D9 JUMP JUMPDEST PUSH0 JUMPDEST DUP4 DUP2 LT ISZERO PUSH2 0x158B JUMPI DUP2 SLOAD DUP2 DUP10 ADD MSTORE PUSH1 0x1 DUP3 ADD SWAP2 POP PUSH1 0x20 DUP2 ADD SWAP1 POP PUSH2 0x156C JUMP JUMPDEST DUP4 DUP9 ADD SWAP6 POP POP POP JUMPDEST POP POP POP SWAP3 SWAP2 POP POP JUMP JUMPDEST PUSH0 PUSH2 0x15A7 DUP3 DUP5 PUSH2 0x151C JUMP JUMPDEST SWAP2 POP DUP2 SWAP1 POP SWAP3 SWAP2 POP POP JUMP JUMPDEST PUSH32 0x5472616E73616374696F6E206661696C65640000000000000000000000000000 PUSH0 DUP3 ADD MSTORE POP JUMP JUMPDEST PUSH0 PUSH2 0x15E6 PUSH1 0x12 DUP4 PUSH2 0xF9C JUMP JUMPDEST SWAP2 POP PUSH2 0x15F1 DUP3 PUSH2 0x15B2 JUMP JUMPDEST PUSH1 0x20 DUP3 ADD SWAP1 POP SWAP2 SWAP1 POP JUMP JUMPDEST PUSH0 PUSH1 0x20 DUP3 ADD SWAP1 POP DUP2 DUP2 SUB PUSH0 DUP4 ADD MSTORE PUSH2 0x1613 DUP2 PUSH2 0x15DA JUMP JUMPDEST SWAP1 POP SWAP2 SWAP1 POP JUMP INVALID LOG2 PUSH5 0x6970667358 0x22 SLT KECCAK256 0xDC PUSH13 0x6CAB3FF84F44DF156845AE1487 RETURNDATASIZE 0x2A SWAP2 PUSH12 0x55820030F94D1687F6A9E80A CREATE PUSH5 0x736F6C6343 STOP ADDMOD 0x1F STOP CALLER "
				},
				"gasEstimates": {
					"creation": {
						"codeDepositCost": "1142400",
						"executionCost": "infinite",
						"totalCost": "infinite"
					},
					"external": {
						"confirmTransaction(uint256)": "infinite",
						"executeTransaction(uint256)": "infinite",
						"isConfirmed(uint256,address)": "3115",
						"isOwner(address)": "2856",
						"owners(uint256)": "4944",
						"required()": "2469",
						"submitTransaction(address,uint256,bytes)": "infinite",
						"transactions(uint256)": "infinite"
					}
				},
				"methodIdentifiers": {
					"confirmTransaction(uint256)": "c01a8c84",
					"executeTransaction(uint256)": "ee22610b",
					"isConfirmed(uint256,address)": "80f59a65",
					"isOwner(address)": "2f54bf6e",
					"owners(uint256)": "025e7c27",
					"required()": "dc8452cd",
					"submitTransaction(address,uint256,bytes)": "c6427474",
					"transactions(uint256)": "9ace38c2"
				}
			},
			"storageLayout": {
				"storage": [
					{
						"astId": 34,
						"contract": "lesson3/MultiSign.sol:MultiSign",
						"label": "owners",
						"offset": 0,
						"slot": "0",
						"type": "t_array(t_address)dyn_storage"
					},
					{
						"astId": 38,
						"contract": "lesson3/MultiSign.sol:MultiSign",
						"label": "isOwner",
						"offset": 0,
						"slot": "1",
						"type": "t_mapping(t_address,t_bool)"
					},
					{
						"astId": 40,
						"contract": "lesson3/MultiSign.sol:MultiSign",
						"label": "required",
						"offset": 0,
						"slot": "2",
						"type": "t_uint256"
					},
					{
						"astId": 55,
						"contract": "lesson3/MultiSign.sol:MultiSign",
						"label": "transactions",
						"offset": 0,
						"slot": "3",
						"type": "t_array(t_struct(Transaction)51_storage)dyn_storage"
					},
					{
						"astId": 61,
						"contract": "lesson3/MultiSign.sol:MultiSign",
						"label": "isConfirmed",
						"offset": 0,
						"slot": "4",
						"type": "t_mapping(t_uint256,t_mapping(t_address,t_bool))"
					}
				],
				"types": {
					"t_address": {
						"encoding": "inplace",
						"label": "address",
						"numberOfBytes": "20"
					},
					"t_array(t_address)dyn_storage": {
						"base": "t_address",
						"encoding": "dynamic_array",
						"label": "address[]",
						"numberOfBytes": "32"
					},
					"t_array(t_struct(Transaction)51_storage)dyn_storage": {
						"base": "t_struct(Transaction)51_storage",
						"encoding": "dynamic_array",
						"label": "struct MultiSign.Transaction[]",
						"numberOfBytes": "32"
					},
					"t_bool": {
						"encoding": "inplace",
						"label": "bool",
						"numberOfBytes": "1"
					},
					"t_bytes_storage": {
						"encoding": "bytes",
						"label": "bytes",
						"numberOfBytes": "32"
					},
					"t_mapping(t_address,t_bool)": {
						"encoding": "mapping",
						"key": "t_address",
						"label": "mapping(address => bool)",
						"numberOfBytes": "32",
						"value": "t_bool"
					},
					"t_mapping(t_uint256,t_mapping(t_address,t_bool))": {
						"encoding": "mapping",
						"key": "t_uint256",
						"label": "mapping(uint256 => mapping(address => bool))",
						"numberOfBytes": "32",
						"value": "t_mapping(t_address,t_bool)"
					},
					"t_struct(Transaction)51_storage": {
						"encoding": "inplace",
						"label": "struct MultiSign.Transaction",
						"members": [
							{
								"astId": 42,
								"contract": "lesson3/MultiSign.sol:MultiSign",
								"label": "to",
								"offset": 0,
								"slot": "0",
								"type": "t_address"
							},
							{
								"astId": 44,
								"contract": "lesson3/MultiSign.sol:MultiSign",
								"label": "value",
								"offset": 0,
								"slot": "1",
								"type": "t_uint256"
							},
							{
								"astId": 46,
								"contract": "lesson3/MultiSign.sol:MultiSign",
								"label": "data",
								"offset": 0,
								"slot": "2",
								"type": "t_bytes_storage"
							},
							{
								"astId": 48,
								"contract": "lesson3/MultiSign.sol:MultiSign",
								"label": "executed",
								"offset": 0,
								"slot": "3",
								"type": "t_bool"
							},
							{
								"astId": 50,
								"contract": "lesson3/MultiSign.sol:MultiSign",
								"label": "numConfirmations",
								"offset": 0,
								"slot": "4",
								"type": "t_uint256"
							}
						],
						"numberOfBytes": "160"
					},
					"t_uint256": {
						"encoding": "inplace",
						"label": "uint256",
						"numberOfBytes": "32"
					}
				}
			},
			"userdoc": {
				"kind": "user",
				"methods": {},
				"version": 1
			}
		}
	}
}